:020000040800F2
:1000000060070020492B0008A5010008A70100088F
:10001000AB010008AF010008B301000800000000B8
:10002000000000000000000000000000B701000810
:10003000B901000800000000BB010008BD01000874
:10004000632B0008632B0008632B0008632B000858
:10005000632B0008632B0008632B0008632B000848
:10006000632B0008632B0008632B0008632B000838
:10007000632B0008632B0008632B0008632B000828
:10008000632B0008632B0008632B0008632B000818
:10009000632B0008632B0008632B0008632B000808
:1000A000632B0008632B0008632B0008632B0008F8
:1000B000632B0008632B0008632B0008632B0008E8
:1000C000632B0008632B0008632B0008632B0008D8
:1000D000632B0008D5050008632B0008632B00087C
:1000E000632B0008632B0008632B000800F002F864
:1000F00000F03FF80AA090E8000C82448344AAF183
:100100000107DA4501D100F034F8AFF2090EBAE880
:100110000F0013F0010F18BFFB1A43F0010318473B
:100120005845000078450000103A24BF78C878C1CF
:10013000FAD8520724BF30C830C144BF04680C60ED
:10014000704700000023002400250026103A28BF35
:1001500078C1FBD8520728BF30C148BF0B60704739
:10016000782903F0F583002070471FB51FBD10B537
:1001700010BD03F0A5FC1146FFF7F7FF00F008F8EB
:1001800003F0C3FC03B4FFF7F2FF03BC00F0C4F9B3
:1001900000F066FA00F056F900F075FD01E000F09D
:1001A00072FAFCE7704700BFFEE700BFFEE700BF42
:1001B000FEE700BFFEE770477047704770470000DA
:1001C0000CB50020019000909248006840F4803007
:1001D0009049086000BF8F48006800F4003000902C
:1001E0000198401C0190009818B90198B0F5A06FD3
:1001F000F1D18848006800F4003010B1012000906F
:1002000001E000200090009801285CD1824800683D
:1002100040F01000804908600846006820F00300A4
:1002200008600846006840F00200086079484068AD
:10023000784948600846406848600846406840F48D
:10024000806048600846C06A744908407149C862C5
:100250000846C06A724908436E49C8620846006889
:1002600040F08060086000BF6A48006800F00060ED
:100270000028F9D06748406820F47C106549486040
:100280000846406840F4E81048600846006840F0BE
:100290008070086000BF5F48006800F000700028B0
:1002A000F9D05C48406820F003005A49486008468D
:1002B000406840F00200486000BF5648406800F0C7
:1002C0000C000828F9D10CBD10B5FFF779FF10BD5F
:1002D00010B55048006840F001004E4908600846DB
:1002E0004068504908404B494860084600684E49FC
:1002F0000840484908600846006820F480200860EB
:100300000846406820F4FE0048600846006820F077
:10031000A05008604FF47F0088600020C862FFF79B
:10032000D3FF4FF000604149086010BDF0B50021D7
:10033000002000230024002200250026354F7F687E
:1003400007F00C0121B1042908D008294BD10BE09A
:10035000374FDFF8E0C0CCF800704AE0364FDFF8E6
:10036000D4C0CCF8007044E02A4F7F6807F47010C6
:10037000284F7F6807F48033800C0D2801D0801C43
:1003800000E0062033B92D4F4743DFF8A8C0CCF872
:10039000007027E01F4FFF6A07F480341D4FFF6A8B
:1003A00007F00F077A1C44B9234FB7FBF2F7474316
:1003B000DFF880C0CCF8007014E0164FFF6AC7F376
:1003C00003177D1C134FFF6AC7F30327BE1C1A4F88
:1003D000B7FBF5F77743B7FBF2F74743DFF854C0B5
:1003E000CCF8007005E0124FDFF848C0CCF8007080
:1003F00000BF00BF074F7F68C7F30317DFF840C097
:100400001CF807100B4F3F68CF40DFF828C0CCF82E
:100410000070F0BD001002400020024000F0FEFF1E
:10042000440601000000FFF0FFFFF6FE08ED00E0CB
:1004300000127A000000002040787D0100093D0094
:100440000400002010B56FF0040002F0ECFB2E4811
:1004500000682E49B0FBF1F02D490870084600787D
:1004600000EB4001C1EBC0104FF6FF7101EAC00084
:100470002849088010BD0146254A12784A434FF0AA
:10048000E0235A6100229A611A46126942F0010281
:100490001A6100BF4FF0E022106900F001021AB1AA
:1004A00000F48032002AF5D04FF0E022126922F0E9
:1004B00001024FF0E0231A6100229A617047014661
:1004C000144A12884A434FF0E0235A6100229A618D
:1004D0001A46126942F001021A6100BF4FF0E02291
:1004E000106900F001021AB100F48032002AF5D040
:1004F0004FF0E022126922F001024FF0E0231A616E
:1005000000229A61704700000000002000127A006B
:100510001400002016000020014600BF704700BFF5
:100520004B4A128802F04002002AF9D0C2B2484B6E
:100530001B1D1A80704710B586B00446012144F295
:10054000040002F05AFF424802F0BCFF4FF4007072
:10055000ADF8140003208DF8160018208DF8170050
:1005600005A93C4802F0DEFB4FF48060ADF81400B2
:1005700004208DF8170005A9364802F0D3FB25208A
:100580008DF8000003208DF801008DF80200012095
:100590008DF80300684602F0FCFA01940020ADF8E3
:1005A0000800ADF80A00ADF80C00ADF810000C2002
:1005B000ADF80E0001A9264802F0C7FF012240F263
:1005C0002551234803F059F80121214803F049F847
:1005D00006B010BD10B540F225511D4803F032F9A8
:1005E00010B31B4803F0AEF8C4B21B48008800F4F7
:1005F0000040C8B91848008800F4804060B10A2C57
:1006000003D000201449088020E01348008840F4FB
:1006100000401149088019E00D2C06D10E480088D1
:1006200040F480400C49088010E00B480088C0F37B
:100630000D000A490C5408480088401C06490880EF
:1006400008460088C72801DD0020088010BD000092
:1006500000380140000801401C0000203800002044
:1006600008B50121082002F0C8FE0320ADF8000003
:1006700010208DF8030003208DF8020069461D4804
:1006800002F050FB08BD10B501211A4802F0F9FB39
:100690000221184802F0F3FB4FF4FA70FFF70FFF46
:1006A0000121144802F0EBFB0221124802F0E9FBA1
:1006B0004FF4FA70FFF703FF10BD10B501210D488C
:1006C00002F0DDFB02210B4802F0D9FB4FF4FA7077
:1006D000FFF7F5FE10BD10B50121064802F0D1FB71
:1006E0000221044802F0CDFB4FF4FA70FFF7E7FE59
:1006F00010BD0000000C01404FF48071FE4A5161B2
:1007000049005161FD490860891451611161C910A6
:100710001161704710B54FF08830F8490C39086006
:10072000091D08600020F54908608815F249086134
:100730004000486180004861F148008848F689110E
:10074000884202D10220FFF796FE4FF40060EA498A
:100750000861EA48001F006884B2481508614FF03C
:100760003330E6490C390860091D08604FF6FF7008
:10077000E2490860204610BD10B504460B462046ED
:10078000FFF7BAFF4FF48070DB4908614000486111
:10079000DA480360801448610861C010086110BD28
:1007A00010B504462046FFF7A7FFFFF7B3FF10BDC3
:1007B00000B5D348008849F24131884203D12C204A
:1007C000FFF79AFF02E02220FFF796FF00BD4FF4EB
:1007D0008071C94A116149005161C8490860891492
:1007E00051611161C9101161704730B5014601F0C6
:1007F0001F04C1F34513CA0AE50205EB431515446E
:10080000A8B230BD2DE9F04105460E46F02D02DAC2
:10081000B6F5A07F02DB0020BDE8F0813146284616
:1008200003F07EF9B648008849F24131884203D18D
:100830002E20FFF761FF02E02220FFF75DFF4FF05F
:100840008830AE490C390860091D08604FF6FF700A
:10085000AA4908608815A8490861400048618000DD
:10086000486108614861A648008848F689118842B5
:1008700002D10220FFF7FFFD4FF400609E4908619E
:100880009E48001F006884B29D48008849F24131AB
:1008900088420ED14FF4006097494861086197483B
:1008A000001F00681FFA80F8E7B24FF6FF7000EAF9
:1008B00007274FF40070904908614FF033308F499B
:1008C0000C390860091D08604FF6FF708B490860FD
:1008D0008B48008844F23551884210D088480088FF
:1008E000091F88420BD08648008848F68911884243
:1008F00005D0834800884BF20551884201D120463B
:100900008AE77F48008849F24131884207D1E012E6
:10091000C002B91240EA411040EAE8207CE72046D4
:10092000FFF763FF78E700B57548008849F2413169
:10093000884203D12920FFF7DFFE04E040F2731163
:100940000720FFF719FF00BD00B56D48008849F288
:100950004131884203D12820FFF7CEFE03E0002179
:100960000720FFF709FF00BD70B5054600240026EB
:100970006348008849F2413188427DD1082D1CD25C
:10098000DFE805F00406090C0F12151800BF14E08B
:1009900044F0800411E044F040040EE044F0C00450
:1009A0000BE044F0200408E044F0600405E044F06B
:1009B000A00402E044F0E00400BF00BF362644F08B
:1009C000080421463046FFF7D7FE04F02000002837
:1009D00075D02A20FFF790FE4FF4807046490861D9
:1009E0004000486100204549086088144249486138
:1009F0000861C01008614010086140004861002093
:100A00003E49086088143C4948610861C01008618B
:100A10004010086140004861012038490860000327
:100A2000354948610861C010086140100861400004
:100A300048613F203149086088142F4948610861A6
:100A4000C01008612B20FFF757FE4FF480702A4931
:100A50000861400048610020284908608814264940
:100A600048610861C0100861401008614000486199
:100A700000202249086000E09BE088141E4948617C
:100A80000861C01008614010086140004861002002
:100A90001A4908608814184948610861C010086143
:100AA0004010086140004861EF2014490860881434
:100AB000114948610861C0100861ACE0FFE72A20D5
:100AC000FFF71AFE4FF480700B490861400048613F
:100AD00000200A4908608814074948610861C0106D
:100AE0000861401008614000486100200349086027
:100AF00088140149486105E0001001400C180140CC
:100B0000220000200861C010086140100861400008
:100B100048610020FE4908608814FE494861086168
:100B2000C01008614010086140004861EF20F8499A
:100B300008608814F74948610861C01008612B20DB
:100B4000FFF7DAFD4FF48070F24908614000486118
:100B50000020EF4908608814EE4948610861C01020
:100B6000086140100861400048610020E8490860C1
:100B70008814E84948610861C010086140100861A4
:100B8000400048610120E24908600003E1494861F2
:100B90000861C010086140100861400048613F20B2
:100BA000DB4908608814DB4948610861C0100861AE
:100BB00031E0082D1CD2DFE805F004070A0D0F1202
:100BC000151844F0300413E044F0100410E044F031
:100BD00020040DE000BF0BE044F0380408E044F0CE
:100BE000280405E044F0180402E044F0080400BFC3
:100BF00000BFC948008848F68911884204D11126EF
:100C000046F24000044302E0032644F480542146A7
:100C10003046FFF7B1FD70BD70B504460D4629465C
:100C2000204602F07DFFFFF7C3FD4FF48070B94905
:100C3000086140004861B9480088B54908608814D7
:100C4000B44948610861C010086170BD70B50446C0
:100C500000250021084602F063FFFFF7A9FD00BF51
:100C60000DE04FF48070AB49086140004861A8482E
:100C70000460801448610861C01008616D1CB5F5FE
:100C8000963FEED370BD08B50121512002F0B5FBAF
:100C90000121A34802F017F94FF4F850ADF8000015
:100CA00010208DF8030003208DF802006946994852
:100CB00002F038F84FF4F851964802F0E0F84FF699
:100CC000FF70ADF80000694691480C3802F02AF830
:100CD0004FF6FF718E480C3802F0D1F83220FFF742
:100CE000EEFB01210020FFF747FD3220FFF7E7FB75
:100CF0000020FFF755FD884908800846008828B184
:100D0000084600884FF6FF7188421BD1D320FFF7B9
:100D1000F3FCFFF7FFFCFFF7FDFCFFF7FBFC00F027
:100D2000BF007D490880084600884FF6FF7101EA40
:100D3000002079490880FFF7EDFC774909880843CE
:100D4000754908807448018876A002F0C1FD724898
:100D5000008849F2413188427ED1CF20FFF7CCFC98
:100D60004FF480706B490861400048610020684979
:100D700008608814674948610861C0100861401024
:100D8000086140004861C1206149086088146149D8
:100D900048610861C0100861401008614000486166
:100DA00030205B49086088145A4948610861C010C6
:100DB0000861ED20FFF7A0FC4FF4807055490861F1
:100DC00040004861642052490860881451494861D4
:100DD0000861C010086140100861400048610320AC
:100DE0004B49086088144B4948610861C01008618C
:100DF000401008614000486112204549086088148D
:100E0000444948610861C010086140100861400011
:100E1000486181203E49086088143E494861086164
:100E2000C0100861E820FFF767FC4FF48070394973
:100E300008614000486185203549086088143549BB
:100E400048610861C01008614010086140004861B5
:100E500010202F49086000E089E300022D49486115
:100E60000861C010086140100861400048617A20A4
:100E7000274908608814274948610861C010086143
:100E8000CB20FFF739FC4FF4807022490861400005
:100E9000486139201E49086088141E49486108616C
:100EA000C010086140100861400048612C201849BA
:100EB00008608814174948610861C0100861401033
:100EC00008614000486100201149086088141149F8
:100ED00048610861C0100861401008614000486125
:100EE00034200B49086088140A4948610861C01021
:100EF0000861401008614000486102200449086010
:100F0000C002044948610861C0100861F72011E07F
:100F10000C18014000100140220000201E0000209B
:100F200000023000204C43442049443A25780D0A01
:100F300000000000FFF7E0FB4FF48070FE490861FD
:100F4000400048612020FD490860C001FA4948611D
:100F50000861C0100861EA20FFF7CEFB4FF48070F3
:100F6000F5490861400048610020F4490860881490
:100F7000F14948610861C0100861401008614000F3
:100F800048610020ED4908608814EB494861086118
:100F9000C0100861C020FFF7AFFB4FF48070E64936
:100FA0000861400048611B20E44908608814E24958
:100FB00048610861C0100861C120FFF79DFB4FF434
:100FC0008070DD490861400048610120DB4908600C
:100FD0000003D94948610861C0100861C520FFF7C6
:100FE0008BFB4FF48070D449086140004861302089
:100FF000D24908608814D04948610861C01008616E
:1010000040100861400048613020CC4908608814D5
:10101000C94948610861C0100861C720FFF76CFB2F
:101020004FF48070C449086140004861B720C3494B
:1010300008608814C04948610861C0100861362002
:10104000FFF75AFB4FF48070BB49086140004861CC
:101050004820BA4908608814B74948610861C0103F
:1010600008613A20FFF748FB4FF48070B2490861ED
:10107000400048615520B14908608814AE49486174
:101080000861C0100861B120FFF736FB4FF4807093
:10109000A9490861400048610020A84908608814F7
:1010A000A54948610861C01008614010086140000E
:1010B00048611A20A149086088149F494861086165
:1010C000C0100861B620FFF717FB4FF480709A49F3
:1010D0000861400048610A209849086088149649D0
:1010E00048610861C0100861401008614000486113
:1010F000A2209249086088148F4948610861C01095
:101100000861F220FFF7F8FA4FF480708A4908610D
:101110004000486100208949086088148649486178
:101120000861C01008612620FFF7E6FA4FF48070CE
:10113000814908614000486101208049086000033E
:101140007D4948610861C0100861E020FFF7D4FACA
:101150004FF4807078490861400048610F2077495A
:1011600008608814744948610861C0100861401023
:101170000861400048612A207049086088146E495F
:1011800048610861C0100861401008614000486172
:1011900028206A4908608814674948610861C010BE
:1011A00008614010086140004861082063490860F8
:1011B0004002614948610861C0100861401008613F
:1011C000400048610E205D49086088145A49486112
:1011D0000861C010086140100861400048610820A3
:1011E000564908604002544948610861C0100861CE
:1011F000401008614000486154205049086088143C
:101200004D4948610861C010086140100861400004
:101210004861A92049490860881447494861086124
:10122000C0100861401008614000486143204349F4
:1012300008608814404948610861C0100861401086
:101240000861400048610A203C49086088143A4916
:1012500048610861C01008614010086140004861A1
:101260000F20364908608814334948610861C0106E
:101270000861401008614000486100202F49086063
:1012800088142D4948610861C01008614010086148
:1012900040004861002029490860881426494861B7
:1012A0000861C010086140100861400048610020DA
:1012B000224908608814204948610861C01008610B
:1012C000401008614000486100201C4908608814F3
:1012D000194948610861C0100861E120FFF70CFA64
:1012E0004FF48070144908614000486100201349A0
:1012F00008608814104948610861C01008614010F6
:1013000008614000486115200C49086088140A49AA
:1013100048610861C01008614010086140004861E0
:101320001720064908608814034948610861C01005
:1013300008614010086103E0001001400C180140F2
:10134000400048610720F94908608814F84948615D
:101350000861C01008614010086140004861112018
:10136000F24908608814F24948610861C0100861B8
:1013700040100861400048610620EC49086088146C
:10138000EB4948610861C0100861401008614000E5
:1013900048612B20E54908608814E54948610861E7
:1013A000C010086140100861400048615620DF49C4
:1013B00008608814DE4948610861C0100861401067
:1013C0000861400048613C20D84908608814D84929
:1013D00048610861C0100861401008614000486120
:1013E0000520D24908608814D14948610861C010BD
:1013F000086140100861400048611020CB49086036
:101400000002CB4948610861C010086140100861C2
:10141000400048610F20C54908608814C4494861EC
:101420000861C010086140100861400048613F2019
:10143000BE4908608814BE4948610861C01008614F
:1014400040100861400048613F20B8490860881496
:10145000B74948610861C010086140100861400048
:1014600048610F20B14908608814B149486108619A
:10147000C01008612B20FFF73FF94FF48070AC4992
:101480000861400048610020A84908608814A84904
:1014900048610861C010086140100861400048615F
:1014A0000020A24908608814A14948610861C01061
:1014B0000861401008614000486101209B490860B4
:1014C00000039B4948610861C01008614010086131
:1014D000400048613F20954908608814944948615C
:1014E0000861C01008612A20FFF706F94FF48070E8
:1014F0008F4908614000486100208C4908608814C9
:101500008B4948610861C0100861401008614000C3
:101510004861002085490860881485494861086150
:10152000C0100861401008614000486100207F49F8
:10153000086088147E4948610861C0100861401045
:10154000086140004861EF207849086088147849B4
:1015500048610861C01008611120FFF7CDF87820BC
:10156000FEF7ADFF2920FFF7C7F801F095B87148E5
:10157000008849F2253188427ED147F6F001E52006
:10158000FFF7FAF84FF480710120FFF7F5F84FF4F8
:10159000E0610220FFF7F0F841F230010320FFF78D
:1015A000EBF800210420FFF7E7F840F202210820C1
:1015B000FFF7E2F800210920FFF7DEF800210A20FA
:1015C000FFF7DAF800210C20FFF7D6F800210D20F4
:1015D000FFF7D2F800210F20FFF7CEF800211020EE
:1015E000FFF7CAF807211120FFF7C6F800211220E3
:1015F000FFF7C2F800211320FFF7BEF800210720F3
:10160000FFF7BAF841F290611020FFF7B5F840F209
:1016100027211120FFF7B0F89D211220FFF7ACF829
:101620004FF4C8511320FFF7A7F825212920FFF711
:10163000A3F80D212B20FFF79FF807213020FFF79B
:101640009BF840F203313120FFF796F80321322056
:10165000FFF792F840F206213520FFF78DF80821B8
:101660003620FFF789F840F206413720FFF784F86B
:101670004FF44171382000E05EE0FFF77DF807216C
:101680003920FFF779F840F202613C20FFF774F847
:1016900008213D20FFF770F800215020FFF76CF87B
:1016A000EF215120FFF768F800215220FFF764F87E
:1016B00040F23F115320FFF75FF84FF427416020BD
:1016C000FFF75AF801216120FFF756F800216A2040
:1016D000FFF752F800218020FFF74EF8002181200B
:1016E000FFF74AF800218220FFF746F80021832007
:1016F000FFF742F800218420FFF73EF80021852003
:10170000FFF73AF810219020FFF736F84FF4C06148
:101710009220FFF731F840F233110720FFF72CF841
:1017200022210020FFF728F81FE700000C180140D5
:101730000010014022000020FE48008849F22831B4
:1017400088427DD11021E720FFF716F80121002003
:10175000FFF712F84FF480710120FFF70DF84FF4F6
:10176000E0610220FFF708F841F230010320FFF7A3
:1017700003F800210420FEF7FFFF40F207210820B4
:10178000FEF7FAFF00210920FEF7F6FF00210A20EC
:10179000FEF7F2FF01210C20FEF7EEFF00210D20E5
:1017A000FEF7EAFF00210F20FEF7E6FF00211020E0
:1017B000FEF7E2FF07211120FEF7DEFF00211220D5
:1017C000FEF7DAFF00211320FEF7D6FF3220FEF7E6
:1017D00076FE41F290511020FEF7CEFF40F2272115
:1017E0001120FEF7C9FF3220FEF769FE9C2112206E
:1017F000FEF7C2FF3220FEF762FE4FF4C8511320FD
:10180000FEF7BAFF23212920FEF7B6FF0E212B2079
:10181000FEF7B2FF3220FEF752FE00212020FEF735
:10182000ABFF40F23F112120FEF7A6FF3220FEF76A
:1018300046FE07213020FEF79FFF40F2077100E0CF
:1018400087E03120FEF798FF06213220FEF794FF53
:1018500040F204713520FEF78FFF41F60471362007
:10186000FEF78AFF04213720FEF786FF002138208B
:10187000FEF782FF40F206713920FEF77DFF40F24D
:1018800001713C20FEF778FF0F213D20FEF774FF29
:101890003220FEF714FE00215020FEF76DFFEF21ED
:1018A0005120FEF769FF00215220FEF765FF40F24C
:1018B0003F115320FEF760FF4FF427416020FEF7F1
:1018C0005BFF01216120FEF757FF00216A20FEF730
:1018D00053FF00218020FEF74FFF00218120FEF7FB
:1018E0004BFF00218220FEF747FF00218320FEF7F7
:1018F00043FF00218420FEF73FFF00218520FEF7F3
:101900003BFF10219020FEF737FF00219220FEF7C9
:1019100033FF03219320FEF72FFF4FF488719520AA
:10192000FEF72AFF00219720FEF726FF00219820CE
:10193000FEF722FF40F233110720FEF71DFF0021C2
:101940002020FEF719FF40F23F112120FEF714FF7F
:101950000BE67848008849F22031884204D0754867
:101960000088B0F5134F7DD100210846FEF704FF33
:101970004FF480710120FEF7FFFE4FF4E06102207A
:10198000FEF7FAFE41F230010320FEF7F5FE0021DA
:101990000420FEF7F1FE40F202210820FEF7ECFEE3
:1019A00000210920FEF7E8FE00210A20FEF7E4FEF0
:1019B00001210C20FEF7E0FE00210D20FEF7DCFEE9
:1019C00000210F20FEF7D8FE3220FEF778FD40F20E
:1019D00001110720FEF7D0FE3220FEF770FD4FF414
:1019E00086511020FEF7C8FE07211120FEF7C4FE25
:1019F0004FF488711220FEF7BFFE4FF430611320C0
:101A0000FEF7BAFE00212920FEF7B6FE44F21001CF
:101A10002B20FEF7B1FE00215020FEF7ADFEEF2196
:101A20005120FEF7A9FE00215220FEF7A5FE40F24C
:101A30003F115320FEF7A0FE4FF41C516020FEF72B
:101A40009BFE01216120FEF797FE00216A20FEF730
:101A500093FE00218020FEF78FFE00218120FEF7FB
:101A60008BFE00E02EE000218220FEF785FE0021A3
:101A70008320FEF781FE00218420FEF77DFE0021F9
:101A80008520FEF779FE10219020FEF775FE0021DB
:101A90009220FEF771FE01219320FEF76DFE4FF4B8
:101AA00088719520FEF768FE00219720FEF764FEFE
:101AB00000219820FEF760FE40F273110720FEF728
:101AC0005BFE52E51B48008845F2084188427DD103
:101AD0004FF480710120FEF74FFE4FF4E0610220C9
:101AE000FEF74AFE41F230010320FEF745FE0021D9
:101AF0000420FEF741FE40F207210820FEF73CFEDD
:101B000000210920FEF738FE00210A20FEF734FEEE
:101B100000210C20FEF730FE00210D20FEF72CFEE8
:101B200000210F20FEF728FE1420FEF7C8FC41F22A
:101B3000B06101E0220000201020FEF71DFE01210F
:101B40001120FEF719FE01211720FEF715FE4FF4B4
:101B50009C711220FEF710FE4FF400611320FEF777
:101B60000BFE09212920FEF707FE09212A20FEF796
:101B700003FE0021A420FEF7FFFD00215020FEF708
:101B8000FBFDEF215120FEF7F7FD00215220FEF76B
:101B9000F3FD40F23F115320FEF7EEFD4FF41C51D0
:101BA0006020FEF7E9FD01216120FEF7E5FD00213F
:101BB0006A20FEF7E1FD00218020FEF7DDFD002117
:101BC0008120FEF7D9FD0021822000E027E0FEF70A
:101BD000D3FD00218320FEF7CFFD00218420FEF7F6
:101BE000CBFD00218520FEF7C7FD13219020FEF7D5
:101BF000C3FD00219220FEF7BFFD03219320FEF7D5
:101C0000BBFD4FF488719520FEF7B6FD40F27311CD
:101C10000720FEF7B1FD3220FEF751FCA5E4FE4897
:101C2000008841F2055188427ED100210720FEF74D
:101C3000A3FD3220FEF743FC4FF48E711220FEF715
:101C40009BFD0121A420FEF797FD0F210820FEF740
:101C500093FD08210A20FEF78FFD08210D20FEF7D5
:101C60008BFD40F207713020FEF786FD0721312001
:101C7000FEF782FD40F203613220FEF77DFD4FF456
:101C8000E0613320FEF778FD40F202213420FEF7B8
:101C900073FD02213520FEF76FFD41F60F713620EE
:101CA000FEF76AFD40F207713720FEF765FD00215F
:101CB0003820FEF761FD00213920FEF75DFD40F27E
:101CC00007713A20FEF758FD00213B20FEF754FD36
:101CD00007213C20FEF750FD00213D20FEF74CFD82
:101CE0003220FEF7ECFB01210720FEF745FD012124
:101CF0001720FEF741FD3220FEF7E1FB4FF4BD5106
:101D00001020FEF739FD40F217211120FEF734FDB7
:101D10004FF48F711220FEF72FFD4FF470611320E6
:101D2000FEF72AFD002100E094E02A20FEF724FDC2
:101D30000A212920FEF720FD4FF49F711220FEF7A3
:101D40001BFD00215020FEF717FDEF215120FEF76B
:101D500013FD00215220FEF70FFD40F23F115320EA
:101D6000FEF70AFD4FF41C516020FEF705FD01212E
:101D70006120FEF701FD00216A20FEF7FDFC002135
:101D80008020FEF7F9FC00218120FEF7F5FC002100
:101D90008220FEF7F1FC00218320FEF7EDFC0021FC
:101DA0008420FEF7E9FC00218520FEF7E5FC1321E5
:101DB0009020FEF7E1FC4FF440719220FEF7DCFC2E
:101DC00005219320FEF7D8FC00219520FEF7D4FCD6
:101DD00000219720FEF7D0FC00219820FEF7CCFCD4
:101DE0004FF480710120FEF7C7FC4FF4E061022040
:101DF000FEF7C2FC41F230010320FEF7BDFC0021DA
:101E00000420FEF7B9FC00210C20FEF7B5FC0021F0
:101E10000F20FEF7B1FC00212020FEF7ADFC0021D1
:101E20002120FEF7A9FC21210720FEF7A5FC1420A4
:101E3000FEF745FB61210720FEF79EFC1420FEF70C
:101E40003EFB40F273110720FEF796FC1420FEF7CC
:101E500036FB69E4704800884BF2055188427CD11A
:101E600000210846FEF788FC00210846FEF784FCA6
:101E700000210846FEF780FC00210846FEF77CFCA6
:101E80000121A420FEF778FC1420FEF718FB4FF484
:101E90001C516020FEF770FC40F202210820FEF782
:101EA0006BFC4FF405713020FEF766FC43F21571B0
:101EB0003120FEF761FC40F204613220FEF75CFC49
:101EC00040F616613320FEF757FC42F21121342010
:101ED000FEF752FC4FF4A8513520FEF74DFC48F2B6
:101EE00007513620FEF748FC41F207413720FEF744
:101EF00043FC41F203413820FEF73EFC202139200B
:101F0000FEF73AFC1A219020FEF736FC0021102043
:101F1000FEF732FC07211120FEF72EFC00211220D3
:101F2000FEF72AFC00211320FEF726FC1420FEF702
:101F3000C6FA4FF4E6611020FEF71EFC40F237119E
:101F40001120FEF719FC1420FEF7B9FA4FF4DC71EA
:101F50001220FEF711FC142000E088E0FEF7AFFA33
:101F60004FF470611320FEF707FC80212A20FEF752
:101F700003FC48212920FEF7FFFB1420FEF79FFAFF
:101F80004FF480710120FEF7F7FB4FF4E06102206F
:101F9000FEF7F2FB41F230210320FEF7EDFB40F2A9
:101FA00002210820FEF7E8FB00210A20FEF7E4FBEF
:101FB00000210C20FEF7E0FB00210D20FEF7DCFBEA
:101FC00030210E20FEF7D8FB00215020FEF7D4FB75
:101FD000EF215120FEF7D0FB00215220FEF7CCFB71
:101FE00040F23F115320FEF7C7FB4FF41C51602015
:101FF000FEF7C2FB01216120FEF7BEFB00216A2033
:10200000FEF7BAFB11219020FEF7B6FB4FF4C0613A
:102010009220FEF7B1FB01E02200002040F20241D5
:102020009320FEF7A9FB02219420FEF7A5FB1420C4
:10203000FEF745FA01210720FEF79EFB1420FEF76C
:102040003EFA61210720FEF797FB40F2731107204B
:10205000FEF792FB00212020FEF78EFB00212120BD
:10206000FEF78AFB22210020FEF786FB14E3FE48E0
:1020700000884CF2055188427ED100210846FEF7C7
:102080007BFB00210846FEF777FB1420FEF717FACA
:1020900000210846FEF770FB00210846FEF76CFBA6
:1020A00000210846FEF768FB00210846FEF764FBA6
:1020B0000121A420FEF760FB1420FEF700FA4FF484
:1020C0001C516020FEF758FB40F606010820FEF781
:1020D00053FB40F203713020FEF74EFB012131200B
:1020E000FEF74AFB04213220FEF746FB4FF48171D4
:1020F0003320FEF741FB4FF440713420FEF73CFBE8
:1021000040F203113520FEF737FB1F213620FEF782
:1021100033FB40F203713720FEF72EFB01213820FC
:10212000FEF72AFB04213920FEF726FB152190201B
:10213000FEF722FB4FF482611020FEF71DFB40F2F8
:1021400047211120FEF718FB4FF4DE711220FEF735
:1021500013FB4FF460611320FEF70EFB7820FEF7AF
:10216000AEF94FF480710120FEF706FB4FF40071C9
:102170000220FEF701FB00E050E041F230010320B5
:10218000FEF7FAFA08210A20FEF7F6FA00210C20E1
:10219000FEF7F2FA20210E20FEF7EEFA00210F20C2
:1021A000FEF7EAFA00212020FEF7E6FA00212120BE
:1021B000FEF7E2FA3D212A20FEF7DEFA1420FEF7B0
:1021C0007EF92D212920FEF7D7FA00215020FEF7B5
:1021D000D3FA4DF2EF015120FEF7CEFA0021522042
:1021E000FEF7CAFA40F23F115320FEF7C5FA00216C
:1021F0006120FEF7C1FA00216A20FEF7BDFA4FF414
:1022000040719220FEF7B8FA05219320FEF7B4FA48
:102210004FF480710720FEF7AFFA3DE29248008844
:1022200048F6891188427DD101210020FEF7A4FAE9
:102230004AF6A4010320FEF79FFA00210C20FEF7C6
:102240009BFA40F60C010D20FEF796FA4FF42C5144
:102250000E20FEF791FAB0211E20FEF78DFA42F60D
:102260003F310120FEF788FA4FF4C0610220FEF7EB
:1022700083FA00211020FEF77FFA46F27001112048
:10228000FEF77AFA00210520FEF776FA00210620F3
:10229000FEF772FA4EF61C711620FEF76DFA032156
:1022A0001720FEF769FA40F233210720FEF764FA9F
:1022B00000210B20FEF760FA00210F20FEF75CFAE8
:1022C00000214120FEF758FA00214220FEF754FA7F
:1022D00000214820FEF750FA40F23F114920FEF756
:1022E0004BFA00214A20FEF747FA00214B20FEF767
:1022F00043FA4FF46F414420FEF73EFA0021452097
:10230000FEF73AFA40F23F114620FEF735FA40F266
:1023100007713020FEF730FA4FF401713120FEF7DB
:102320002BFA00E03DE04FF401713220FEF724FA71
:1023300040F202513320FEF71FFA40F207513420D9
:10234000FEF71AFA4FF401713520FEF715FA4FF433
:1023500001713620FEF710FA40F202513720FEF7E5
:102360000BFA40F202313A20FEF706FA40F202314F
:102370003B20FEF701FA00212320FEF7FDF90021A2
:102380002420FEF7F9F94FF400412520FEF7F4F977
:1023900000214F20FEF7F0F900214E20FEF7ECF966
:1023A0007AE13148008844F2315188427DD10121DF
:1023B0000020FEF7E1F90A20FEF781F841F22861DA
:1023C0001020FEF7D9F90E211220FEF7D5F940F6BC
:1023D00039211320FEF7D0F90A20FEF770F84021CA
:1023E0001120FEF7C9F950211520FEF7C5F90A2082
:1023F000FEF765F81E211220FEF7BEF90A20FEF74F
:102400005EF84FF4B1511020FEF7B6F942F63921CB
:102410001320FEF7B1F90A20FEF751F84FF480714E
:102420000120FEF7A9F94FF440710220FEF7A4F94C
:1024300041F230010320FEF79FF940F2022108200B
:10244000FEF79AF908210A20FEF796F900213020BC
:10245000FEF792F940F202413120FEF78DF94FF478
:102460008371322002E0000022000020FEF784F990
:1024700040F203513320FEF77FF94FF4827134208C
:10248000FEF77AF940F201313520FEF775F940F296
:1024900007713620FEF770F940F205313720FEF75C
:1024A0006BF94FF40271382000E040E0FEF764F968
:1024B00040F60B713920FEF75FF902214120FEF74B
:1024C0005BF94FF41C516020FEF756F901216120A1
:1024D000FEF752F94FF404719020FEF74DF94FF4D6
:1024E00085719220FEF748F904219320FEF744F904
:1024F0004FF48071A020FEF73FF901210720FEF77D
:102500003BF921210720FEF737F923210720FEF7A9
:1025100033F933210720FEF72FF940F2331107205A
:10252000FEF72AF90021A020FEF726F9B4E0FA48C8
:10253000008844F235518842F8D130211520FEF749
:102540001BF910219A20FEF717F920211120FEF720
:1025500013F943F228411020FEF70EF90221122050
:10256000FEF70AF941F238011320FEF705F9282099
:10257000FDF7A5FF12210846FEF7FEF82820FDF71B
:102580009EFF43F220411020FEF7F6F843F2380197
:102590001320FEF7F1F84620FDF791FF00213020CF
:1025A000FEF7EAF840F202413120FEF7E5F840F28A
:1025B00007313220FEF7E0F84FF441713320FEF787
:1025C000DBF804213420FEF7D7F840F20141352032
:1025D000FEF7D2F840F207713620FEF7CDF840F250
:1025E00005313720FEF7C8F84FF4C2613820FEF7F6
:1025F000C3F84FF4C2613920FEF7BEF84FF4807182
:102600000120FEF7B9F84FF440710220FEF7B4F84C
:1026100041F230010320FEF7AFF840F60801082030
:10262000FEF7AAF808210A20FEF7A6F84FF41C517D
:102630006020FEF7A1F801216120FEF79DF84FF41C
:102640009F719020FEF798F84FF480719220FEF76A
:1026500093F84FF480719320FEF78EF84FF44051B9
:10266000A020FEF789F81021A320FEF785F80121AC
:102670000720FEF781F821210720FEF77DF82321AE
:102680000720FEF779F833210720FEF775F840F2AE
:1026900033110720FEF770F80020FEF765F90120DE
:1026A0009E4908604FF6FF70FEF7D0FA08BD2DE98D
:1026B000F05F05460E4617469846DDF828A04FF015
:1026C000000B0020FEF750F9781B401C1FFA80FB1E
:1026D00034461EE02146284601F022FAFEF768F84B
:1026E0004FF0000911E04FF480708D4908614000FF
:1026F00048618C48C0F800A0801448610861C0108F
:10270000086109F101001FFA80F9D945EBDB601C73
:1027100084B24445DEDD0020FEF726F9BDE8F09FD7
:102720002DE9FF4F85B081468A4600200490039032
:102730000798A0EB09050898A0EB0A06CDF80890C9
:10274000CDF804A0002D01DD012705E00DB900271B
:1027500002E04FF0FF376D42002E02DD4FF001081E
:1027600006E016B94FF0000802E04FF0FF3876425D
:10277000B54201DD2C4600E034464FF0000B21E06D
:10278000019A91B2029A90B2FEF746FA0498284450
:1027900004900398304403900498A04205DD049807
:1027A000001B04900298384402900398A04205DD73
:1027B0000398001B03900198404401900BF1010025
:1027C0001FFA80FB601C8345DADD09B0BDE8F08F9D
:1027D0002DE9F04104460D4616461F462B4632466B
:1027E00029462046FFF79CFF3B46224629462046C5
:1027F000FFF796FF3B46324639462046FFF790FFEB
:102800003B46324629463046FFF78AFFBDE8F08155
:102810002DE9F04706460F46904600244546032022
:10282000A0EB480948E03A1B91B2721B90B2FEF748
:10283000F3F93A1B91B2721990B2FEF7EDF97A19D9
:1028400091B2321B90B2FEF7E7F93A1B91B2721BBC
:1028500090B2FEF7E1F97A1B91B2321B90B2FEF70B
:10286000DBF93A1991B2721990B2FEF7D5F97A1BD9
:1028700091B2321990B2FEF7CFF97A1991B23219AA
:1028800090B2FEF7C9F93A1991B2721B90B2FEF7F5
:10289000C3F9641CB9F1000F03DAA000801D814464
:1028A00004E0601B80000A3081446D1E7A1991B2E9
:1028B000321990B2FEF7B0F9AC42B4DDBDE8F08752
:1028C0002DE9F84F0746894616461D46BB46164871
:1028D00000880090E82F02DCB9F59C7F01DDBDE89F
:1028E000F88FA6F12000C6B20A98002848D100242B
:1028F00043E00C2D07D106EB46000C4901EB8000AC
:1029000010F804A004E00A4800EB061010F804A038
:102910004FF0000825E0000022000020A80122421C
:10292000001001400C1801401E000020EC3B000884
:10293000604000080AF0010018B17F490098088043
:1029400003E07E4800887C49088049463846FEF707
:1029500063F94FEA6A0A781C87B208F1010000F0B7
:10296000FF0805EBD571B8EB610FE3DB5F4609F1BA
:1029700001001FFA80F9601CC4B2AC42B9DB2DE043
:10298000002429E00C2D07D106EB46006C4901EB31
:10299000800010F804A004E06A4800EB061010F86C
:1029A00004A04FF0000810E00AF0010038B109EB74
:1029B000040291B207EB080290B2FEF72DF94FEA3C
:1029C0006A0A08F1010000F0FF0805EBD571B8EBC9
:1029D000610FE9DB601CC4B2AC42D3DB56490098FE
:1029E000088000BF7BE710B50246012000E050439D
:1029F0000B00A1F10104E1B2F9D110BD2DE9FF4FA7
:102A000081B0074691461E460E9D4FF0000A0024F5
:102A100039E0301B401EC1B20A20FFF7E4FFB9FBCA
:102A2000F0F00A21B0FBF1F201FB1208BAF1000F3D
:102A300016D1701EA04213DDB8F1000F0ED1002098
:102A4000AB4605EBDB71491001FB0471009088B2C5
:102A50002B4620220299FFF733FF12E04FF0010AC4
:102A60000020AB4605EBDB71491001FB04710090BF
:102A700088B208F13001CAB22B460299FFF720FF55
:102A800000BF601CC4B2B442C3DB05B0BDE8F08F28
:102A90002DE9FF4F81B0074690461D46DDE90E6ADD
:102AA00000241EE0281B401EC1B20A20FFF79BFF36
:102AB000B8FBF0F00A21B0FBF1F201FB1209B346BA
:102AC00006EBDB71491001FB047188B209F130019A
:102AD000CAB23346CDF800A00299FFF7F1FE601CA0
:102AE000C4B2AC42DEDB05B0BDE8F08FF8B50546F8
:102AF0000E4614461BE0E82D03DD002506F110000C
:102B000086B2B6F59C7F06DD0020054606464FF6E8
:102B1000FF70FEF79BF800200090227810233146CA
:102B20002846FFF7CDFE05F1080085B2641C207829
:102B30000028E0D1F8BD00001E0000202000002089
:102B4000EC3B0008604000080948804709480047FE
:102B5000FEE7FEE7FEE7FEE7FEE7FEE7FEE7FEE74D
:102B6000FEE7FEE704480549054A064B70470000AA
:102B7000D1020008ED00000860010020600700207D
:102B8000600300206003002031490143314A116095
:102B9000704770B5002100230F22C47804B32D4C78
:102BA000246804F4E064C4F5E064210AC1F104037C
:102BB000CA40447804FA03F184781440214309019F
:102BC000254C0678A155047804F01F050124AC407B
:102BD00005786D11AD0005F1E025C5F8004109E06B
:102BE000047804F01F050124AC401C4D06787611D2
:102BF00045F8264070BD1A4A0A400243154B1B1F78
:102C00001A60704739B1134A121D12680243114B02
:102C10001B1D1A6006E00F4A121D126882430D4BFD
:102C20001B1D1A607047042808D14FF0E021096984
:102C300041F004014FF0E022116107E04FF0E02184
:102C4000096921F004014FF0E02211617047000092
:102C50000000FA050CED00E000E400E080E100E097
:102C600080FFFF1F10B50446CC48844208D10121E3
:102C7000042000F0E9FB0021042000F0E5FB46E021
:102C8000C748844208D10121082000F0DDFB002163
:102C9000082000F0D9FB3AE0C248844208D1012163
:102CA000102000F0D1FB0021102000F0CDFB2EE021
:102CB000BD48844208D10121202000F0C5FB00213D
:102CC000202000F0C1FB22E0B848844208D1012155
:102CD000402000F0B9FB0021402000F0B5FB16E0D9
:102CE000B348844208D10121802000F0ADFB0021CF
:102CF000802000F0A9FB0AE0AE48844207D1012100
:102D0000801500F0A1FB0021A01500F09DFB10BD77
:102D100010B50121084600F097FB0021012000F0CA
:102D200093FB10BD2DE9F04102460025002600204E
:102D300000230024002791F803C00CF00F0591F840
:102D400003C00CF0100CBCF1000F03D091F802C0CE
:102D50004CEA050591F800C0BCF1000F31D01468B1
:102D600000202BE04FF0010C0CFA00F3B1F800C08A
:102D70000CEA03069E4220D183004FF00F0C0CFAA0
:102D800003F7BC4305FA03FC4CEA040491F803C0C2
:102D9000BCF1280F06D14FF0010C0CFA00FCC2F870
:102DA00014C00AE091F803C0BCF1480F05D14FF000
:102DB000010C0CFA00FCC2F810C0401C0828D1D34A
:102DC0001460B1F800C0BCF1FF0F34DD546800207E
:102DD0002EE000F1080C4FF0010808FA0CF3B1F8EE
:102DE00000C00CEA03069E4221D183004FF00F0C75
:102DF0000CFA03F7BC4305FA03FC4CEA040491F80F
:102E000003C0BCF1280F05D100F1080C08FA0CF83A
:102E1000C2F8148091F803C0BCF1480F07D100F14B
:102E2000080C4FF0010808FA0CF8C2F81080401C9A
:102E30000828CED35460BDE8F0814FF6FF710180C1
:102E4000022181700421C1707047024600209368FE
:102E50000B400BB1012000E000207047014688685C
:102E600080B2704702460020D3680B400BB10120AE
:102E700000E0002070470146C86880B270470161D9
:102E80007047416170470AB1016100E041617047DC
:102E9000C16070474FF480320A4382618161826170
:102EA00082698269704702460020434B18684FF6DA
:102EB0008073184040EA021008433F4B1860704787
:102EC0003E49C8617047F0B50A460023002400213E
:102ED000002500F00046B6F1004F02D1364EF169F0
:102EE00001E0354E7168C0F3034583B200F440162B
:102EF000B6F5401F08D121F070612F4E766826F09C
:102F000070662D4F7E6012E000F48016B6F5801FCB
:102F100006D1032606FA05F4A14341F0706106E0EC
:102F2000460D360103FA06F6B14341F0706122B155
:102F3000460D360103FA06F6314300F00046B6F1BD
:102F4000004F02D11C4EF16101E01B4E7160F0BDDB
:102F500030B500228B071C0F0F2303FA04F2164B27
:102F600008338C1053F824309343134C08348D10DD
:102F700044F8253023468C1053F824308C07240F56
:102F800000FA04F423430C4C08348D1044F8253027
:102F900030BD0A49DC31086070470000000801407C
:102FA000000C0140001001400014014000180140D5
:102FB000001C0140002001400000014000002042B0
:102FC000FB48006840F00100F94908600846406885
:102FD000F8490840F649486008460068F649084044
:102FE000F34908600846006820F48020086008461D
:102FF000406820F4FE0048600846006820F0A050B9
:1030000008604FF47F0088600020C8627047E8497C
:10301000096821F48031E64A11601146096821F4FB
:1030200080211160B0F5803F03D0B0F5802F0ED124
:1030300006E0DF49096841F48031DD4A116007E0AC
:10304000DB49096841F4A021D94A116000E000BFC2
:1030500000BF704710B501460022002300204A112E
:10306000012A02D1D24C236806E0022A02D1D04CB8
:10307000236A01E0CE4C636A01F01F0201249440F0
:103080001C400CB1012000E0002010BD38B500202C
:1030900000900024002500BF3120FFF7DBFF05462C
:1030A0000098401C00900098B0F5A06F01D0002D52
:1030B000F2D03120FFF7CEFF08B1012400E0002458
:1030C000204638BD01460020B94A106820F0F800BB
:1030D00040EAC10010607047B84908607047024676
:1030E0000020B34B586820F4741042EA01031843DF
:1030F000AF4B58607047B1490866704702460020E0
:10310000AB4BD86AAE4B184042EA01031843A84BB8
:10311000D862704701460020A54AD06A20F0F0002E
:103120000843D062704701460020A14AD06A20F4CB
:1031300070600843D0627047A049886670470146B6
:1031400000209B4AD06A20F470400843D062704748
:103150009A490867704701460020954A506820F058
:1031600003000843506070479148406800F00C002D
:103170007047014600208E4A506820F0F000084356
:103180005060704701460020894A506820F4E06092
:1031900008435060704701460020854A506820F47B
:1031A000605040EAC1005060704729B1804A527AAD
:1031B00002437F4B5A7204E07D4A527A82437C4B31
:1031C0005A7270477D49D831086070470146002027
:1031D000774A506820F4404008435060704779496E
:1031E000086070477749091D086070470021704AE0
:1031F000203211706E4A82F82010012802D0042873
:103200000AD104E001216A4A2032117005E005214B
:10321000674A2032117000E000BF00BF70476A4962
:10322000086070476249096A0143614A1162704748
:1032300065494439086070472DE9F04100210022BA
:10324000002500230026002400278C46DFF860813B
:10325000D8F8048008F00C0121B1042907D008290E
:1032600059D109E0DFF86481C0F8008058E0DFF848
:103270006081C0F8008053E0DFF83481D8F8048022
:1032800008F47012DFF82881D8F8048008F480353B
:10329000920C0D2A01D0921C00E0062235B9DFF80D
:1032A000348102FB08F8C0F8008033E0DFF80081C9
:1032B000D8F82C8008F48036DFF8F480D8F82C8019
:1032C00008F00F0808F1010446B9DFF80481B8FBE3
:1032D000F4F808FB02F8C0F800801BE0DFF8D080AB
:1032E000D8F82C80C8F3031808F10107DFF8C08074
:1032F000D8F82C80C8F3032808F1020CDFF8D0803E
:10330000B8FBF7F808FB0CF8B8FBF4F808FB02F878
:10331000C0F8008004E0DFF8B480C0F8008000BF8F
:1033200000BFDFF88C80D8F8048008F0F0010909AC
:10333000DFF8A48018F80130D0F8008028FA03F8EC
:10334000C0F80480DFF86880D8F8048008F4E061F1
:10335000090ADFF8848018F80130D0F8048028FAD0
:1033600003F8C0F80880DFF84880D8F8048008F433
:103370006051C90ADFF8608018F80130D0F8048085
:1033800028FA03F8C0F80C80DFF82480D8F804800D
:1033900008F44041890BDFF8448018F80130D0F878
:1033A0000C80B8FBF3F8C0F81080BDE8F081000095
:1033B000001002400000FFF0FFFFF6FE0000424256
:1033C000F0FFFEFFC40542428004424200127A0030
:1033D00040787D0100093D002400002034000020D9
:1033E00029B1354A52690243334B5A6104E0324AEB
:1033F00052698243304B5A61704729B12E4A926913
:1034000002432D4B9A6104E02B4A926982432A4B76
:103410009A61704729B1284AD2690243264BDA6182
:1034200004E0254AD2698243234BDA61704729B10F
:10343000214A926A0243204B9A6204E01E4A926A31
:1034400082431D4B9A62704729B11B4AD2680243DE
:10345000194BDA6004E0184AD2688243164BDA60EE
:10346000704729B1144A12690243134B1A6104E0F0
:10347000114A12698243104B1A6170470F49086064
:1034800070470F49C86470470B49C87170470A48B4
:10349000406A40F080700849486270470146002049
:1034A000054A92680A400AB1012000E000207047F6
:1034B00001498872704700000010024040044242F7
:1034C0000000424210B50446FB48844209D1012164
:1034D0008803FFF7B9FF00214FF48040FFF7B4FFE6
:1034E00032E0F648844209D101214804FFF7B9FFD0
:1034F00000214FF40030FFF7B4FF25E0F04884428C
:1035000009D101218804FFF7ACFF00214FF480208E
:10351000FFF7A7FF18E0EB48844209D10121C80456
:10352000FFF79FFF00214FF40020FFF79AFF0BE009
:10353000E548844208D101210805FFF792FF0021E8
:103540004FF48010FFF78DFF10BD2DE9F04786B0D6
:1035500005460E460024A24600BFA1460027B089BA
:1035600000B100BF2F462C8A4CF6FF700440F08853
:1035700004432C82AC894EF6F3100440B0883189A4
:103580000843718908430443AC81AC8A4FF6FF407D
:103590000440B0890443AC8201A8FFF74DFEC64841
:1035A000874202D1DDF810A001E0DDF80CA0A88967
:1035B00000F4004040B10AEBCA0000EB0A10316889
:1035C0004900B0FBF1F807E00AEBCA0000EB0A1073
:1035D00031688900B0FBF1F86420B8FBF0F0040119
:1035E0002009642101FB1089A88900F4004040B142
:1035F000322000EBC900B0FBF1F000F007000443FB
:1036000008E0322000EB09106421B0FBF1F000F07B
:103610000F0004432C8106B0BDE8F0874FF416512B
:10362000016000218180C18001810C214181002144
:103630008181704710B502460020108A4FF2FF03C7
:1036400018400B884C8823438C882343CC88234321
:103650001843108210BD0021018041808180C1800B
:10366000704721B1828942F40052828104E082894C
:103670004DF6FF731A4082817047F0B5034600246F
:1036800000260025002040F66A17B94200D100BF8D
:103690001846C1F3421401F01F06012707FA06F588
:1036A000012C01D10C3004E0022C01D1103000E0DB
:1036B00014301AB107682F43076002E00768AF4370
:1036C0000760F0BD1AB1838A0B43838202E0838ACC
:1036D0008B4383827047028A4FF6F0731A4002824E
:1036E000028A0A430282704782894FF2FF731A40AE
:1036F000828182890A438281704721B1828942F0A6
:103700000202828104E082894FF6FD731A408281B1
:103710007047028A4FF6DF731A400282028A0A4318
:103720000282704721B1028A42F48042028204E0A0
:10373000028A4BF6FF731A4002827047C1F30802F7
:103740008280704701468888C0F3080070478189ED
:1037500041F0010181817047028BD2B20283028B5A
:1037600042EA012202837047028B02F47F42028305
:10377000028B0A430283704721B1828A42F0200201
:10378000828204E0828A4FF6DF731A408282704799
:1037900021B1828A42F01002828204E0828A4FF6CE
:1037A000EF731A408282704721B1828A42F0080288
:1037B000828204E0828A4FF6F7731A408282704751
:1037C00021B1828942F40042828103E08289C2F3FE
:1037D0000E028281704721B1828A42F400628282A5
:1037E00004E0828A4FF2FF731A4082827047828A15
:1037F0004FF6FB731A408282828A0A4382827047A4
:1038000021B1828A42F00202828204E0828A4FF66B
:10381000FD731A408282704702460020B1F5007F96
:1038200000D100BF13880B400BB1012000E0002045
:10383000704701F40072B2F5007F00D100BFCA43A7
:103840000280704770B50246002400230025002046
:1038500040F66A16B14200D100BFC1F3421501F033
:103860001F03012606FA03F3012D02D19689334086
:1038700006E0022D02D1168A334001E0968A3340D9
:103880000C12012606FA04F41688344013B10CB168
:10389000012000E0002070BD10B50022002340F69A
:1038A0006A14A14200D100BF0A1201249440A3B2BD
:1038B000DC43048010BD000000380140004400409B
:1038C00000480040004C004000500040704700009D
:1038D0000FB4044910B503AA029800F0C3F810BC55
:1038E0005DF814FB180000202DE9F0410E46044657
:1038F000002020622046E168884730B3252805D0A3
:10390000D4E901219047206A401CF2E7E168204693
:1039100000278847050018D0A5F14100192802D8D2
:1039200020354FF400673246294620462760FCF7D1
:1039300017FC40B1012804D0F61D26F00706083612
:10394000D8E7361DD6E72846DAE7206ABDE8F081D9
:1039500070B504460D4621461068AFF300802188FB
:10396000090502D50F4A7A4402E00E4A7A440E3223
:10397000002104F1240305E000F00F060009965D24
:103980005E54491C0028F7D120780023000704D595
:10399000702D02D009B1022311322046BDE87040DB
:1039A00000F006B8E60C000070477047704770479B
:1039B0002DE9F0470D4699469246044600F1240849
:1039C0000168880604D5E06921F01001216000E05B
:1039D0000120A84201DD471B00E00027A1697A19F8
:1039E00002EB0900081AA0612078C00602D4204624
:1039F000AFF30080002608E0D4E901211AF80600A0
:103A00009047206A401C761C20624E45F4DB2078EB
:103A1000C0060AD52046AFF3008006E0D4E90121B4
:103A200030209047206A401C2062381EA7F1010711
:103A3000F4DC07E0D4E9012118F805009047206A7A
:103A4000401C2062281EA5F10105F3DC2046AFF3DF
:103A500000802078000602D50220BDE8F087012012
:103A6000FBE70000074B70B50D467B4400F011F8F2
:103A70000446284600F020F810B14FF0FF3070BD2A
:103A8000204670BDB1CAFFFF01694A1C0261087877
:103A9000704700B58FB0CDE901310021059105498E
:103AA0007944CDE9031011466846FFF71DFF0FB0BA
:103AB00000BD0000E5FFFFFF007B00F080007047C5
:103AC000754600F029F8AE4605006946534620F0D9
:103AD0000700854618B020B5FFF744F8BDE8204040
:103AE0004FF000064FF000074FF000084FF0000BBA
:103AF00021F00701AC46ACE8C009ACE8C009ACE86D
:103B0000C009ACE8C0098D4670470446AFF3008099
:103B10002046FCF737FB00000048704700010020FA
:103B200030B504460D462E48008848F68911884273
:103B300008D121464E20FCF71FFE29464F20FCF7F6
:103B40001BFE4CE02648008849F2413188423ED1B4
:103B50002A20FCF7D1FD4FF4807022490861400013
:103B6000486120122049086088141E494861086194
:103B7000C01008614010086140004861E0B21A4975
:103B800008608814174948610861C01008612B203B
:103B9000FCF7B2FD4FF480701249086140004861A3
:103BA00028121149086088140E4948610861C01044
:103BB00008614010086140004861E8B20A490860A5
:103BC0008814084948610861C010086107E021466F
:103BD0002020FCF7D1FD29462120FCF7CDFD30BD8A
:103BE00022000020001001400C18014000000000DD
:103BF00000000000000000000000040404040404AD
:103C00000004000000140A0A000000000000000088
:103C1000000014143F140A3F0A0A000000041E1595
:103C200005060C14150F0400000012150D0A142CC3
:103C30002A1200000000040A0A1E151509360000A9
:103C40000002020100000000000000000020100837
:103C500008080808081020000002040808080808DE
:103C60000804020000000004150E0E1504000000F8
:103C700000000404041F040404000000000000000D
:103C8000000000000002020100000000001F000010
:103C90000000000000000000000000000002000022
:103CA00000100808080404020202010000000E11BE
:103CB00011111111110E0000000004060404040487
:103CC000040E000000000E1111080402011F000084
:103CD00000000E11100C1010110E00000000080C56
:103CE0000A0A091E0818000000001F01010F101029
:103CF000110E000000000E09010F1111110E00003D
:103D000000001F09080404040404000000000E1150
:103D1000110E1111110E000000000E1111111E10D4
:103D2000120E00000000000004000000000400006B
:103D3000000000000004000000040400002010083F
:103D40000402040810200000000000001F00001FF3
:103D50000000000000020408102010080402000007
:103D600000000E11110804040004000000000E11F0
:103D70001915151D011E0000000004040C0A0A1E7E
:103D80001233000000000F12120E1212120F000068
:103D900000001E1101010101110E000000000F12B0
:103DA00012121212120F000000001F120A0E0A0255
:103DB000121F000000001F120A0E0A020207000074
:103DC00000001C1201013911120C00000000331216
:103DD000121E12121233000000001F040404040417
:103DE000041F000000003E08080808080809070032
:103DF000000037120A060A0A123700000000070204
:103E000002020202223F000000001B1B1B1B1515B3
:103E10001515000000003B1216161A1A12170000A2
:103E200000000E1111111111110E000000000F12EF
:103E3000120E02020207000000000E1111111117EC
:103E4000190E180000000F12120E0A12123700008D
:103E500000001E1101060810110F000000001F15C0
:103E600004040404040E00000000331212121212A3
:103E7000120C000000003312120A0A0C04040000A5
:103E800000001515150E0A0A0A0A000000001B0A98
:103E90000A04040A0A1B000000001B0A0A040404A6
:103EA000040E000000001F0908040402121F000095
:103EB000001C04040404040404041C0000020202A4
:103EC0000404080808100000000E08080808080884
:103ED00008080E0000040A000000000000000000B6
:103EE00000000000000000000000003F000400008F
:103EF000000000000000000000000000000C121C88
:103F0000123C000000000302020E1212120E00000A
:103F100000000000001C1202021C0000000018102B
:103F2000101C1212123C000000000000000C121EB7
:103F3000021C000000003804041E0404041E0000DB
:103F400000000000003C120C021E221C00000302B4
:103F5000020E1212123700000000040000060404D2
:103F6000040E000000000800000C080808080807FC
:103F700000000302023A0A0E123700000000070494
:103F800004040404041F000000000000000F1515C5
:103F90001515000000000000000F1212123700007B
:103FA00000000000000C1212120C000000000000C3
:103FB000000F1212120E020700000000001C121265
:103FC000121C103800000000001B0602020700004F
:103FD00000000000001E020C101E00000000000483
:103FE000040E04040418000000000000001B12125C
:103FF000123C0000000000000037120A0C04000010
:10400000000000000015150E0A0A00000000000064
:10401000001B0A040A1B0000000000000037120AFF
:104020000C04040300000000001E0804041E00002D
:1040300000180808080408080808180008080808F4
:10404000080808080808080800060404040804040E
:104050000404060002251800000000000000000013
:104060000000000000000000000000000000000050
:1040700000000008080808080808000018180000D8
:1040800000486C2412000000000000000000000046
:104090000000002424247F1212127F12121200004A
:1040A0000000081C2A2A0A0C1828282A2A1C08089A
:1040B00000000022251515152A58545454220000DA
:1040C0000000000C1212120A76252911916E0000D0
:1040D00000060604030000000000000000000000CD
:1040E00000402010100808080808081010204000A0
:1040F0000002040808101010101010080804020034
:104100000000000008086B1C1C6B08080000000081
:1041100000000000080808087F08080808000000E0
:10412000000000000000000000000000060604037C
:104130000000000000000000FE0000000000000081
:104140000000000000000000000000000606000063
:1041500000008040402020101008080404020200E3
:104160000000001824424242424242422418000009
:10417000000000080E08080808080808083E0000AB
:104180000000003C4242422020100804427E000011
:104190000000003C4242201820404042221C000007
:1041A000000000203028242422227E2020780000D5
:1041B0000000007E0202021A26404042221C00003B
:1041C000000000382402021A26424242241800004D
:1041D0000000007E222210100808080808080000CD
:1041E0000000003C4242422418244242423C00006B
:1041F000000000182442424264584040241C000041
:10420000000000000000181800000000181800004E
:104210000000000000000008000000000008080482
:104220000000004020100804020408102040000094
:104230000000000000007F0000007F000000000080
:1042400000000002040810204020100804020000B2
:104250000000003C424246402010100018180000A8
:104260000000001C225A555555552D42221C0000B5
:104270000000000808181414243C224242E7000001
:104280000000001F2222221E22424242221F000062
:104290000000007C4242010101010142221C000099
:1042A0000000001F2242424242424242221F0000BE
:1042B0000000003F4212121E12120242423F000052
:1042C0000000003F4212121E1212020202070000FA
:1042D0000000003C2222010101712122221C000069
:1042E000000000E7424242427E42424242E7000072
:1042F0000000003E0808080808080808083E0000FA
:104300000000007C10101010101010101010110F71
:104310000000007722120A0E0A12122222770000F1
:10432000000000070202020202020202427F0000B5
:1043300000000077363636362A2A2A2A2A6B0000F1
:10434000000000E346464A4A525252626247000069
:104350000000001C2241414141414141221C00001A
:104360000000003F424242423E02020202070000B9
:104370000000001C2241414141414D53321C60006C
:104380000000003F4242423E1212222242C7000079
:104390000000007C4242020418204042423E0000DD
:1043A0000000007F4908080808080808081C0000E9
:1043B000000000E74242424242424242423C000088
:1043C000000000E7424222242414141808080000C8
:1043D0000000006B49494949555536222222000008
:1043E000000000E7422424181818242442E70000A3
:1043F000000000772222141408080808081C000096
:104400000000007E2120101008040442423F0000FA
:10441000007808080808080808080808080878004C
:104420000000020204040808081010202020404068
:10443000001E1010101010101010101010101E0080
:1044400000384400000000000000000000000000F0
:10445000000000000000000000000000000000FF5D
:10446000000608000000000000000000000000003E
:10447000000000000000003C4278444242FC000082
:10448000000000030202021A26424242261A0000DD
:10449000000000000000003844020202443800001E
:1044A00000000060404040784442424264D800002E
:1044B000000000000000003C427E0202423C00007E
:1044C000000000F08808087E08080808083E000080
:1044D000000000000000007C22221C023C42423C02
:1044E000000000030202023A4642424242E7000054
:1044F0000000000C0C00000E08080808083E000030
:104500000000003030000038202020202020221E13
:104510000000000302020272120A16122277000043
:104520000000000E0808080808080808083E0000F7
:10453000000000000000007F9292929292B700006B
:10454000000000000000003B4642424242E70000FB
:10455000000000000000003C42424242423C000099
:10456000000000000000001B26424242221E0207FB
:10457000000000000000007844424242447840E0DD
:1045800000000000000000774C040404041F000039
:10459000000000000000007C42023C40423E00005F
:1045A000000000000008083E080808080830000065
:1045B00000000000000000634242424262DC000052
:1045C00000000000000000E7422424140808000056
:1045D00000000000000000EB494955552222000070
:1045E000000000000000007624181818246E000057
:1045F00000000000000000E7422424141808080707
:10460000000000000000007E22100808447E000028
:1046100000C0202020202010202020202020C000AA
:10462000101010101010101010101010101010108A
:104630000006080808080810080808080808060006
:104640000C32C2000000000000000000000000006A
:1046500030313233343536373839414243444546B8
:1046600040305800303132333435363738396162B2
:1046700063646566403078009846000800000020BA
:104680003800000028010008D0460008380000204B
:10469000280700004401000800A24A0400000000AE
:1046A00000000000010203040607080900000000E2
:1046B0000000000000000000FFFF000000000000FC
:1046C00001020304010203040607080902040608A4
:04000005080000ED02
:00000001FF
