:020000040800F2
:10000000F8A70020E18B00087104000873040008C1
:10001000770400087B0400087F040008000000004B
:100020000000000000000000000000008304000841
:100030008504000800000000870400088904000807
:10004000FB8B0008FB8B0008FB8B0008FB8B000878
:10005000FB8B0008FB8B0008FB8B0008FB8B000868
:10006000FB8B0008FB8B0008FB8B0008FB8B000858
:10007000FB8B0008FB8B0008FB8B0008FB8B000848
:10008000FB8B0008FB8B0008FB8B0008FB8B000838
:10009000FB8B0008FB8B0008FB8B0008FB8B000828
:1000A000FB8B0008FB8B0008FB8B0008FB8B000818
:1000B000E7B10008FB8B00089B8B0008FB8B000856
:1000C000FB8B0008FB8B0008FB8B0008FB8B0008F8
:1000D000FB8B0008F307000887890008FB8B0008EA
:1000E000FB8B0008FB8B0008FB8B000800F002F87C
:1000F00000F0B0F80AA090E8000C82448344AAF112
:100100000107DA4501D100F0A5F8AFF2090EBAE80F
:100110000F0013F0010F18BFFB1A43F0010318473B
:100120002C6F01004C6F01000A444FF0000C10F8D6
:10013000013B13F0070408BF10F8014B1D1108BF65
:1001400010F8015B641E05D010F8016B641E01F805
:10015000016BF9D113F0080F1EBF10F8014BAD1C55
:100160000C1B09D16D1E58BF01F801CBFAD505E073
:1001700014F8016B01F8016B6D1EF9D59142D6D3CD
:10018000704700000023002400250026103A28BFF5
:1001900078C1FBD8520728BF30C148BF0B607047F9
:1001A0006E2912F0EC86702912F00485662914F08D
:1001B0005287652914F04F87672914F04C8761290D
:1001C000AFF3008003681B0A28BF41F08001692952
:1001D00012F07284642912F06F84752912F06C8415
:1001E0006F2912F0E787782912F0D084E92912F0FC
:1001F0007F87E42912F07C87F52912F07987EF29AF
:1002000012F0E487F82912F0CF840368DB0928BFD5
:1002100041F08001632912F0EE86732912F0F38613
:10022000E32913F04082F32913F045820020704740
:100230001FB513F09BFA04000020002113F064FFA7
:10024000401C60600020002113F048FFE0601FBDEB
:1002500010B510BD13F05CFA1146FFF7E9FF00F08E
:1002600009F813F039FB03B4FFF7F2FF03BC00F009
:1002700063FA00007CB5002500F0F6F94FF4A060A9
:1002800008F0CEFC4FF4E13000F064FA4FF4E130B6
:1002900008F0F0FB02F0B7FA06F070FB00F0D0FEB9
:1002A00053490868804712F0C8FA0EF059FF5149C7
:1002B0000122086850A10DF0F0F84E49012248686B
:1002C0004EA10DF0EAF8002000F0E3FE0446012CF8
:1002D0000AD14FF6FF7002F059FA45498868804705
:1002E0004FF6FF7002F052FA0FF0FEF905460DB915
:1002F000022C78D14FF6FF7002F048FA4FF47840A4
:100300003F4908803FA010210B46C822CDE90010CC
:1003100032213C2006F0FEFA19E03EA010210B46E7
:10032000C822CDE9001046213C2006F0F3FAC8208F
:1003300000F0D6F94FF6FF7056234FF48272462133
:1003400000903C2006F03CF8C82000F0C9F906F007
:1003500089FC0028E1D133A010210B46C822CDE949
:10036000001046213C2006F0D5FA31A010210B46A2
:10037000C822CDE900105A213C2006F0CBFA102209
:100380006E2114200FF00BF9044618E02DA0102167
:100390000B46C822CDE900106E213C2006F0BAFAC7
:1003A000C82000F09DF94FF6FF707E23DC226E21FD
:1003B0000090142006F004F8C82000F091F9002CF9
:1003C000E4D125A010210B46C822CDE900106E21F2
:1003D0003C2006F09FFA40F2DC5000F081F94FF625
:1003E000FF7002F0D3F911F029F800207CBD000065
:1003F0002C000020F8020020303A0000313A0000C2
:1004000024000020414C49454E54454B2053544D47
:100410003332000053442043617264204661696CAA
:100420006564210053442043617264204F4B0000F7
:10043000466F6E74205570646174696E672E2E2E3F
:1004400000000000466F6E74205570646174652072
:100450004661696C65642100466F6E742055706456
:100460006174652053756363657373210000000038
:10047000704700BFFEE700BFFEE700BFFEE700BF1A
:10048000FEE7704770477047704700000CB50020CA
:10049000019000906B48006840F480306949086022
:1004A00000BF6848006800F4003000900198401CCC
:1004B0000190009818B90198B0F5A06FF1D161488A
:1004C000006810F4003F02D00120009001E00020FD
:1004D00000900098012842D15B48006840F010006D
:1004E000594908600846006820F003000860084683
:1004F000006840F002000860524840685149486076
:100500000846406848600846406840F4806048609B
:100510000846406820F47C1048600846406840F473
:10052000E81048600846006840F08070086000BF2E
:100530004448006810F0007FFAD04248406820F03C
:100540000300404948600846406840F002004860A7
:1005500000BF3C48406800F00C000828F9D10CBDF1
:1005600010B5FFF793FF10BD10B53648006840F096
:100570000100344908600846406834490840314960
:10058000486008460068324908402E49086008461D
:10059000006820F4802008600846406820F4FE00CF
:1005A00048604FF41F008860FFF7DAFF4FF00060EB
:1005B0002849086010BD10B5002100200022214B01
:1005C0005B6803F00C0121B1042906D0082928D169
:1005D00007E0214B214C236027E01F4B1F4C236079
:1005E00023E0184B5B6803F47010164B5B6803F450
:1005F0008032022303EB904022B9194B4343174C3E
:1006000023600DE00F4B5B6813F4003F04D0144BE4
:100610004343124C236003E00F4B43430F4C2360D2
:1006200003E00D4B0D4C236000BF00BF054B5B6822
:10063000C3F303130B4CE15C084B1B68CB40074C26
:10064000236010BD00100240002002400000FFF8AF
:10065000FFFFF6FE08ED00E000127A000000002027
:1006600000093D000400002010B56FF0040008F000
:1006700027FB2D4800682D49B0FBF1F02C4908708C
:100680000846007800EB4001C1EBC0104FF6FF7147
:1006900001EAC0002749088010BD0146244A1278AB
:1006A0004A434FF0E0235A6100229A611A461269C8
:1006B00042F001021A6100BF4FF0E022106910F011
:1006C000010F02D010F4803FF6D04FF0E022126903
:1006D00022F001024FF0E0231A6100229A61704774
:1006E0000146144A12884A434FF0E0235A6100221F
:1006F0009A611A46126942F001021A6100BF4FF076
:10070000E022106910F0010F02D010F4803FF6D003
:100710004FF0E022126922F001024FF0E0231A614B
:1007200000229A61704700000000002000127A0049
:100730001400002016000020014600BF704700BFD3
:100740004A4A128812F0400FFAD0C2B2474B1B1D22
:100750001A80704710B586B00446012144F20400A7
:1007600008F00AFF41480AF003F84FF40070ADF8B2
:10077000140003208DF8160018208DF8170005A925
:100780003B4808F043FC4FF48060ADF814000420AF
:100790008DF8170005A9364808F038FC25208DF89B
:1007A000000003208DF801008DF8020001208DF873
:1007B0000300684608F039FA01940020ADF80800FB
:1007C000ADF80A00ADF80C00ADF810000C20ADF843
:1007D0000E0001A925480AF00EF8012240F2255129
:1007E00022480AF0A0F8012120480AF090F806B04B
:1007F00010BD10B540F225511C480AF079F910B32C
:100800001A480AF0F5F8C4B21A48008810F4004FEC
:100810002BD11848008810F4804F0CD00A2C03D03C
:1008200000201449088020E01248008840F400406D
:100830001049088019E00D2C06D10E48008840F4BC
:1008400080400C49088010E00A480088C0F30D0081
:1008500009490C5407480088401C0649088008468E
:100860000088C72801DD0020088010BD0038014045
:100870000008014018000020C403002010B500F05B
:10088000A5FA10BD70B50446002600F0B9FA254659
:10089000E11704EB11610912A02202EB4101C8B279
:1008A00000F062FB00F0EFFAE11704EB11610912AE
:1008B000A4EB0121C8B200F057FB00F0E4FA00F00D
:1008C0009FFAA12000F050FB00F0DDFA002000F0BC
:1008D0007BFB064600F0B6FA304670BD70B50446A4
:1008E0000E4600F08DFA2546E11704EB116109125E
:1008F000A02202EB4101C8B200F036FB00F0C3FABF
:10090000E11704EB11610912A4EB0121C8B200F058
:100910002BFB00F0B8FA304600F026FB00F0B3FAEB
:1009200000F090FA0A20FFF7DBFE70BD2DE9F041E0
:1009300005460E461746002409E0E20026FA02F2B8
:10094000D1B22A1990B2FFF7C9FF601CC4B2BC42F1
:10095000F3DBBDE8F0812DE9F04107460C460026A7
:10096000002509E036023919491B491E88B2FFF7F4
:1009700089FF0644681CC5B2A542F3DB3046BDE8DA
:10098000F08110B5FF20FFF77DFF0446552C01D103
:10099000002010BD5521FF20FFF7A0FFFF20FFF72B
:1009A00071FF0446552C01D10020F2E70120F0E749
:1009B00070B506460C46154608E03046721C96B2E5
:1009C000FFF760FF04F8010B681E85B2002DF4D11B
:1009D00070BD70B505460C46164606E021782846DF
:1009E000FFF77CFF681C85B2641C3000A6F1010192
:1009F0008EB2F3D170BD000098B1F049096821F4BE
:100A00007F41EE4A11601146096841F40B411160C3
:100A1000EA490C31096841F00C01E84A0C321160D6
:100A200012E0E649096821F47F41E44A1160114669
:100A3000096841F44C511160E0490C31096841F0FA
:100A40000C01DE4A0C321160704710B50024002002
:100A5000DB4908604FF0900006F04CFA002006F0E9
:100A600049FA002006F046FA002006F043FAFF207B
:100A700006F040FA44EA0024FF2006F03BFA044363
:100A80000120D049C1F88801204610BD08B50121D8
:100A9000042008F071FD1C20ADF8000010208DF836
:100AA000030003208DF802006946C44808F0AEFA3E
:100AB0001C21C24808F055FB06F043FA082006F056
:100AC00076FAFFF7C2FFC049088008BD10B50024C0
:100AD0000020BB4908604FF0050006F00BFAFF202C
:100AE00006F008FA04460120B649C1F888012046FC
:100AF00010BD10B504460020B14908604FF0010058
:100B000006F0F8F9204606F0F5F90120AD49C1F8E4
:100B1000880110BD10B50020A94908604FF00600FB
:100B200006F0E8F90120A749C1F8880110BD10B509
:100B30000020A34908604FF0040006F0DBF9012013
:100B4000A049C1F8880110BD2DE9F04106460C46C8
:100B500017460020FFF750FF0020994908604FF02A
:100B6000030006F0C7F9C4F3074006F0C3F9C4F365
:100B7000072006F0BFF9E0B206F0BCF9002505E059
:100B8000FF2006F0B7F97055681C85B2BD42F7DB4F
:100B900001208B490860FFF72FFFBDE8F08110B5F9
:100BA00000BFFFF793FF10F0010FFAD110BD2DE940
:100BB000F04106460C461746FFF7ACFF002080497F
:100BC00008604FF0020006F095F9C4F3074006F004
:100BD00091F9C4F3072006F08DF9E0B206F08AF926
:100BE000002504E0705D06F085F9681C85B2BD4201
:100BF000F8DB012072490860FFF7D1FFBDE8F08102
:100C00002DE9F04107460E461446F0B2C0F5807556
:100C1000AC4200DC254612E02A4631463846FFF752
:100C2000C6FFAC4200D10BE02F442E44601B84B2BF
:100C3000B4F5807F02DD4FF4807500E02546EBE7D8
:100C400000BFBDE8F08110B504462403FFF762FF42
:100C5000FFF7A5FF00205A4908604FF0200006F07A
:100C600049F9C4F3074006F045F9C4F3072006F03C
:100C700041F9E0B206F03EF901205249C1F888017D
:100C8000FFF78DFF10BD2DE9F05F834688461646BD
:100C90004FF4805011F060FE8246BAF1000F01D18E
:100CA000BDE8F09F4FEA1837C8F30B09C9F5805427
:100CB000A64200DC344644E039034FF480525046EB
:100CC000FFF742FF0020FFF797FE002508E009EB41
:100CD00005001AF80000FF2800D003E0681C85B268
:100CE000A542F4DB00BFA54215DA3846FFF7ABFF9B
:100CF000002507E01BF8050005EB09010AF80100D3
:100D0000681C85B2A542F5DB39034FF4805250468A
:100D1000FFF776FF04E0224641465846FFF770FF92
:100D2000A64200D10EE07F1C4FF00009A344A0446E
:100D3000301B86B2B6F5805F02DD4FF4805400E0D0
:100D40003446B9E700BF0120FFF756FE504611F0C8
:100D5000F7FD00BFA4E710B5FFF7DCFEFFF71FFFAC
:100D60000020174908604FF0C70006F0C3F80120C3
:100D70001449C1F88801FFF712FF10BD10B500201B
:100D80000F4908604FF0B90006F0B4F801200D4992
:100D9000C1F888010320FFF780FC10BD10B50020CA
:100DA000074908604FF0AB0006F0A4F801200549A0
:100DB000C1F888010320FFF770FC10BD0008014056
:100DC00088012142000021422000002008B50121B5
:100DD000102008F0D1FB4FF4C050ADF800001020F7
:100DE0008DF8030003208DF8020069468F4808F053
:100DF0000DF901208E4908608E49C1F8AC0108BD8B
:100E000010B58A48406820F4704088494860084618
:100E1000406840F440504860012087490860854997
:100E2000C1F8B0014FF00400FFF737FC0020824901
:100E300008604FF00400FFF730FC00207D49C1F846
:100E4000B00110BD10B57948406820F47040774972
:100E500048600846406840F44050486000207449AB
:100E600008607449C1F8AC014FF00400FFF715FCAD
:100E700001206F4908606F49C1F8AC014FF00400D0
:100E8000FFF70BFC10BD10B500246848406820F443
:100E90007040664948600846406840F40040486039
:100EA000012065490860FFF7F8FB01206149C1F89E
:100EB000B001FFF7F2FB07E0601CC4B2FA2C03DDBF
:100EC000FFF7C0FF012010BD5C4800680028F3D187
:100ED0005749086000BFF6E710B500205449086084
:100EE0005248406820F470405049486008464068C5
:100EF00040F4405048604FF000004E49C1F8AC014A
:100F00004FF00200FFF7C9FB0120494908604FF08C
:100F10000200FFF7C2FB00204649C1F8B00110BD36
:100F200010B50020424908604048406820F47040F5
:100F30003E4948600846406840F4405048604FF0E1
:100F400001003C49C1F8AC014FF00200FFF7A5FBDE
:100F50000120374908604FF00200FFF79EFB002098
:100F60003449C1F8B00110BD70B504462F4840683F
:100F700020F470402D4948600846406840F44050D5
:100F8000486000202A49086005461AE0E0092A491D
:100F900008604FEA44604FEA10644FF00200FFF728
:100FA0007CFB01202349C1F8B0010220FFF775FB4B
:100FB00000201F4908604FF00200FFF76EFB681C1D
:100FC000C5B2082DE2DB70BD70B505460024174898
:100FD000406820F47040154948600846406840F475
:100FE00000404860002616E00020114908604FF0DC
:100FF0000200FFF752FB01200E49C1F8B001600664
:10100000040E0E48006808B1601CC4B20120FFF74E
:1010100044FB701CC6B2082EE6DB15B9FFF780FF53
:1010200001E0FFF759FF204670BD000000100140AD
:10103000B001224200002242AC0122422C01224295
:1010400008B50121142008F097FA0121374808F06B
:10105000ACF84FF40040ADF8000048208DF80300D4
:101060006946334807F0D2FF2020ADF80000482041
:101070008DF8030069462F4807F0C8FF0120ADF83E
:10108000000028208DF803006946294807F0BEFFBC
:1010900008BD10B5044614B1012027490870264840
:1010A000007868B32021234808F041F858B14FF484
:1010B00000411F4808F03BF828B101211C4808F006
:1010C00036F801281CD10A20FFF70AFB00201A4934
:1010D00008702021174808F02AF808B9012010BD2F
:1010E0004FF40041124808F022F808B90220F6E750
:1010F00001210F4808F01BF8012815D10420EEE764
:1011000020210C4808F013F801280DD1C10308482C
:1011100008F00DF8012807D10121054808F007F86B
:1011200010B90120044908700020D8E700023000FF
:101130000008014000100140220000204FF480719F
:10114000FD4A516149005161FC49086080215161AB
:1011500011618900116170474FF48071F64A116185
:1011600049005161F5490860802151611161890090
:101170001161704710B54FF08830F0490C390860A4
:10118000091D08600020ED4908608815EA490861DA
:101190004000486140204861E9488088A0F5094145
:1011A000893902D10220FFF778FAE448001F00686D
:1011B00084B24020E0490861C00008614FF033303C
:1011C000DE490C390860091D08604FF6FF70DB49E5
:1011D0000860204610BD10B504460B462046FFF7B8
:1011E000ADFF4FF48070D449086140004861D34896
:1011F00003608020486108618000086110BD10B55F
:1012000004462046FFF79AFFFFF7B4FF10BD00B574
:10121000CB490889FFF792FF00BD4FF48071C64AA1
:10122000116149005161C549086080215161116116
:1012300089001161704730B5014601F01F04C1F308
:101240004513CA0AE50205EB43151544A8B230BDA3
:1012500000BF0100A0F10102D0B2FAD1704730B551
:1012600004460D46B6488088A0F51341413905D0A3
:10127000B3488088A0F5A641103940D1B0494889CB
:10128000FFF75CFF4FF48070AB4908614000486194
:101290002012AA4908608020A7494861086180009F
:1012A00008614010086140004861E0B2A34908604D
:1012B0008020A1494861086180000861A0498889AF
:1012C000FFF73CFF4FF480709B4908614000486184
:1012D00028129A4908608020974948610861800077
:1012E00008614010086140004861E8B29349086015
:1012F0008020914948610861800008618CE1904834
:101300008088A0F5D041043949D18D4880790128E1
:1013100004D18B480088401E001B84B2884948894C
:10132000FFF70CFF4FF4807083490861400048616B
:1013300020128249086080207F494861086180004E
:1013400008614010086140004861E0B27B490860D4
:10135000802079494861086180000861784988895E
:10136000FFF7ECFE4FF4807073490861400048615C
:1013700028127249086080206F4948610861800026
:1013800008614010086140004861E8B26B4908609C
:101390008020694948610861800008613CE1684833
:1013A0008088A0F5C85163397ED1654880790028CE
:1013B0003FD163480088401E001B84B260494889C1
:1013C000FFF7BCFE4FF480705B4908614000486144
:1013D00000205A4908608020574948610861800010
:1013E00008614010086140004861002053490860CE
:1013F00080205149486108618000086140100861FF
:101400004000486120124D49086080204A494861E7
:101410000861800008614010086140004861E0B246
:10142000464908608020444948610861800008619D
:1014300041E043494889FFF781FE4FF480703E49FF
:1014400008614000486120123C49086080203A4908
:1014500048610861800008614010086140004861EF
:10146000E0B2364908608020334948610861800055
:101470000861401008614000486131480088401E02
:1014800000122E49086080202B49486108618000C5
:101490000861401008614000486129480078401EFA
:1014A000C0B22649086000E04CE080202249486133
:1014B00008618000086122498889FFF73FFE4FF4E8
:1014C00080701D4908614000486128121B4908606E
:1014D0008020194948610861800008614010086156
:1014E00040004861E8B2154908608020124948610F
:1014F00008618000086140100861400048611048A0
:101500004088401E00120D49086080200A49486149
:101510000861800008614010086140004861084887
:101520008078401EC0B205490860802002494861A9
:101530000861800008616FE0001001400C0C014060
:101540008C040020F7488088A0F5AA41103950D1BA
:10155000F4494889FFF7F2FD4FF48070F2490861C1
:10156000400048612012F14908608020EE4948613E
:10157000086180000861EB494989491C88B2FFF77E
:10158000DDFD4FF48070E849086140004861E0B239
:10159000E64908608020E4494861086180000861EC
:1015A000E0498889FFF7CAFD4FF48070DE49086181
:1015B000400048612812DD4908608020DA4948610E
:1015C000086180000861D7498989491C88B2FFF702
:1015D000B5FD4FF48070D449086140004861E8B21D
:1015E000D24908608020D0494861086180000861C4
:1015F00012E0CC488079012804D1CA480088401EF6
:10160000001B84B2C74948892146FFF7E4FDC5495C
:1016100088892946FFF7DFFD30BD2DE9F0410546F9
:101620000E46C0480088A84203DDBE484088B0424C
:1016300002DC0020BDE8F08131462846FFF70FFEAE
:10164000B8488088A0F51341413911D0B548808849
:10165000A0F5D04104390BD0B2488088A0F5A6414E
:10166000103905D0AF488088A0F5C851633903D13F
:101670002E20FFF763FD0DE0AA488088A0F5AA415F
:10168000103904D14FF43850FFF758FD02E0222002
:10169000FFF754FD4FF08830A4490C390860091D4C
:1016A00008604FF6FF70A149086088159E490861DF
:1016B00040004861402048610220FFF7C9FD9B4877
:1016C000001F006884B240209749086195488088CF
:1016D000A0F5C851633910D14FF4007092490861E8
:1016E0004FF0333091490C390860091D08604FF6FE
:1016F000FF708E49086020469CE740208A49486177
:101700000220FFF7A5FD8948001F006884B2402031
:101710008549086183488088A0F5134141390BD081
:1017200080488088A0F5A641103905D07D48808882
:10173000A0F5AA41103913D140207B49486102200D
:10174000FFF786FD7948001F00681FFA80F84020E7
:1017500075490861E7B24FF6FF7000EA07270DE010
:1017600070488088A0F5D041043907D140206E49E7
:10177000486108616D48001F006884B24FF4007032
:10178000694908614FF0333068490C390860091D18
:1017900008604FF6FF706549086062488088A0F5D0
:1017A0001341253917D05F488088A0F58A41353923
:1017B00011D05C488088A0F58A4131390BD0594856
:1017C0008088A0F50941893905D056488088A0F560
:1017D0003541053901D120462CE752488088A0F5D3
:1017E000134141390BD04F488088A0F5A6411039EC
:1017F00005D04C488088A0F5AA41103907D1E012E5
:10180000C002B91240EA411040EAE82012E720463F
:10181000FFF711FD0EE700B542488088A0F513419F
:10182000413911D03F488088A0F5D04104390BD010
:101830003C488088A0F5A641103905D039488088F9
:10184000A0F5C851633903D12920FFF777FC0FE0D9
:1018500034488088A0F5AA41103904D14FF42450AF
:10186000FFF76CFC04E040F273110720FFF7B3FCB4
:1018700000BD00B52B488088A0F51341413911D037
:1018800028488088A0F5D04104390BD025488088AD
:10189000A0F5A641103905D022488088A0F5C8518E
:1018A000633903D12820FFF749FC0EE01D488088EA
:1018B000A0F5AA41103904D14FF42050FFF73EFCA7
:1018C00003E000210720FFF786FC00BDF0B50546C8
:1018D000002400271348807901280BD11148808803
:1018E000A0F5D041043905D00E488088A0F5C85134
:1018F000633908D10B48807928BB0A488088A0F555
:10190000C85163391FD1082D1CD2DFE805F0040649
:10191000081113151719062514E0072512E00425F0
:1019200010E000008C040020001001400C0C01406D
:10193000052507E0012505E0002503E0032501E07A
:10194000022500BF00BFF8488088A0F51341413947
:1019500017D0F5488088A0F5D041043911D0F2485D
:101960008088A0F5A64110390BD0EF488088A0F5FB
:10197000AA41103905D0EC488088A0F5C8516339D8
:101980007ED1082D1CD2DFE805F00406090C0F12E9
:10199000151800BF14E044F0800411E044F0400446
:1019A0000EE044F0C0040BE044F0200408E044F0F2
:1019B000600405E044F0A00402E044F0E00400BF4D
:1019C00000BFD9488088A0F5AA41103902D14FF450
:1019D000585700E03627D4488088A0F5A641103932
:1019E0000DD0D1488088A0F5AA41103907D0CE4843
:1019F0008088A0F5C851633901D044F00804CA4872
:101A00008088A0F5D041043901D144F00204214678
:101A10003846FFF7E0FBC4488088A0F5C851633919
:101A20001DD014F0200F0DD0BF480088BE49498852
:101A3000884214DABC4806884088BB4908800846BA
:101A400046800CE0B8480088B7494988884206DDDE
:101A5000B54806884088B449088008464680B248A0
:101A60008088A0F5AA4110397ED1AF494889FFF797
:101A700065FB4FF48070AD4908614000486100E0AB
:101A800029E10020AA4908608020A849486108612E
:101A900080000861A4494989491C88B2FFF74EFBC0
:101AA0004FF48070A1490861400048610020A049BE
:101AB000086080209D4948610861800008619A495A
:101AC0004989891C88B2FFF739FB4FF48070974928
:101AD00008614000486194480088401E0012944903
:101AE00008608020914948610861800008618E4942
:101AF0004989C91C88B2FFF721FB4FF480708B49DC
:101B000008614000486188480078401EC0B288499A
:101B10000860802085494861086180000861824929
:101B20008889FFF70BFB4FF4807080490861400003
:101B3000486100207E49086080207C494861086136
:101B40008000086178498989491C88B2FFF7F6FA54
:101B50004FF4807075490861400048610020744965
:101B600008608020714900E034E04861086180002D
:101B700008616D498989891C88B2FFF7DFFA4FF443
:101B800080706A4908614000486167484088401E8B
:101B9000001267490860802064494861086180003C
:101BA000086161498989C91C88B2FFF7C7FA4FF4F7
:101BB00080705E490861400048615B488078401E43
:101BC000C0B25B49086080205849486108618000C4
:101BD0000861A7E054494889FFF7B0FA4FF48070D4
:101BE0005249086140004861002051490860802046
:101BF0004E4948610861800008614010086140005A
:101C0000486100204A4908608020484948610861CD
:101C10008000086140100861400048614248008827
:101C2000401E001242490860802040494861086116
:101C30008000086140100861400048613A4800781F
:101C4000401EC0B23A4908608020384948610861A6
:101C50008000086134498889FFF770FA4FF480707A
:101C60003249086140004861002031490860802005
:101C70002E494861086180000861401008614000F9
:101C8000486100202A49086080202849486108618D
:101C90008000086140100861400048612248408887
:101CA000401E0012224908608020204948610861D6
:101CB0008000086140100861400048611A4880783F
:101CC000401EC0B21A490860802018494861086166
:101CD0008000086126E0082D1CD2DFE805F004072B
:101CE0000A0D0F12151844F0300413E044F01004EC
:101CF00010E044F020040DE000BF0BE044F0380495
:101D000008E044F0280405E044F0180402E044F040
:101D1000080400BF00BF032744F48054214638461E
:101D2000FFF759FAF0BD00008C04002000100140BC
:101D30000C0C014030B504460D4629462046FFF7FD
:101D40008EFAFFF764FA4FF48070FE490861400094
:101D50004861FD480088FD4908608020F9494861D4
:101D600008618000086130BD70B504460D46164616
:101D7000F7488088A0F51341413905D0F4488088A0
:101D8000A0F5A641103940D1F1494889FFF7D6F9AD
:101D90004FF48070EB490861400048612012EB4924
:101DA00008608020E74948610861800008614010B0
:101DB000086140004861E0B2E44908608020E149E0
:101DC0004861086180000861E1498889FFF7B6F938
:101DD0004FF48070DB490861400048612812DB49FC
:101DE00008608020D7494861086180000861401080
:101DF000086140004861E8B2D44908608020D149B8
:101E000048610861800008613DE1D1488088A0F503
:101E1000AA41103950D1CE494889FFF78FF94FF4C4
:101E20008070C8490861400048612012C7490860B5
:101E30008020C4494861086180000861C44949891B
:101E4000491C88B2FFF77AF94FF48070BD490861E8
:101E500040004861E0B2BD4908608020B94948614E
:101E6000086180000861BA498889FFF767F94FF473
:101E70008070B4490861400048612812B349086085
:101E80008020B0494861086180000861B0498989B3
:101E9000491C88B2FFF752F94FF48070A9490861D4
:101EA00040004861E8B2A94908608020A54948611E
:101EB000086180000861E6E0A5488088A0F5C85167
:101EC00063397DD1A248807920B9A1480088401E9D
:101ED000001B84B29E494889FFF730F94FF48070A7
:101EE00098490861400048612012984908608020A4
:101EF0009449486108618000086140100861400011
:101F00004861E0B29149086080208E4948610861CB
:101F100080000861401008614000486120128B4930
:101F2000086080208749486108618000086140108E
:101F3000086140004861E0B284490860802081491E
:101F4000486108618000086181498889FFF7F6F8D7
:101F50004FF480707B4908614000486128127B493A
:101F6000086080207749486108618000086140105E
:101F7000086140004861E8B27449086080207149F6
:101F800048610861800008614010086140004861B4
:101F900028126E49086080206A4948610861800003
:101FA00008614010086140004861E8B26749086074
:101FB00080206449486108618000086163E0FFE7B0
:101FC00063488088A0F5D041043949D160488079C0
:101FD000012804D15E480088401E001B84B25C4981
:101FE0004889FFF7ABF84FF480705649086140000C
:101FF00048612012554908608020524948610861B3
:10200000800008614010086140004861E0B24F491B
:10201000086080204B4948610861800008614C4994
:102020008889FFF78BF84FF48070464908614000BB
:10203000486128124549086080204249486108618A
:10204000800008614010086140004861E8B23F49E3
:10205000086080203B49486108618000086112E007
:102060003B488079012804D139480088401E001B74
:1020700084B2374948892146FFF7ADF83449888949
:102080002946FFF7A8F84FF480702E4948614000B8
:1020900048612F4800892D490860802029494861FE
:1020A00008618000086140100861400048612748CD
:1020B00006608020486108618000086170BD2DE9DC
:1020C000F0410446BE20FFF739F84FF480701D49F7
:1020D00008614000486105201C49086080201949BA
:1020E0004861086180000861401008614000486153
:1020F000204612F017F905464FF06632154B12F0E4
:1021000061F9074612F0CAF81049086080200D49AD
:102110004861086180000861401008614000486122
:1021200001200A4908608020064948610861800052
:1021300008614010086140004861FF2003490860C1
:10214000802009E000100140240000200C0C014018
:102150008C04002066660440FE49486108618000E6
:10216000086140100861400048610020FA49086099
:102170008020F849486108618000086140100861CA
:10218000400048610020F44908608020F14948611E
:10219000086180000861BDE8F08110B50446002C9C
:1021A00066D1EE498871F02008804FF4A070488015
:1021B00008468088A0F5134141390BD0E748808854
:1021C000A0F5D041043905D0E4488088A0F5A641A7
:1021D00010391AD12C20E14908812A2048812B206E
:1021E000888108468088A0F5D041043905D0DB48B5
:1021F0008088A0F5A641103906D14FF4A070D749C8
:1022000008804FF4F0704880A1E0D4488088A0F5A1
:10221000AA41103910D14FF43050D04908814FF401
:10222000285048814FF42C5088814FF4F07008807A
:102230004FF4487048808AE0C8488088A0F5C851AB
:1022400063390DD12C20C54908812B2048812A20D3
:1022500088814FF4F07008804FF44870488076E031
:102260002220BE49088120204881212088816EE0FB
:102270000120BA4988714FF4A0700880F02048808E
:1022800008468088A0F51341413905D0B3488088BD
:10229000A0F5A641103907D12C20B04908812A2089
:1022A00048812B2088813FE0AC488088A0F5D04150
:1022B000043907D12C20A94908812B2048812A20E4
:1022C000888131E0A5488088A0F5AA41103910D155
:1022D0004FF43050A14908814FF4285048814FF401
:1022E0002C5088814FF4487008804FF4F07048807B
:1022F0001AE09A488088A0F5C85163390DD12C2086
:10230000964908812A2048812B2088814FF4487003
:1023100008804FF4F070488006E022208F49088141
:1023200021204881202088818C488088A0F5D041D8
:10233000043905D089488088A0F5A641103906D116
:102340004FF4F070854908804FF4A0704880002059
:10235000FFF7BCFA10BD2DE9F04F86B004460D46DC
:102360009046994604EB0800401E86B205EB090032
:10237000401E87B279488088A0F51341413915D0B5
:1023800076488088A0F5A64110390FD07348808820
:10239000A0F5D041043909D07048807901287BD15B
:1023A0006E488088A0F5C851633975D16B4948895A
:1023B000FEF7C4FE4FF48070664908614000486132
:1023C00020126549086080206249486108618000E8
:1023D00008614010086140004861E0B25E49086051
:1023E00080205C49486108618000086140100861F4
:1023F00040004861301258490860802055494861C2
:102400000861800008614010086140004861F0B236
:102410005149086080204F49486108618000086187
:102420004E498889FEF78AFE4FF480704949086159
:1024300040004861281248490860802045494861A9
:102440000861800008614010086140004861E8B2FE
:102450004149086080203F49486108618000086167
:10246000401008614000486138123B4908608020F4
:1024700038494861086180000861401008614000E7
:102480004861F8B2344908608020324948610861E7
:102490008000086177E1FFE730488088A0F5C851E7
:1024A00063397DD12D480088A0EB0800001B84B261
:1024B00005EB0900401E1FFA80F928494889FEF7FC
:1024C0003DFE4FF4807023490861400048612012AE
:1024D0002149086080201F49486108618000086127
:1024E0004010086140004861E0B21B49086080204C
:1024F0001849486108618000086140100861400087
:10250000486104EB0800401E001213490860802057
:10251000104948610861800008614010086140006E
:10252000486104EB0800401EC0B20B4908608020DF
:102530000849486108618000086108498889FEF7F8
:10254000FDFD4FF480700349086140004861281286
:10255000014905E0001001400C0C01408C040020F2
:1025600008608020FE4948610861800008614010D1
:10257000086140004861E8B2FA4908608020F849E3
:1025800048610861800008614010086140004861AE
:102590004FEA2920F34908608020F149486100E0B2
:1025A00011E0086180000861401008614000486146
:1025B00009F0FF00EB4908608020E94948610861A3
:1025C00080000861DFE0E8488088A0F5AA41103962
:1025D0007ED1E5494889FEF7B1FD4FF48070E049AE
:1025E0000861400048612012DE4908608020DC4913
:1025F0004861086180000861DB494989491C88B24B
:10260000FEF79CFD4FF48070D54908614000486199
:10261000E0B2D44908608020D14948610861800057
:102620000861D1494989891C88B2FEF787FD4FF4BA
:102630008070CB490861400048613012C949086088
:102640008020C7494861086180000861C6494989FE
:10265000C91C88B2FEF772FD4FF48070C049086152
:1026600040004861F0B2BF4908608020BC49486121
:10267000086180000861BC498889FEF75FFD4FF45E
:102680008070B7490861400048612812B549086068
:102690008020B3494861086180000861B249898996
:1026A000491C88B2FEF74AFD4FF48070AC490861BE
:1026B00040004861E8B2AB4908608020A849486101
:1026C000086180000861A8498989891C88B200E0F6
:1026D00026E0FEF733FD4FF48070A1490861400009
:1026E000486138129F49086080209D49486108610F
:1026F000800008619C498989C91C88B2FEF71EFDCB
:102700004FF480709649086140004861F8B29549DD
:10271000086080209249486108618000086132E0C9
:102720009148807901280ED1AA46BB468E48008880
:10273000801B401E80B201908B480088001B401E09
:1027400080B2009003E0A246B34601950097502066
:10275000059051200490522003905320029051463E
:102760000598FEF738FD59460498FEF734FD0199A7
:102770000398FEF730FD00990298FEF72CFD2946DC
:102780002046FEF76CFD06B0BDE8F08F70B504463C
:102790000026754805884088454373488088A0F521
:1027A000D041043916D170488079012812D1002017
:1027B0006D4988712A2048812B2088810021084694
:1027C000FEF74DFD0120684988712B2048812A20A1
:1027D000888103E000210846FEF741FDFEF717FD62
:1027E00000260DE04FF480705D49086140004861AB
:1027F0005C48046080204861086180000861761CA4
:10280000AE42EFD370BD08B50121192006F0B4FE29
:102810000121564806F0C9FC4FF4F860ADF80000FD
:1028200010208DF8030003208DF8020069464C4803
:1028300006F0ECFB4FF4F861494806F092FC4FF6C5
:10284000FF70ADF80000694646480C3806F0DEFB24
:102850004FF6FF7143480C3806F083FC3220FDF739
:102860003FFF01210020FEF7B6FC3220FDF738FFC4
:102870000020FEF7C4FC3C49888008468088FF2879
:102880000ADB08468088A0F57F41FF3904D036482E
:102890008088B0F5134F62D1D320FEF74FFCFEF7CE
:1028A00069FCFEF767FCFEF765FC2F498880084647
:1028B00080884FF6FF7101EA00202B498880FEF7DF
:1028C00059FC294989880843274988800846808817
:1028D000A0F51341413942D0BF20FEF72FFCFEF78F
:1028E00049FCFEF747FCFEF745FCFEF743FC1E499A
:1028F0008880084680884FF6FF7101EA00201A4957
:102900008880FEF737FC1849898808431649888073
:1029100008468088A0F5D04104397CD0D420FEF749
:102920000DFCFEF727FCFEF725FCFEF723FC0E4905
:102930008880084680884FF6FF7101EA00200A4926
:102940008880FEF717FC0849898808430649888073
:1029500008468088A0F5A64110395CD008E05AE00E
:10296000001001400C0C01408C04002000023000DB
:102970004FF45A40FEF7E2FBFEF7FCFB4FF45B40DE
:10298000FEF7DCFBFEF7F6FBFE49888008468088F0
:102990004FF6FF7101EA0020FA4988804FF45C404D
:1029A000FEF7CCFBFEF7E6FBF64989880843F549BC
:1029B000888008468088B0F5004F02D145F210505B
:1029C0008880F0488088A0F5AA41103923D0A12042
:1029D000FEF7B4FBFEF7CEFBEA498880FEF7CAFBA0
:1029E000E8498880084680884FF6FF7101EA002098
:1029F000E4498880FEF7BEFBE24989880843E14943
:102A0000888008468088A0F5AE41613903D141F63F
:102A10006310DC498880DB488188DBA00FF0D8FF99
:102A2000D8488088A0F5134141397CD1CF20FEF7EA
:102A300085FB0020FEF790FBC120FEF78DFB3020C8
:102A4000FEF78AFBED20FEF779FB6420FEF784FB9E
:102A50000320FEF781FB1220FEF77EFB8120FEF7AC
:102A60007BFBE820FEF76AFB8520FEF775FB102054
:102A7000FEF772FB7A20FEF76FFBCB20FEF75EFBC2
:102A80003920FEF769FB2C20FEF766FB0020FEF7DD
:102A900063FB3420FEF760FB0220FEF75DFBF720AE
:102AA000FEF74CFB2020FEF757FBEA20FEF746FB23
:102AB0000020FEF751FB0020FEF74EFBC020FEF782
:102AC0003DFB1B20FEF748FBC120FEF737FB012032
:102AD000FEF742FBC520FEF731FB3020FEF73CFB42
:102AE0003020FEF739FBC720FEF728FBB720FEF7A2
:102AF00033FB3620FEF722FB4820FEF72DFB3A2061
:102B0000FEF71CFB5520FEF727FBB120FEF716FB56
:102B10000020FEF721FB1A20FEF71EFBB620FEF771
:102B20000DFB0A2000E099E0FEF716FBA220FEF75D
:102B300013FBF220FEF702FB0020FEF70DFB262020
:102B4000FEF7FCFA0120FEF707FBE020FEF7F6FA9D
:102B50000F20FEF701FB2A20FEF7FEFA2820FEF7E1
:102B6000FBFA0820FEF7F8FA0E20FEF7F5FA082027
:102B7000FEF7F2FA5420FEF7EFFAA920FEF7ECFA7E
:102B80004320FEF7E9FA0A20FEF7E6FA0F20FEF7E7
:102B9000E3FA0020FEF7E0FA0020FEF7DDFA00205D
:102BA000FEF7DAFA0020FEF7D7FAE120FEF7C6FAC0
:102BB0000020FEF7D1FA1520FEF7CEFA1720FEF717
:102BC000CBFA0720FEF7C8FA1120FEF7C5FA062057
:102BD000FEF7C2FA2B20FEF7BFFA5620FEF7BCFA2A
:102BE0003C20FEF7B9FA0520FEF7B6FA1020FEF7F2
:102BF000B3FA0F20FEF7B0FA3F20FEF7ADFA3F2000
:102C0000FEF7AAFA0F20FEF7A7FA2B20FEF796FA96
:102C10000020FEF7A1FA0020FEF79EFA0120FEF741
:102C20009BFA3F20FEF798FA2A20FEF787FA002049
:102C3000FEF792FA0020FEF78FFA0020FEF78CFADA
:102C4000EF20FEF789FA1120FEF778FA7820FDF7D9
:102C500047FD2920FEF772FA03F0A0BB494880889F
:102C6000A0F5D04104397CD11120FEF767FA142079
:102C7000FDF736FDD020FEF761FA0720FEF76CFA6B
:102C80004220FEF769FA1D20FEF766FAD120FEF712
:102C900055FA0020FEF760FA1A20FEF75DFA0920C7
:102CA000FEF75AFAD220FEF749FA0120FEF754FA4D
:102CB0002220FEF751FAC020FEF740FA1020FEF75E
:102CC0004BFA3B20FEF748FA0020FEF745FA0220B7
:102CD000FEF742FA1120FEF73FFAC520FEF72EFA62
:102CE0000320FEF739FAC820FEF728FA0020FEF785
:102CF00033FA2520FEF730FA2120FEF72DFA0520C1
:102D0000FEF72AFA0020FEF727FA0A20FEF724FA37
:102D10006520FEF721FA2520FEF71EFA7720FEF740
:102D20001BFA5020FEF718FA0F20FEF715FA0020C4
:102D3000FEF712FAF820FEF701FA0120FEF70CFA6E
:102D4000FE20FEF7FBF90020FEF706FA0220FEF750
:102D500003FA2020FEF7F2F93620FEF7EFF90820FB
:102D600000E037E0FEF7F8F93A20FEF7E7F95520E2
:102D7000FEF7F2F92B20FEF7E1F90020FEF7ECF95F
:102D8000002009E08C040020204C43442049443AB0
:102D900025780D0A00000000FEF7DEF90120FEF79D
:102DA000DBF93F20FEF7D8F92A20FEF7C7F900200B
:102DB000FEF7D2F90020FEF7CFF90120FEF7CCF99B
:102DC000DF20FEF7C9F97820FDF78AFC2920FEF7FD
:102DD000B5F941E7FE488088A0F5A641103940F0DA
:102DE0007C87ED20FEF7AAF90120FEF7B5F9FE2059
:102DF000FEF7B2F9EE20FEF7A1F9DE20FEF7ACF9FE
:102E00002120FEF7A9F9F120FEF798F90120FEF73D
:102E1000A3F9DF20FEF792F91020FEF79DF9C420F8
:102E2000FEF78CF98F20FEF797F9C620FEF786F99A
:102E30000020FEF791F9E220FEF78EF9E220FEF77E
:102E40008BF9E220FEF788F9BF20FEF777F9AA2078
:102E5000FEF782F9B020FEF771F90D20FEF77CF93C
:102E60000020FEF779F90D20FEF776F90020FEF735
:102E700073F91120FEF770F90020FEF76DF91920A3
:102E8000FEF76AF90020FEF767F92120FEF764F9E2
:102E90000020FEF761F92D20FEF75EF90020FEF715
:102EA0005BF93D20FEF758F90020FEF755F95D204B
:102EB000FEF752F90020FEF74FF95D20FEF74CF9BE
:102EC0000020FEF749F9B120FEF738F98020FEF71F
:102ED00043F90020FEF740F98B20FEF73DF9002072
:102EE000FEF73AF99620FEF737F90020FEF734F99D
:102EF000B220FEF723F90020FEF72EF90020FEF79E
:102F00002BF90220FEF728F90020FEF725F903200F
:102F1000FEF722F90020FEF71FF9B320FEF70EF9A5
:102F20000020FEF719F90020FEF716F90020FEF741
:102F300013F90020FEF710F90020FEF70DF900202C
:102F4000FEF70AF90020FEF707F90020FEF704F962
:102F50000020FEF701F90020FEF7FEF80020FEF742
:102F6000FBF80020FEF7F8F80020FEF7F5F8002047
:102F7000FEF7F2F80020FEF7EFF80020FEF7ECF87D
:102F80000020FEF7E9F80020FEF7E6F80020FEF743
:102F9000E3F80020FEF7E0F80020FEF7DDF800205F
:102FA000FEF7DAF80020FEF7D7F80020FEF7D4F895
:102FB000B420FEF7C3F88B20FEF7CEF80020FEF712
:102FC000CBF89620FEF7C8F80020FEF7C5F8A12040
:102FD000FEF7C2F80020FEF7BFF8B520FEF7AEF806
:102FE0000220FEF7B9F80020FEF7B6F80320FEF73E
:102FF000B3F80020FEF7B0F80420FEF7ADF800208B
:10300000FEF7AAF8B620FEF799F80020FEF7A4F81C
:103010000020FEF7A1F8B720FEF790F80020FEF799
:103020009BF80020FEF798F83F20FEF795F8002067
:10303000FEF792F85E20FEF78FF80020FEF78CF87E
:103040006420FEF789F80020FEF786F88C20FEF752
:1030500083F80020FEF780F8AC20FEF77DF8002012
:10306000FEF77AF8DC20FEF777F80020FEF774F818
:103070007020FEF771F80020FEF76EF89020FEF742
:103080006BF80020FEF768F8EB20FEF765F80020EB
:10309000FEF762F8DC20FEF75FF80020FEF75CF830
:1030A000B820FEF74BF80020FEF756F80020FEF798
:1030B00053F80020FEF750F80020FEF74DF80020EE
:1030C000FEF74AF80020FEF747F80020FEF744F824
:1030D0000020FEF741F8BA20FEF730F82420FEF772
:1030E0003BF80020FEF738F80020FEF735F8002006
:1030F000FEF732F8C120FEF721F82020FEF72CF869
:103100000020FEF729F85420FEF726F80020FEF7ED
:1031100023F8FF20FEF720F80020FEF71DF8C2205C
:10312000FEF70CF80A20FEF717F80020FEF714F857
:103130000420FEF711F80020FEF70EF8C320FDF77B
:10314000FDFF3C20FEF708F80020FEF705F83A20C6
:10315000FEF702F80020FDF7FFFF3920FDF7FCFF26
:103160000020FDF7F9FF3720FDF7F6FF0020FDF7FF
:10317000F3FF3C20FDF7F0FF0020FDF7EDFF3620C8
:10318000FDF7EAFF0020FDF7E7FF3220FDF7E4FF3F
:103190000020FDF7E1FF2F20FDF7DEFF0020FDF707
:1031A000DBFF2C20FDF7D8FF0020FDF7D5FF2920FD
:1031B000FDF7D2FF0020FDF7CFFF2620FDF7CCFF63
:1031C0000020FDF7C9FF2420FDF7C6FF002001E025
:1031D0008C040020FDF7C0FF2420FDF7BDFF002078
:1031E000FDF7BAFF2320FDF7B7FF0020FDF7B4FF7E
:1031F0003C20FDF7B1FF0020FDF7AEFF3620FDF7C4
:10320000ABFF0020FDF7A8FF3220FDF7A5FF00204F
:10321000FDF7A2FF2F20FDF79FFF0020FDF79CFF89
:103220002C20FDF799FF0020FDF796FF2920FDF7E0
:1032300093FF0020FDF790FF2620FDF78DFF002073
:10324000FDF78AFF2420FDF787FF0020FDF784FFAC
:103250002420FDF781FF0020FDF77EFF2320FDF7EE
:103260007BFF0020FDF778FFC420FDF767FF622099
:10327000FDF772FF0020FDF76FFF0520FDF76CFFE3
:103280000020FDF769FF8420FDF766FF0020FDF7B1
:1032900063FFF020FDF760FF0020FDF75DFF1820C1
:1032A000FDF75AFF0020FDF757FFA420FDF754FF5C
:1032B0000020FDF751FF1820FDF74EFF0020FDF71D
:1032C0004BFF5020FDF748FF0020FDF745FF0C2085
:1032D000FDF742FF0020FDF73FFF1720FDF73CFF01
:1032E0000020FDF739FF9520FDF736FF0020FDF7A0
:1032F00033FFF320FDF730FF0020FDF72DFFE62020
:10330000FDF72AFF0020FDF727FFC520FDF716FF78
:103310003220FDF721FF0020FDF71EFF4420FDF7BE
:103320001BFF0020FDF718FF6520FDF715FF0020AB
:10333000FDF712FF7620FDF70FFF0020FDF70CFFD1
:103340008820FDF709FF0020FDF706FFC620FDF7E6
:10335000F5FE2020FDF700FF0020FDF7FDFE172001
:10336000FDF7FAFE0020FDF7F7FE0120FDF7F4FE61
:103370000020FDF7F1FEC720FDF7E0FE0020FDF77D
:10338000EBFE0020FDF7E8FE0020FDF7E5FE002043
:10339000FDF7E2FEC820FDF7D1FE0020FDF7DCFEC0
:1033A0000020FDF7D9FE0020FDF7D6FE0020FDF736
:1033B000D3FEC920FDF7C2FE0020FDF7CDFE0020A0
:1033C000FDF7CAFE0020FDF7C7FE0020FDF7C4FE92
:1033D0000020FDF7C1FE0020FDF7BEFE0020FDF736
:1033E000BBFE0020FDF7B8FE0020FDF7B5FE002073
:1033F000FDF7B2FE0020FDF7AFFE0020FDF7ACFEAA
:103400000020FDF7A9FE0020FDF7A6FE0020FDF735
:10341000A3FE0020FDF7A0FEE020FDF78FFE1620A2
:10342000FDF79AFE0020FDF797FE1C20FDF794FEA5
:103430000020FDF791FE2120FDF78EFE0020FDF714
:103440008BFE3620FDF788FE0020FDF785FE462026
:10345000FDF782FE0020FDF77FFE5220FDF77CFE87
:103460000020FDF779FE6420FDF776FE0020FDF7D1
:1034700073FE7A20FDF770FE0020FDF76DFE8B20B5
:10348000FDF76AFE0020FDF767FE9920FDF764FE58
:103490000020FDF761FEA820FDF75EFE0020FDF78D
:1034A0005BFEB920FDF758FE0020FDF755FEC42055
:1034B000FDF752FE0020FDF74FFECA20FDF74CFE3F
:1034C0000020FDF749FED220FDF746FE0020FDF763
:1034D00043FED920FDF740FE0020FDF73DFEE02031
:1034E000FDF73AFE0020FDF737FEF320FDF734FE2E
:1034F0000020FDF731FEE120FDF720FE1620FDF74C
:103500002BFE0020FDF728FE1C20FDF725FE0020E5
:10351000FDF722FE2220FDF71FFE0020FDF71CFE16
:103520003620FDF719FE0020FDF716FE4520FDF7B9
:1035300013FE0020FDF710FE5220FDF70DFE0020C7
:10354000FDF70AFE6420FDF707FE0020FDF704FEEC
:103550007A20FDF701FE0020FDF7FEFD8B20FDF730
:10356000FBFD0020FDF7F8FD9920FDF7F5FD00209B
:10357000FDF7F2FDA820FDF7EFFD0020FDF7ECFDC3
:10358000B920FDF7E9FD0020FDF7E6FDC420FDF7B9
:10359000E3FD0020FDF7E0FDCA20FDF7DDFD002082
:1035A000FDF7DAFDD220FDF7D7FD0020FDF7D4FDB1
:1035B000D820FDF7D1FD0020FDF7CEFDE020FDF77E
:1035C000CBFD0020FDF7C8FDF320FDF7C5FD002071
:1035D000FDF7C2FDE220FDF7B1FD0520FDF7BCFDC2
:1035E0000020FDF7B9FD0B20FDF7B6FD0020FDF72B
:1035F000B3FD1B20FDF7B0FD0020FDF7ADFD34202D
:10360000FDF7AAFD0020FDF7A7FD4420FDF7A4FD6E
:103610000020FDF7A1FD4F20FDF79EFD0020FDF7E6
:103620009BFD6120FDF798FD0020FDF795FD7920B9
:10363000FDF792FD0020FDF78FFD8820FDF78CFD42
:103640000020FDF789FD9720FDF786FD0020FDF79E
:1036500083FDA620FDF780FD0020FDF77DFDB7204E
:10366000FDF77AFD0020FDF777FDC220FDF774FD20
:103670000020FDF771FDC720FDF76EFD0020FDF76E
:103680006BFDD120FDF768FD0020FDF765FDD6201C
:10369000FDF762FD0020FDF75FFDDD20FDF75CFD1D
:1036A0000020FDF759FDF320FDF756FD0020FDF742
:1036B00053FDE320FDF742FD0520FDF74DFD002001
:1036C000FDF74AFD0A20FDF747FD0020FDF744FD08
:1036D0001C20FDF741FD0020FDF73EFD3320FDF7E6
:1036E0003BFD0020FDF738FD4420FDF735FD0020AF
:1036F000FDF732FD5020FDF72FFD0020FDF72CFDDA
:103700006220FDF729FD0020FDF726FD7820FDF75A
:1037100023FD0020FDF720FD8820FDF71DFD002082
:10372000FDF71AFD9720FDF717FD0020FDF714FDAA
:10373000A620FDF711FD0020FDF70EFDB720FDF7D7
:103740000BFD0020FDF708FDC220FDF705FD002060
:10375000FDF702FDC720FDF7FFFC0020FDF7FCFC94
:10376000D120FDF7F9FC0020FDF7F6FCD520FDF790
:10377000F3FC0020FDF7F0FCDD20FDF7EDFC002060
:10378000FDF7EAFCF320FDF7E7FC0020FDF7E4FC81
:10379000E420FDF7D3FC0120FDF7DEFC0020FDF75F
:1037A000DBFC0120FDF7D8FC0020FDF7D5FC022052
:1037B000FDF7D2FC0020FDF7CFFC2A20FDF7CCFC62
:1037C0000020FDF7C9FC3C20FDF7C6FC0020FDF7FA
:1037D000C3FC4B20FDF7C0FC0020FDF7BDFC5D20C5
:1037E000FDF7BAFC0020FDF7B7FC7420FDF7B4FC30
:1037F0000020FDF7B1FC8420FDF7AEFC0020FDF7B2
:10380000ABFC9320FDF7A8FC0020FDF7A5FCA2204F
:10381000FDF7A2FC0020FDF79FFCB320FDF79CFC08
:103820000020FDF799FCBE20FDF796FC0020FDF777
:1038300093FCC420FDF790FC0020FDF78DFCCD200B
:10384000FDF78AFC0020FDF787FCD320FDF784FC00
:103850000020FDF781FCDD20FDF77EFC0020FDF758
:103860007BFCF320FDF778FC0020FDF775FCE520DC
:10387000FDF764FC0020FDF76FFC0020FDF76CFCF9
:103880000020FDF769FC0020FDF766FC0220FDF733
:1038900063FC0020FDF760FC2920FDF75DFC0020A3
:1038A000FDF75AFC3C20FDF757FC0020FDF754FCC7
:1038B0004B20FDF751FC0020FDF74EFC5D20FDF78D
:1038C0004BFC0020FDF748FC7420FDF745FC002070
:1038D000FDF742FC8420FDF73FFC0020FDF73CFC97
:1038E0009320FDF739FC0020FDF736FCA220FDF700
:1038F00033FC0020FDF730FCB320FDF72DFC002049
:10390000FDF72AFCBE20FDF727FC0020FDF724FC74
:10391000C420FDF721FC0020FDF71EFCCD20FDF7A3
:103920001BFC0020FDF718FCD320FDF715FC002040
:10393000FDF712FCDC20FDF70FFC0020FDF70CFC6E
:10394000F320FDF709FC0020FDF706FCE620FDF75B
:10395000F5FB1120FDF700FC0020FDF7FDFB3420F6
:10396000FDF7FAFB0020FDF7F7FB5620FDF7F4FB0F
:103970000020FDF7F1FB7620FDF7EEFB0020FDF7C0
:10398000EBFB7720FDF7E8FB0020FDF7E5FB662069
:10399000FDF7E2FB0020FDF7DFFB8820FDF7DCFBF5
:1039A0000020FDF7D9FB9920FDF7D6FB0020FDF79D
:1039B000D3FBBB20FDF7D0FB0020FDF7CDFB99200A
:1039C000FDF7CAFB0020FDF7C7FB6620FDF7C4FB2F
:1039D0000020FDF7C1FB5520FDF7BEFB0020FDF7E1
:1039E000BBFB5520FDF7B8FB0020FDF7B5FB4520DC
:1039F000FDF7B2FB0020FDF7AFFB4320FDF7ACFB6A
:103A00000020FDF7A9FB4420FDF7A6FB0020FDF7F1
:103A1000A3FBE720FDF792FB3220FDF79DFB002082
:103A2000FDF79AFB5520FDF797FB0020FDF794FB6F
:103A30007620FDF791FB0020FDF78EFB6620FDF759
:103A40008BFB0020FDF788FB6720FDF785FB00203E
:103A5000FDF782FB6720FDF77FFB0020FDF77CFB75
:103A60008720FDF779FB0020FDF776FB9920FDF715
:103A700073FB0020FDF770FBBB20FDF76DFB002002
:103A8000FDF76AFB9920FDF767FB0020FDF764FB5B
:103A90007720FDF761FB0020FDF75EFB4420FDF77A
:103AA0005BFB0020FDF758FB5620FDF755FB00207F
:103AB000FDF752FB2320FDF74FFB0020FDF74CFBE9
:103AC0003320FDF749FB0020FDF746FB4520FDF7BD
:103AD00043FB0020FDF740FBE820FDF72FFB002013
:103AE000FDF73AFB0020FDF737FB9920FDF734FB8B
:103AF0000020FDF731FB8720FDF72EFB0020FDF7AE
:103B00002BFB8820FDF728FB0020FDF725FB772005
:103B1000FDF722FB0020FDF71FFB6620FDF71CFBD5
:103B20000020FDF719FB8820FDF716FB0020FDF7AC
:103B300013FBAA20FDF710FB0020FDF70DFBBB20B7
:103B4000FDF70AFB0020FDF707FB9920FDF704FBBA
:103B50000020FDF701FB6620FDF7FEFA0020FDF7CF
:103B6000FBFA5520FDF7F8FA0020FDF7F5FA55208D
:103B7000FDF7F2FA0020FDF7EFFA4420FDF7ECFA2A
:103B80000020FDF7E9FA4420FDF7E6FA0020FDF7F2
:103B9000E3FA5520FDF7E0FA0020FDF7DDFAE92011
:103BA000FDF7CCFAAA20FDF7D7FA0020FDF7D4FAEA
:103BB0000020FDF7D1FA0020FDF7CEFA0020FDF736
:103BC000BDFAAA20FDF7C8FACF20FDF7B7FA00200A
:103BD000FDF7C2FA0020FDF7BFFA0020FDF7BCFA9E
:103BE0000020FDF7B9FA0020FDF7B6FA0020FDF736
:103BF000B3FA0020FDF7B0FA0020FDF7ADFA00207F
:103C0000FDF7AAFA0020FDF7A7FA0020FDF7A4FAB5
:103C10000020FDF7A1FA0020FDF79EFA0020FDF735
:103C20009BFA0020FDF798FA0020FDF795FA002096
:103C3000FDF792FAF020FDF781FA0020FDF78CFAEB
:103C40005020FDF789FA0020FDF786FA0020FDF7E5
:103C500083FA0020FDF780FAF320FDF76FFA0020C9
:103C6000FDF77AFAF920FDF769FA0620FDF774FAF4
:103C70001020FDF771FA2920FDF76EFA0020FDF7FC
:103C80006BFA3A20FDF75AFA5520FDF765FA112034
:103C9000FDF754FA6420FCF723FD2920FDF74EFAC6
:103CA0003520FDF74BFA0020FDF756FA5120FDF7BD
:103CB00045FAFF20FDF750FA5320FDF73FFA2C207C
:103CC000FDF74AFA5520FDF739FA8220FDF744FA4C
:103CD0002C20FDF733FA02F061BBFE488088A0F586
:103CE000AA4110397ED155214FF47040FDF773FA87
:103CF000AA214FF20100FDF76EFA52214FF20200A5
:103D0000FDF769FA08214FF20300FDF764FA01217B
:103D10004FF20400FDF75FFA0D214FF43040FDF73C
:103D20005AFA0D214BF20100FDF755FA0D214BF225
:103D30000200FDF750FA34214FF43640FDF74BFAFC
:103D400034214BF20160FDF746FA34214BF2026058
:103D5000FDF741FA0D214FF43140FDF73CFA0D21FA
:103D60004BF20110FDF737FA0D214BF20210FDF76F
:103D700032FA34214FF43740FDF72DFA34214BF25B
:103D80000170FDF728FA34214BF20270FDF723FA97
:103D900000214FF43240FDF71EFA00214BF20120C2
:103DA000FDF719FA00214BF20220FDF714FA242145
:103DB0004FF43840FDF70FFA24214BF60100FDF7D0
:103DC0000AFA24214BF60200FDF705FA01214FF40F
:103DD0003F40FDF700FA0F214FF43340FDF7FBF9A8
:103DE0000F2100E0FEE34BF20130FDF7F4F90F2163
:103DF0004BF20230FDF7EFF934214FF43940FDF773
:103E0000EAF934214BF60110FDF7E5F934214BF6C0
:103E10000210FDF7E0F908214FF43540FDF7DBF91A
:103E200008214BF20150FDF7D6F908214BF2025060
:103E3000FDF7D1F903214FF44240FDF7CCF92421DD
:103E40004FF43A40FDF7C7F924214BF60120FDF766
:103E5000C2F924214BF60220FDF7BDF900214FF4F1
:103E60003C40FDF7B8F978214BF60140FDF7B3F976
:103E700000214BF60240FDF7AEF900214FF43D4022
:103E8000FDF7A9F978214BF60150FDF7A4F90021BF
:103E90004BF60250FDF79FF900214FF43E40FDF72D
:103EA0009AF964214BF60160FDF795F900214FF472
:103EB0005140FDF790F933214DF20110FDF78BF9D8
:103EC00000214DF20210FDF786F934214DF2031066
:103ED000FDF781F900214DF20410FDF77CF93A213C
:103EE0004DF20510FDF777F900214DF20610FDF7B0
:103EF00072F94A214DF20710FDF76DF900214DF2DC
:103F00000810FDF768F95C214DF20910FDF763F91F
:103F100000214DF20A10FDF75EF981214DF20B10E0
:103F2000FDF759F900214DF20C10FDF754F9A621C7
:103F30004DF20D10FDF74FF900214DF20E10FDF777
:103F40004AF9E5214DF20F10FDF745F901214DF237
:103F50001010FDF740F913214DF21110FDF73BF958
:103F600001214DF21210FDF736F954214DF21310D4
:103F7000FDF731F901214DF21410FDF72CF98221E2
:103F80004DF21510FDF727F901214DF21610FDF73E
:103F900022F9CA214DF21710FDF71DF902214DF249
:103FA0001810FDF718F900214DF21910FDF713F95B
:103FB00002214DF21A10FDF70EF901214DF21B10EE
:103FC000FDF709F902214DF21C10FDF704F9342127
:103FD0004DF21D10FDF7FFF802214DF21E10FDF706
:103FE000FAF867214DF21F10FDF7F5F802214DF2A6
:103FF0002010FDF7F0F884214DF22110FDF7EBF8C9
:1040000002214DF22210FDF7E6F8A4214DF2231013
:10401000FDF7E1F802214DF22410FDF7DCF8B7219D
:104020004DF22510FDF7D7F802214DF22610FDF7CD
:10403000D2F8CF214DF22710FDF7CDF802214DF235
:104040002810FDF7C8F8DE214DF22910FDF7C3F85E
:1040500002214DF22A10FDF7BEF8F2214DF22B108D
:10406000FDF7B9F802214DF22C10FDF7B4F8FE214E
:104070004DF22D10FDF7AFF803214DF22E10FDF794
:10408000AAF810214DF22F10FDF7A5F803214DF2EB
:104090003010FDF7A0F833214DF23110FDF79BF8F9
:1040A00003214DF23210FDF796F86D214DF23310D9
:1040B000FDF791F800214FF45240FDF78CF83321C1
:1040C0004DF20120FDF787F800214DF20220FDF7A7
:1040D00082F801E08C04002034214DF20320FDF72A
:1040E0007AF800214DF20420FDF775F83A214DF2DF
:1040F0000520FDF770F800214DF20620FDF76BF862
:104100004A214DF20720FDF766F800214DF2082004
:10411000FDF761F85C214DF20920FDF75CF8002104
:104120004DF20A20FDF757F881214DF20B20FDF7E3
:1041300052F800214DF20C20FDF74DF8A6214DF26A
:104140000D20FDF748F800214DF20E20FDF743F851
:10415000E5214DF20F20FDF73EF801214DF2102030
:10416000FDF739F813214DF21120FDF734F8012144
:104170004DF21220FDF72FF854214DF21320FDF7D8
:104180002AF801214DF21420FDF725F882214DF285
:104190001520FDF720F801214DF21620FDF71BF840
:1041A000CA214DF21720FDF716F802214DF2182012
:1041B000FDF711F800214DF21920FDF70CF802214E
:1041C0004DF21A20FDF707F801214DF21B20FDF7F3
:1041D00002F802214DF21C20FCF7FDFF34214DF2C4
:1041E0001D20FCF7F8FF02214DF21E20FCF7F3FF23
:1041F00067214DF21F20FCF7EEFF02214DF2202037
:10420000FCF7E9FF84214DF22120FCF7E4FF0221B5
:104210004DF22220FCF7DFFFA4214DF22320FCF712
:10422000DAFF02214DF22420FCF7D5FFB7214DF231
:104230002520FCF7D0FF02214DF22620FCF7CBFF12
:10424000CF214DF22720FCF7C6FF02214DF2282096
:10425000FCF7C1FFDE214DF22920FCF7BCFF022153
:104260004DF22A20FCF7B7FFF2214DF22B20FCF78C
:10427000B2FF02214DF22C20FCF7ADFFFE214DF2E2
:104280002D20FCF7A8FF03214DF22E20FCF7A3FF01
:1042900010214DF22F20FCF79EFF03214DF230201C
:1042A000FCF799FF33214DF23120FCF794FF0321F5
:1042B0004DF23220FCF78FFF6D214DF23320FCF7D9
:1042C0008AFF00214FF45340FCF785FF33214DF264
:1042D0000130FCF780FF00214DF20230FCF77BFF3C
:1042E00034214DF20330FCF776FF00214DF204300B
:1042F000FCF771FF3A214DF20530FCF76CFF00210D
:104300004DF20630FCF767FF4A214DF20730FCF70B
:1043100062FF00214DF20830FCF75DFF5C214DF299
:104320000930FCF758FF00214DF20A30FCF753FF2B
:1043300081214DF20B30FCF74EFF00214DF20C3085
:10434000FCF749FFA6214DF20D30FCF744FF002198
:104350004DF20E30FCF73FFFE5214DF20F30FCF738
:104360003AFF01214DF21030FCF735FF13214DF2D9
:104370001130FCF730FF01214DF21230FCF72BFF1A
:1043800054214DF21330FCF726FF01214DF2143079
:10439000FCF721FF82214DF21530FCF71CFF0121B3
:1043A0004DF21630FCF717FFCA214DF21730FCF71B
:1043B00012FF02214DF21830FCF70DFF00214DF2E3
:1043C0001930FCF708FF02214DF21A30FCF703FF09
:1043D00001214DF21B30FCF7FEFE02214DF21C3094
:1043E000FCF7F9FE34214DF21D30FCF7F4FE0221FA
:1043F0004DF21E30FCF7EFFE67214DF21F30FCF747
:10440000EAFE02214DF22030FCF7E5FE84214DF258
:104410002130FCF7E0FE02214DF22230FCF7DBFEFA
:10442000A4214DF22330FCF7D6FE02214DF22430B8
:10443000FCF7D1FEB7214DF22530FCF7CCFE02216E
:104440004DF22630FCF7C7FECF214DF22730FCF7A6
:10445000C2FE02214DF22830FCF7BDFEDE214DF2F6
:104460002930FCF7B8FE02214DF22A30FCF7B3FEEA
:10447000F2214DF22B30FCF7AEFE02214DF22C3032
:10448000FCF7A9FEFE214DF22D30FCF7A4FE03211E
:104490004DF22E30FCF79FFE10214DF22F30FCF72D
:1044A0009AFE03214DF23030FCF795FE33214DF298
:1044B0003130FCF790FE03214DF23230FCF78BFED9
:1044C0006D214DF23330FCF786FE00214FF454404D
:1044D000FCF781FE33214DF20140FCF77CFE002108
:1044E0004DF20240FCF777FE34214DF20340FCF719
:1044F00072FE00214DF20440FCF76DFE3A214DF2B0
:104500000540FCF768FE00214DF20640FCF763FE13
:104510004A214DF20740FCF75EFE00214DF20840B3
:10452000FCF759FE5C214DF20940FCF754FE0021D6
:104530004DF20A40FCF74FFE81214DF20B40FCF793
:104540004AFE00214DF20C40FCF745FEA6214DF23B
:104550000D40FCF740FE00214DF20E40FCF73BFE03
:10456000E5214DF20F40FCF736FE01214DF21040DF
:10457000FCF731FE13214DF21140FCF72CFE012116
:104580004DF21240FCF727FE54214DF21340FCF788
:1045900022FE01214DF21440FCF71DFE82214DF256
:1045A0001540FCF718FE01214DF21640FCF713FEF2
:1045B000CA214DF21740FCF70EFE02214DF21840C1
:1045C000FCF709FE00214DF21940FCF704FE022120
:1045D0004DF21A40FCF7FFFD01214DF21B40FCF7A4
:1045E000FAFD00E004E302214DF21C40FCF7F3FD6C
:1045F00034214DF21D40FCF7EEFD02214DF21E402C
:10460000FCF7E9FD67214DF21F40FCF7E4FD0221B4
:104610004DF22040FCF7DFFD84214DF22140FCF7F4
:10462000DAFD02214DF22240FCF7D5FDA4214DF226
:104630002340FCF7D0FD02214DF22440FCF7CBFDD6
:10464000B7214DF22540FCF7C6FD02214DF2264070
:10465000FCF7C1FDCF214DF22740FCF7BCFD022144
:104660004DF22840FCF7B7FDDE214DF22940FCF762
:10467000B2FD02214DF22A40FCF7ADFDF2214DF2D0
:104680002B40FCF7A8FD02214DF22C40FCF7A3FDC6
:10469000FE214DF22D40FCF79EFD03214DF22E40F0
:1046A000FCF799FD10214DF22F40FCF794FD0321FA
:1046B0004DF23040FCF78FFD33214DF23140FCF7D5
:1046C0008AFD03214DF23240FCF785FD6D214DF24C
:1046D0003340FCF780FD00214FF45540FCF77BFD93
:1046E00033214DF20150FCF776FD00214DF20250CE
:1046F000FCF771FD34214DF20350FCF76CFD0021F5
:104700004DF20450FCF767FD3A214DF20550FCF7DD
:1047100062FD00214DF20650FCF75DFD4A214DF28D
:104720000750FCF758FD00214DF20850FCF753FDEF
:104730005C214DF20950FCF74EFD00214DF20A506C
:10474000FCF749FD81214DF20B50FCF744FD00219F
:104750004DF20C50FCF73FFDA6214DF20D50FCF739
:104760003AFD00214DF20E50FCF735FDE5214DF2EA
:104770000F50FCF730FD01214DF21050FCF72BFDDE
:1047800013214DF21150FCF726FD01214DF212507C
:10479000FCF721FD54214DF21350FCF71CFD0121C3
:1047A0004DF21450FCF717FD82214DF21550FCF725
:1047B00012FD01214DF21650FCF70DFDCA214DF2FC
:1047C0001750FCF708FD02214DF21850FCF703FDCD
:1047D00000214DF21950FCF7FEFC02214DF21A5057
:1047E000FCF7F9FC01214DF21B50FCF7F4FC02210F
:1047F0004DF21C50FCF7EFFC34214DF21D50FCF73C
:10480000EAFC02214DF21E50FCF7E5FC67214DF257
:104810001F50FCF7E0FC02214DF22050FCF7DBFCBE
:1048200084214DF22150FCF7D6FC02214DF222509A
:10483000FCF7D1FCA4214DF22350FCF7CCFC022163
:104840004DF22450FCF7C7FCB7214DF22550FCF780
:10485000C2FC02214DF22650FCF7BDFCCF214DF2E7
:104860002750FCF7B8FC02214DF22850FCF7B3FCAE
:10487000DE214DF22950FCF7AEFC02214DF22A5008
:10488000FCF7A9FCF2214DF22B50FCF7A4FC02210D
:104890004DF22C50FCF79FFCFE214DF22D50FCF701
:1048A0009AFC03214DF22E50FCF795FC10214DF29D
:1048B0002F50FCF790FC03214DF23050FCF78BFC9D
:1048C00033214DF23150FCF786FC03214DF232507A
:1048D000FCF781FC6D214DF23350FCF77CFC00218C
:1048E0004FF45640FCF777FC33214DF20160FCF7A2
:1048F00072FC00214DF20260FCF76DFC34214DF298
:104900000360FCF768FC00214DF20460FCF763FCD7
:104910003A214DF20560FCF75EFC00214DF2066085
:10492000FCF759FC4A214DF20760FCF754FC0021CA
:104930004DF20860FCF74FFC5C214DF20960FCF77A
:104940004AFC00214DF20A60FCF745FC81214DF242
:104950000B60FCF740FC00214DF20C60FCF73BFCC7
:10496000A6214DF20D60FCF736FC00214DF20E60E1
:10497000FCF731FCE5214DF20F60FCF72CFC012126
:104980004DF21060FCF727FC13214DF21160FCF78B
:1049900022FC01214DF21260FCF71DFC54214DF266
:1049A0001360FCF718FC01214DF21460FCF713FCB6
:1049B00082214DF21560FCF70EFC01214DF21660CC
:1049C000FCF709FCCA214DF21760FCF704FC022138
:1049D0004DF21860FCF7FFFB00214DF21960FCF767
:1049E000FAFB02214DF21A60FCF7F5FB01214DF2B2
:1049F0001B60FCF7F0FB02214DF21C60FCF7EBFBA7
:104A000034214DF21D60FCF7E6FB02214DF21E60E1
:104A1000FCF7E1FB67214DF21F60FCF7DCFB022194
:104A20004DF22060FCF7D7FB84214DF22160FCF7AA
:104A3000D2FB02214DF22260FCF7CDFBA4214DF206
:104A40002360FCF7C8FB02214DF22460FCF7C3FB96
:104A5000B7214DF22560FCF7BEFB02214DF2266026
:104A6000FCF7B9FBCF214DF22760FCF7B4FB022124
:104A70004DF22860FCF7AFFBDE214DF22960FCF718
:104A8000AAFB02214DF22A60FCF7A5FBF2214DF2B0
:104A90002B60FCF7A0FB02214DF22C60FCF79BFB86
:104AA000FE214DF22D60FCF796FB03214DF22E60A6
:104AB000FCF791FB10214DF22F60FCF78CFB0321DA
:104AC0004DF23060FCF787FB33214DF23160FCF78B
:104AD00082FB03214DF23260FCF77DFB6D214DF22C
:104AE0003360FCF778FB55214FF47040FCF773FB03
:104AF000AA214FF20100FCF76EFB52214FF2020097
:104B0000FCF769FB08214FF20300FCF764FB00216E
:104B10004FF20400FCF75FFBCC214FF43140FCF76F
:104B20005AFB00214BF20110FCF755FB05214FF415
:104B30003640FCF750FB70214FF43740FCF74BFB3D
:104B400070214BF20170FCF746FB01214FF4384015
:104B5000FCF741FB03214BF60100FCF73CFB032172
:104B60004BF60200FCF737FB03214BF60300FCF782
:104B700032FB02214FF43C40FCF72DFB00214BF6A9
:104B80000140FCF728FB00214BF60240FCF723FB19
:104B9000D0214FF44940FCF71EFB02214CF60110D6
:104BA000FCF719FB50214CF60210FCF714FB5021C6
:104BB0004CF60310FCF70FFB50214CF60410FCF7E9
:104BC0000AFB00214FF45450FCF705FB55214FF42C
:104BD0006850FCF700FB4FF48850FCF7AFFA7820E0
:104BE000FBF75BFD4FF42450FCF7A8FA01F0D6BBAD
:104BF000FE488088A0F5134125397DD147F6F001A4
:104C0000E520FCF7E8FA4FF480710120FCF7E3FAA5
:104C10004FF4E0610220FCF7DEFA41F2300103209C
:104C2000FCF7D9FA00210420FCF7D5FA40F2022162
:104C30000820FCF7D0FA00210920FCF7CCFA00216B
:104C40000A20FCF7C8FA00210C20FCF7C4FA002166
:104C50000D20FCF7C0FA00210F20FCF7BCFA002160
:104C60001020FCF7B8FA07211120FCF7B4FA002154
:104C70001220FCF7B0FA00211320FCF7ACFA002157
:104C80000720FCF7A8FA41F290611020FCF7A3FA84
:104C900040F227211120FCF79EFA9D211220FCF7FB
:104CA0009AFA4FF4C8511320FCF795FA25212920D0
:104CB000FCF791FA0D212B20FCF78DFA072130200B
:104CC000FCF789FA40F203313120FCF784FA032122
:104CD0003220FCF780FA40F206213520FCF77BFAFF
:104CE00008213620FCF777FA40F206413720FCF71E
:104CF00072FA4FF4417100E058E03820FCF76BFA8B
:104D000007213920FCF767FA40F202613C20FCF7EA
:104D100062FA08213D20FCF75EFA00215020FCF7E2
:104D20005AFAEF215120FCF756FA00215220FCF7E5
:104D300052FA40F23F115320FCF74DFA4FF427414D
:104D40006020FCF748FA01216120FCF744FA0021B9
:104D50006A20FCF740FA00218020FCF73CFA002191
:104D60008120FCF738FA00218220FCF734FA002178
:104D70008320FCF730FA00218420FCF72CFA002174
:104D80008520FCF728FA10219020FCF724FA4FF434
:104D9000C0619220FCF71FFA40F233110720FCF7A4
:104DA0001AFA22210020FCF716FA1FE78F488088A4
:104DB000A0F5134128397DD141F28F01EC20FCF799
:104DC0000AFA41F23421EF20FCF705FA4FF4807122
:104DD0000120FCF700FA4FF4E0610220FCF7FBF938
:104DE00041F230010320FCF7F6F900210420FCF722
:104DF000F2F940F202210820FCF7EDF90021092028
:104E0000FCF7E9F900210A20FCF7E5F901210C2063
:104E1000FCF7E1F900210D20FCF7DDF900210F205E
:104E2000FCF7D9F900211020FCF7D5F90721112052
:104E3000FCF7D1F900211220FCF7CDF90021132055
:104E4000FCF7C9F901210720FCF7C5F93220FBF76F
:104E500047FC41F290411020FCF7BDF940F22721B8
:104E60001120FCF7B8F93220FBF73AFC8A21122016
:104E7000FCF7B1F93220FBF733FC4FF4D05113208B
:104E8000FCF7A9F906212920FCF7A5F90D212B2013
:104E9000FCF7A1F93220FBF723FC00212020FCF7CE
:104EA0009AF900212120FCF796F93220FBF718FC33
:104EB000002100E075E03020FCF78DF940F204613C
:104EC0003120FCF788F940F205313220FCF783F9F4
:104ED00000213520FCF77FF940F609413620FCF728
:104EE0007AF94FF401713720FCF775F940F201317E
:104EF0003820FCF770F940F207713920FCF76BF9A4
:104F000000213C20FCF767F940F60A213D20FCF720
:104F100062F93220FBF7E4FB00215020FCF75BF93B
:104F2000EF215120FCF757F900215220FCF753F9EB
:104F300040F23F115320FCF74EF94FF42741602017
:104F4000FCF749F901216120FCF745F900216A20AD
:104F5000FCF741F900218020FCF73DF90021812078
:104F6000FCF739F900218220FCF735F90021832074
:104F7000FCF731F900218420FCF72DF90021852070
:104F8000FCF729F910219020FCF725F94FF4C061B6
:104F90009220FCF720F940F233110720FCF71BF9AF
:104FA00024E612488088A0F5134120397ED10846B6
:104FB000FCF711F94FF480710120FCF70CF94FF464
:104FC000E0610220FCF707F941F230010320FCF711
:104FD00002F900210420FCF7FEF840F2022108202B
:104FE000FCF7F9F80021092002E000008C04002001
:104FF000FCF7F1F800210A20FCF7EDF801210C2064
:10500000FCF7E9F800210D20FCF7E5F800210F205E
:10501000FCF7E1F83220FBF763FB40F201110720B7
:10502000FCF7D9F83220FBF75BFB4FF486511020D8
:10503000FCF7D1F807211120FCF7CDF84FF4887167
:105040001220FCF7C8F84FF430611320FCF7C3F8C6
:1050500000212920FCF7BFF844F210012B20FCF7B7
:10506000BAF800215020FCF7B6F8EF215120FCF7E8
:10507000B2F800215220FCF7AEF840F23F11532065
:10508000FCF7A9F84FF41C516020FCF7A4F80121AB
:105090006120FCF7A0F800216A20FCF79CF80021B1
:1050A0008020FCF798F80021812000E030E0FCF738
:1050B00092F800218220FCF78EF800218320FCF773
:1050C0008AF800218420FCF786F800218520FCF76F
:1050D00082F810219020FCF77EF800219220FCF746
:1050E0007AF801219320FCF776F84FF48871952027
:1050F000FCF771F800219720FCF76DF8002198204B
:10510000FCF769F840F273110720FCF764F86DE5CD
:10511000FE488088A0F5134131397DD141F2140158
:10512000E720FCF758F84FF480710120FCF753F8A2
:105130004FF400710220FCF74EF841F238010320D1
:10514000FCF749F840F202210820FCF744F800215E
:105150000920FCF740F800210A20FCF73CF8002168
:105160000C20FCF738F800210D20FCF734F8002162
:105170000F20FCF730F800211020FCF72CF8072155
:105180001120FCF728F800211220FCF724F8002158
:105190001320FCF720F8C820FBF7A2FA41F2906137
:1051A0001020FCF718F840F227211120FCF713F823
:1051B0003220FBF795FA0C211220FCF70CF8322074
:1051C000FBF78EFA4FF400611320FCF704F811216D
:1051D0002920FCF700F80B212B20FBF7FCFF3220E5
:1051E000FBF77EFA00212020FBF7F5FF40F23F118C
:1051F0002120FBF7F0FF00213020FBF7ECFF4FF4FC
:1052000083713120FBF7E7FF00213220FBF7E3FF3A
:105210004FF40171352000E064E0FBF7DCFF41F260
:105220000A613620FBF7D7FF40F207713720FBF702
:10523000D2FF4FF483713820FBF7CDFF40F20771A6
:105240003920FBF7C8FF40F202413C20FBF7C3FFC7
:1052500040F60F413D20FBF7BEFF00215020FBF739
:10526000BAFFEF215120FBF7B6FF00215220FBF7D8
:10527000B2FF40F23F115320FBF7ADFF4FF41C513A
:105280006020FBF7A8FF01216120FBF7A4FF0021AC
:105290006A20FBF7A0FF00218020FBF79CFF002184
:1052A0008120FBF798FF00218220FBF794FF00216B
:1052B0008320FBF790FF00218420FBF78CFF002167
:1052C0008520FBF788FF10219020FBF784FF4FF427
:1052D000C0619220FBF77FFF40F233110720FBF7FC
:1052E0007AFF83E489488088A0F5A84108397DD1F8
:1052F0004FF480710120FBF76EFF4FF4E061022054
:10530000FBF769FF41F230010320FBF764FF002146
:105310000420FBF760FF40F207210820FBF75BFF4A
:1053200000210920FBF757FF00210A20FBF753FF5C
:1053300000210C20FBF74FFF00210D20FBF74BFF56
:1053400000210F20FBF747FF1420FBF7C9F941F2BA
:10535000B0611020FBF73FFF01211120FBF73BFF5D
:1053600001211720FBF737FF4FF49C711220FBF748
:1053700032FF4FF400611320FBF72DFF0921292094
:10538000FBF729FF09212A20FBF725FF0021A42094
:10539000FBF721FF00215020FBF71DFFEF215120DB
:1053A000FBF719FF00215220FBF715FF40F23F11D8
:1053B0005320FBF710FF4FF41C516020FBF70BFF4D
:1053C00001216120FBF707FF00216A20FBF703FFA3
:1053D00000218020FBF7FFFE00218120FBF7FBFE70
:1053E00000218220FBF7F7FE002100E024E083206B
:1053F000FBF7F1FE00218420FBF7EDFE0021852064
:10540000FBF7E9FE13219020FBF7E5FE0021922037
:10541000FBF7E1FE03219320FBF7DDFE4FF48871DB
:105420009520FBF7D8FE40F273110720FBF7D3FE5F
:105430003220FBF755F9B8E434488088A0F5A8512C
:10544000053965D10720FBF7C6FE3220FBF748F986
:105450004FF48E711220FBF7BEFE0121A420FBF752
:10546000BAFE0F210820FBF7B6FE08210A20FBF741
:10547000B2FE08210D20FBF7AEFE40F2077130208E
:10548000FBF7A9FE07213120FBF7A5FE40F20361DF
:105490003220FBF7A0FE4FF4E0613320FBF79BFEC8
:1054A00040F202213420FBF796FE02213520FBF763
:1054B00092FE41F60F713620FBF78DFE40F2077128
:1054C0003720FBF788FE00213820FBF784FE0021FF
:1054D0003920FBF780FE40F207713A20FBF77BFE94
:1054E00000213B20FBF777FE07213C20FBF773FEF2
:1054F00000213D20FBF76FFE3220FBF7F1F8012180
:105500000720FBF768FE0121172002E08C04002031
:10551000AEE0FBF760FE3220FBF7E2F84FF4BD513E
:105520001020FBF758FE40F217211120FBF753FE25
:105530004FF48F711220FBF74EFE4FF47061132071
:10554000FBF749FE00212A20FBF745FE0A2129200E
:10555000FBF741FE4FF49F711220FBF73CFE002148
:105560005020FBF738FEEF215120FBF734FE0021DD
:105570005220FBF730FE40F23F115320FBF72BFE89
:105580004FF41C516020FBF726FE01216120FBF740
:1055900022FE00216A20FBF71EFE00218020FBF77F
:1055A0001AFE00218120FBF716FE00218220FBF766
:1055B00012FE00218320FBF70EFE00218420FBF762
:1055C0000AFE00218520FBF706FE13219020FBF741
:1055D00002FE4FF440719220FBF7FDFD0521932060
:1055E000FBF7F9FD00219520FBF7F5FD0021972041
:1055F000FBF7F1FD00219820FBF7EDFD4FF48071E2
:105600000120FBF7E8FD4FF4E0610220FBF7E3FD2A
:1056100041F238010320FBF7DEFD00210420FBF7F7
:10562000DAFD00210C20FBF7D6FD00210F20FBF74F
:10563000D2FD00212020FBF7CEFD00212120FBF729
:10564000CAFD21210720FBF7C6FD1420FBF748F80F
:1056500061210720FBF7BFFD1420FBF741F840F262
:1056600073110720FBF7B7FD1420FBF739F897E417
:10567000FE488088A0F5354105397DD10846FBF705
:10568000AAFD00210846FBF7A6FD00210846FBF70E
:10569000A2FD00210846FBF79EFD0121A420FBF797
:1056A0009AFD1420FBF71CF84FF41C516020FBF707
:1056B00092FD40F202210820FBF78DFD4FF40571A9
:1056C0003020FBF788FD43F215713120FBF783FD95
:1056D00040F204613220FBF77EFD40F61661332074
:1056E000FBF779FD42F211213420FBF774FD4FF4F2
:1056F000A8513520FBF76FFD48F207513620FBF724
:105700006AFD41F207413720FBF765FD41F2034195
:105710003820FBF760FD20213920FBF75CFD1A21C2
:105720009020FBF758FD00211020FBF754FD0721C6
:105730001120FBF750FD00211220FBF74CFD00214A
:105740001320FBF748FD1420FAF7CAFF4FF4E66177
:105750001020FBF740FD40F237111120FBF73BFD15
:105760001420FAF7BDFF4FF4DC711220FBF733FD74
:105770001420FAF7B5FF00E083E04FF470611320C6
:10578000FBF729FD80212A20FBF725FD4821292050
:10579000FBF721FD1420FAF7A3FF4FF480710120DD
:1057A000FBF719FD4FF4E0610220FBF714FD41F215
:1057B00038010320FBF70FFD40F202210820FBF720
:1057C0000AFD00210A20FBF706FD00210C20FBF753
:1057D00002FD00210D20FBF7FEFC30210E20FBF71F
:1057E000FAFC00215020FBF7F6FCEF215120FBF7DB
:1057F000F2FC00215220FBF7EEFC40F23F11532057
:10580000FBF7E9FC4FF41C516020FBF7E4FC01219D
:105810006120FBF7E0FC00216A20FBF7DCFC112192
:105820009020FBF7D8FC4FF4C0619220FBF7D3FC2B
:1058300040F202419320FBF7CEFC02219420FBF7BB
:10584000CAFC1420FAF74CFF01210720FBF7C3FC28
:105850001420FAF745FF61210720FBF7BCFC40F25A
:1058600073110720FBF7B7FC00212020FBF7B3FCE6
:1058700000212120FBF7AFFC22210020FBF7ABFC2D
:1058800045E47A488088A0F5454105397DD1084630
:10589000FBF7A1FC00210846FBF79DFC1420FAF75A
:1058A0001FFF00210846FBF796FC00210846FBF786
:1058B00092FC00210846FBF78EFC00210846FBF70E
:1058C0008AFC0121A420FBF786FC1420FAF708FFCC
:1058D0004FF41C516020FBF77EFC40F606010820C7
:1058E000FBF779FC40F203713020FBF774FC0121D7
:1058F0003120FBF770FC04213220FBF76CFC4FF4E5
:1059000081713320FBF767FC4FF440713420FBF7C3
:1059100062FC40F203113520FBF75DFC1F213620AD
:10592000FBF759FC40F203713720FBF754FC0121CF
:105930003820FBF750FC04213920FBF74CFC1521E3
:105940009020FBF748FC4FF482611020FBF743FCEA
:1059500040F247211120FBF73EFC4FF4DE7112208C
:10596000FBF739FC4FF460611320FBF734FC78201F
:10597000FAF7B6FE4FF480710120FBF72CFC4FF4D0
:1059800000710220FBF727FC00E050E041F23001FB
:105990000320FBF720FC08210A20FBF71CFC002158
:1059A0000C20FBF718FC20210E20FBF714FC002133
:1059B0000F20FBF710FC00212020FBF70CFC00213E
:1059C0002120FBF708FC3D212A20FBF704FC1420D2
:1059D000FAF786FE2D212920FBF7FDFB0021502040
:1059E000FBF7F9FB4DF2EF015120FBF7F4FB00212F
:1059F0005220FBF7F0FB40F23F115320FBF7EBFB8B
:105A000000216120FBF7E7FB00216A20FBF7E3FBA5
:105A10004FF440719220FBF7DEFB05219320FBF74A
:105A2000DAFB4FF480710720FBF7D5FB59E40F48F0
:105A30008088A0F5094189397ED101210020FBF73A
:105A4000CAFB4AF6A4010320FBF7C5FB00210C208A
:105A5000FBF7C1FB40F60C010D20FBF7BCFB4FF43C
:105A60002C510E20FBF7B7FBB02101E08C04002085
:105A70001E20FBF7B0FB42F63F310120FBF7ABFBEA
:105A80004FF4C0610220FBF7A6FB00211020FBF7BA
:105A9000A2FB46F278011120FBF79DFB00210520B7
:105AA000FBF799FB00210620FBF795FB4EF61C71D6
:105AB0001620FBF790FB03211720FBF78CFB40F22D
:105AC00033210720FBF787FB00210B20FBF783FB2B
:105AD00000210F20FBF77FFB00214120FBF77BFB20
