:020000040800F2
:1000000088060020A104000801020008030200087D
:10001000070200080B0200080F02000800000000A1
:1000200000000000000000000000000013020008B3
:10003000150200080000000017020008190200085D
:10004000BB040008BB040008BB040008BB04000894
:10005000BB040008BB040008BB040008BB04000884
:10006000BB040008BB040008BB040008BB04000874
:10007000BB040008BB040008BB040008BB04000864
:10008000BB040008BB040008BB040008BB04000854
:10009000BB040008BB040008BB040008BB04000844
:1000A000BB040008BB040008BB040008BB04000834
:1000B000BB040008BB040008BB040008BB04000824
:1000C000BB040008BB040008BB040008BB04000814
:1000D000BB040008BB040008BB040008BB04000804
:1000E000BB040008BB040008BB04000800F002F8D1
:1000F00000F03AF80AA090E8000C82448344AAF188
:100100000107DA4501D100F02FF8AFF2090EBAE885
:100110000F0013F0010F18BFFB1A43F0010318473B
:10012000940C0000B40C0000103A24BF78C878C1C9
:10013000FAD8520724BF30C830C144BF04680C60ED
:10014000704700000023002400250026103A28BF35
:1001500078C1FBD8520728BF30C148BF0B60704739
:100160001FB51FBD10B510BD00F0EDFD1146FFF726
:10017000F7FF00F017F800F00BFE03B4FFF7F2FFF3
:1001800003BC00F00FFE00000146642206E0642379
:1001900000E05B1CB3F57A7FFBD3521C8A42F6D396
:1001A0000020704708B50121082000F064FD0320FD
:1001B000ADF8000010208DF8030003208DF8020038
:1001C00069460E4800F0ECF917E001210B4800F0F9
:1001D00096FA0221094800F090FA42F21070FFF7F7
:1001E000D3FF0121054800F088FA0221034800F0FE
:1001F00086FA42F21070FFF7C7FFE6E7000C0140F5
:10020000704700BFFEE700BFFEE700BFFEE700BF8C
:10021000FEE7704770477047704700000CB500203C
:10022000019000909248006840F480309049086046
:1002300000BF8F48006800F4003000900198401C17
:100240000190009818B90198B0F5A06FF1D18848D5
:10025000006800F4003010B10120009001E000209F
:100260000090009801285CD18248006840F010009E
:10027000804908600846006820F0030008600846CE
:10028000006840F00200086079484068784948609A
:100290000846406848600846406840F4806048600E
:1002A0000846C06A744908407149C8620846C06A75
:1002B000724908436E49C8620846006840F0806091
:1002C000086000BF6A48006800F000600028F9D0AC
:1002D0006748406820F47C106549486008464068DB
:1002E00040F4E81048600846006840F080700860FC
:1002F00000BF5F48006800F000700028F9D05C483B
:10030000406820F003005A4948600846406840F0C1
:100310000200486000BF5648406800F00C00082802
:10032000F9D10CBD10B5FFF779FF10BD10B55048DD
:10033000006840F001004E49086008464068504996
:1003400008404B494860084600684E490840484903
:1003500008600846006820F480200860084640686D
:1003600020F4FE0048600846006820F0A0500860B5
:100370004FF47F0088600020C862FFF7D3FF4FF082
:1003800000604149086010BDF0B500210020002345
:100390000024002200250026354F7F6807F00C015D
:1003A00021B1042908D008294BD10BE0374FDFF8E1
:1003B000E0C0CCF800704AE0364FDFF8D4C0CCF88B
:1003C000007044E02A4F7F6807F47010284F7F6860
:1003D00007F48033800C0D2801D0801C00E006203B
:1003E00033B92D4F4743DFF8A8C0CCF8007027E0A1
:1003F0001F4FFF6A07F480341D4FFF6A07F00F0795
:100400007A1C44B9234FB7FBF2F74743DFF880C0AB
:10041000CCF8007014E0164FFF6AC7F303177D1C79
:10042000134FFF6AC7F30327BE1C1A4FB7FBF5F73C
:100430007743B7FBF2F74743DFF854C0CCF80070BE
:1004400005E0124FDFF848C0CCF8007000BF00BFD5
:10045000074F7F68C7F30317DFF840C01CF8071089
:100460000B4F3F68CF40DFF828C0CCF80070F0BDDC
:10047000001002400020024000F0FEFF4406010090
:100480000000FFF0FFFFF6FE08ED00E000127A002A
:100490000000002040787D0100093D00040000209C
:1004A0000948804709480047FEE7FEE7FEE7FEE708
:1004B000FEE7FEE7FEE7FEE7FEE7FEE70448054944
:1004C000054A064B704700002D030008ED000008A8
:1004D0008800002088060020880200208802002072
:1004E00010B50446CC48844208D10121042000F014
:1004F000E9FB0021042000F0E5FB46E0C748844208
:1005000008D10121082000F0DDFB0021082000F0C7
:10051000D9FB3AE0C248844208D10121102000F002
:10052000D1FB0021102000F0CDFB2EE0BD4884421D
:1005300008D10121202000F0C5FB0021202000F07F
:10054000C1FB22E0B848844208D10121402000F0DC
:10055000B9FB0021402000F0B5FB16E0B34884420F
:1005600008D10121802000F0ADFB0021802000F0A7
:10057000A9FB0AE0AE48844207D10121801500F0B2
:10058000A1FB0021A01500F09DFB10BD10B50121BD
:10059000084600F097FB0021012000F093FB10BDFE
:1005A0002DE9F0410246002500260020002300240A
:1005B000002791F803C00CF00F0591F803C00CF070
:1005C000100CBCF1000F03D091F802C04CEA0505F5
:1005D00091F800C0BCF1000F31D0146800202BE06E
:1005E0004FF0010C0CFA00F3B1F800C00CEA03065E
:1005F0009E4220D183004FF00F0C0CFA03F7BC434E
:1006000005FA03FC4CEA040491F803C0BCF1280F7E
:1006100006D14FF0010C0CFA00FCC2F814C00AE03D
:1006200091F803C0BCF1480F05D14FF0010C0CFA52
:1006300000FCC2F810C0401C0828D1D31460B1F8E7
:1006400000C0BCF1FF0F34DD546800202EE000F143
:10065000080C4FF0010808FA0CF3B1F800C00CEADE
:1006600003069E4221D183004FF00F0C0CFA03F7D2
:10067000BC4305FA03FC4CEA040491F803C0BCF146
:10068000280F05D100F1080C08FA0CF8C2F8148004
:1006900091F803C0BCF1480F07D100F1080C4FF0EE
:1006A000010808FA0CF8C2F81080401C0828CED3C4
:1006B0005460BDE8F0814FF6FF7101800221817026
:1006C0000421C17070470246002093680B400BB1B3
:1006D000012000E0002070470146886880B2704722
:1006E00002460020D3680B400BB1012000E000203F
:1006F00070470146C86880B2704701617047416128
:1007000070470AB1016100E041617047C160704704
:100710004FF480320A438261816182618269826919
:10072000704702460020434B18684FF6807318400C
:1007300040EA021008433F4B186070473E49C861C9
:100740007047F0B50A46002300240021002500F080
:100750000046B6F1004F02D1364EF16901E0354E48
:100760007168C0F3034583B200F44016B6F5401F2C
:1007700008D121F070612F4E766826F070662D4FFB
:100780007E6012E000F48016B6F5801F06D10326C5
:1007900006FA05F4A14341F0706106E0460D36010A
:1007A00003FA06F6B14341F0706122B1460D3601FD
:1007B00003FA06F6314300F00046B6F1004F02D1CD
:1007C0001C4EF16101E01B4E7160F0BD30B500229E
:1007D0008B071C0F0F2303FA04F2164B08338C10FF
:1007E00053F824309343134C08348D1044F82530CB
:1007F00023468C1053F824308C07240F00FA04F49D
:1008000023430C4C08348D1044F8253030BD0A4980
:10081000DC3108607047000000080140000C014016
:10082000001001400014014000180140001C01406C
:10083000002001400000014000002042FB48006809
:1008400040F00100F949086008464068F84908404E
:10085000F649486008460068F6490840F3490860D0
:100860000846006820F4802008600846406820F4AC
:10087000FE0048600846006820F0A05008604FF471
:100880007F0088600020C8627047E849096821F449
:100890008031E64A11601146096821F48021116017
:1008A000B0F5803F03D0B0F5802F0ED106E0DF49D0
:1008B000096841F48031DD4A116007E0DB490968CD
:1008C00041F4A021D94A116000E000BF00BF704789
:1008D00010B501460022002300204A11012A02D14E
:1008E000D24C236806E0022A02D1D04C236A01E0F0
:1008F000CE4C636A01F01F02012494401C400CB1ED
:10090000012000E0002010BD38B500200090002438
:10091000002500BF3120FFF7DBFF05460098401C93
:1009200000900098B0F5A06F01D0002DF2D03120DA
:10093000FFF7CEFF08B1012400E00024204638BDB7
:1009400001460020B94A106820F0F80040EAC100D2
:1009500010607047B8490860704702460020B34BEA
:10096000586820F4741042EA01031843AF4B5860F2
:100970007047B1490866704702460020AB4BD86A01
:10098000AE4B184042EA01031843A84BD8627047A7
:1009900001460020A54AD06A20F0F0000843D0624A
:1009A000704701460020A14AD06A20F470600843D5
:1009B000D0627047A04988667047014600209B4A74
:1009C000D06A20F470400843D06270479A490867A3
:1009D000704701460020954A506820F00300084304
:1009E000506070479148406800F00C007047014625
:1009F00000208E4A506820F0F00008435060704795
:100A000001460020894A506820F4E06008435060A5
:100A1000704701460020854A506820F4605040EA43
:100A2000C1005060704729B1804A527A02437F4B1F
:100A30005A7204E07D4A527A82437C4B5A72704764
:100A40007D49D8310860704701460020774A5068D8
:100A500020F440400843506070477949086070476F
:100A60007749091D086070470021704A20321170D3
:100A70006E4A82F82010012802D004280AD104E02E
:100A800001216A4A2032117005E00521674A2032AF
:100A9000117000E000BF00BF70476A4908607047EE
:100AA0006249096A0143614A1162704765494439E4
:100AB000086070472DE9F041002100220025002345
:100AC0000026002400278C46DFF86081D8F80480D7
:100AD00008F00C0121B1042907D0082959D109E0F7
:100AE000DFF86481C0F8008058E0DFF86081C0F86A
:100AF000008053E0DFF83481D8F8048008F47012E5
:100B0000DFF82881D8F8048008F48035920C0D2A8B
:100B100001D0921C00E0062235B9DFF8348102FBD7
:100B200008F8C0F8008033E0DFF80081D8F82C80A6
:100B300008F48036DFF8F480D8F82C8008F00F082D
:100B400008F1010446B9DFF80481B8FBF4F808FBAA
:100B500002F8C0F800801BE0DFF8D080D8F82C80C5
:100B6000C8F3031808F10107DFF8C080D8F82C801B
:100B7000C8F3032808F1020CDFF8D080B8FBF7F8BF
:100B800008FB0CF8B8FBF4F808FB02F8C0F800808A
:100B900004E0DFF8B480C0F8008000BF00BFDFF8D9
:100BA0008C80D8F8048008F0F0010909DFF8A480EF
:100BB00018F80130D0F8008028FA03F8C0F8048053
:100BC000DFF86880D8F8048008F4E061090ADFF8EB
:100BD000848018F80130D0F8048028FA03F8C0F8AF
:100BE0000880DFF84880D8F8048008F46051C90A0A
:100BF000DFF8608018F80130D0F8048028FA03F894
:100C0000C0F80C80DFF82480D8F8048008F4404154
:100C1000890BDFF8448018F80130D0F80C80B8FB5D
:100C2000F3F8C0F81080BDE8F08100000010024029
:100C30000000FFF0FFFFF6FE00004242F0FFFEFF63
:100C4000C40542428004424200127A0040787D018D
:100C500000093D00140000202400002029B1354A7D
:100C600052690243334B5A6104E0324A526982436B
:100C7000304B5A61704729B12E4A926902432D4B7D
:100C80009A6104E02B4A926982432A4B9A61704729
:100C900029B1284AD2690243264BDA6104E0254A89
:100CA000D2698243234BDA61704729B1214A926AA3
:100CB0000243204B9A6204E01E4A926A82431D4B13
:100CC0009A62704729B11B4AD2680243194BDA6015
:100CD00004E0184AD2688243164BDA60704729B1A3
:100CE000144A12690243134B1A6104E0114A126953
:100CF0008243104B1A6170470F49086070470F49D3
:100D0000C86470470B49C87170470A48406A40F090
:100D1000807008494862704701460020054A926881
:100D20000A400AB1012000E00020704701498872A2
:100D3000704700000010024040044242000042425E
:100D4000704770477047754600F028F8AE460500BA
:100D50006946534620F00700854618B020B5FFF7D6
:100D6000ADFBBDE820404FF000064FF000074FF00C
:100D700000084FF0000B21F00701AC46ACE8C009B9
:100D8000ACE8C009ACE8C009ACE8C0098D467047C2
:100D90000446AFF300802046FFF7EFF900487047A4
:100DA0002800002001491820ABBEFEE72600020003
:100DB00070470000D40D000800000020280000004B
:100DC00028010008FC0D0008280000206006000033
:100DD0004401000800A24A040000000000000000D6
:100DE00001020304060708090000000001020304D1
:0C0DF000010203040607080902040608BB
:04000005080000ED02
:00000001FF
