:020000040800F2
:100000006807002001050008090300080B03000829
:100010000F03000813030008170300080000000086
:100020000000000000000000000000001B030008AA
:100030001D030008000000001F0300082103000842
:100040001B0500081B0500081B0500081B05000810
:100050001B0500081B0500081B0500081B05000800
:100060001B0500081B0500081B0500081B050008F0
:100070001B0500081B0500081B0500081B050008E0
:100080001B0500081B0500081B0500081B050008D0
:100090001B0500081B0500081B0500081B050008C0
:1000A0001B0500081B0500081B0500081B050008B0
:1000B0001B0500081B0500081B0500081B050008A0
:1000C0001B0500081B0500081B0500081B05000890
:1000D0001B050008A72F00081B0500081B050008CA
:1000E0001B0500081B0500081B05000800F002F8AE
:1000F00000F03FF80AA090E8000C82448344AAF183
:100100000107DA4501D100F034F8AFF2090EBAE880
:100110000F0013F0010F18BFFB1A43F0010318473B
:10012000BC4B0000DC4B0000103A24BF78C878C1FB
:10013000FAD8520724BF30C830C144BF04680C60ED
:10014000704700000023002400250026103A28BF35
:1001500078C1FBD8520728BF30C148BF0B60704739
:10016000782903F01D87002070471FB51FBD10B50B
:1001700010BD03F0D1FF1146FFF7F7FF00F008F8BC
:1001800003F0EFFF03B4FFF7F2FF03BC02F0AEFE93
:100190008AB0002400F0D4F902F040FE4FF416506B
:1001A00002F0B2FE00F0DFFC02F03AFC4FF47840BF
:1001B0002F4908802FA232213C2002F003FC30A2FC
:1001C00046213C2002F0FEFB31A25A213C2002F0E5
:1001D000F9FB33A26E213C2002F0F4FB13E033A2C2
:1001E00082213C2002F0EEFB4FF4FA7002F052FE46
:1001F00033A282213C2002F0E5FB4FF4FA7002F0BA
:1002000049FE00F0B0F902F089FC0028E7D131A2E4
:1002100082213C2002F0D6FB1F201549088025E0F2
:1002200030A296213C2002F0CDFB33A2AA213C2033
:1002300002F0C8FB02F006FD17E001A802F0E5FCA1
:1002400038B900208DF8240001AABE2102F0BAFBC3
:1002500002E0642002F0FBFD601C84B2A4F51C5097
:10026000103802D1002400F07EF9E6E7D8E700005C
:10027000140000204D696E692053544D3332000044
:100280004E524632344C3031205445535400000015
:1002900041544F4D40414C49454E54454B000000A0
:1002A000323031312F312F310000000032344C30E8
:1002B0003120436865636B204661696C6564210089
:1002C000506C6561736520436865636B2120202055
:1002D0002020200032344C30312052656164792175
:1002E000000000004E524632344C30312052585FEC
:1002F0004D6F646500000000526563656976656452
:1003000020444154413A0000704700BFFEE700BF5F
:10031000FEE700BFFEE700BFFEE77047704770478B
:10032000704700000CB50020019000906B480068F9
:1003300040F480306949086000BF6848006800F4F4
:10034000003000900198401C0190009818B9019865
:10035000B0F5A06FF1D16148006810F4003F02D001
:100360000120009001E0002000900098012842D177
:100370005B48006840F01000594908600846006872
:1003800020F0030008600846006840F002000860A2
:1003900052484068514948600846406848600846ED
:1003A000406840F4806048600846406820F47C1053
:1003B00048600846406840F4E81048600846006815
:1003C00040F08070086000BF4448006810F0007F73
:1003D000FAD04248406820F003004049486008468F
:1003E000406840F00200486000BF3C48406800F0B0
:1003F0000C000828F9D10CBD10B5FFF793FF10BD14
:1004000010B53648006840F00100344908600846DD
:10041000406834490840314948600846006832491C
:1004200008402E4908600846006820F480200860D3
:100430000846406820F4FE0048604FF41F008860C2
:10044000FFF7DAFF4FF000602849086010BD10B5D3
:10045000002100200022214B5B6803F00C0121B138
:10046000042906D0082928D107E0214B214C23601C
:1004700027E01F4B1F4C236023E0184B5B6803F4FD
:100480007010164B5B6803F48032022303EB90403C
:1004900022B9194B4343174C23600DE00F4B5B68A7
:1004A00013F4003F04D0144B4343124C236003E089
:1004B0000F4B43430F4C236003E00D4B0D4C236067
:1004C00000BF00BF054B5B68C3F303130B4CE15C3B
:1004D000084B1B68CB40074C236010BD0010024046
:1004E000002002400000FFF8FFFFF6FE08ED00E0EC
:1004F00000127A000000002000093D0004000020E6
:100500000948804709480047FEE7FEE7FEE7FEE7A7
:10051000FEE7FEE7FEE7FEE7FEE7FEE704480549E3
:10052000054A064B7047000001040008ED00000872
:10053000680100206807002068030020680300208D
:1005400008B50121082003F0F7F80320ADF80000FA
:1005500010208DF8030003208DF8020069461D4825
:1005600002F034FE08BD10B501211A4802F0DBFE8E
:100570000221184802F0D5FE4FF4FA7002F08AFC0E
:100580000121144802F0CDFE0221124802F0CBFEF8
:100590004FF4FA7002F07EFC10BD10B501210D4839
:1005A00002F0BFFE02210B4802F0BBFE4FF4FA70CE
:1005B00002F070FC10BD10B50121064802F0B3FE38
:1005C0000221044802F0AFFE4FF4FA7002F062FC20
:1005D00010BD0000000C01404FF48071FE4A5161D3
:1005E00049005161FD490860891451611161C910C8
:1005F0001161704710B54FF08830F8490C39086028
:10060000091D08600020F54908608815F249086155
:100610004000486180004861F1480088A0F5094128
:10062000893902D1022002F012FC4FF40060EA493D
:100630000861EA48001F006884B2481508614FF05D
:100640003330E6490C390860091D08604FF6FF7029
:10065000E2490860204610BD10B504460B4620460E
:10066000FFF7BAFF4FF48070DB4908614000486132
:10067000DA480360801448610861C010086110BD49
:1006800010B504462046FFF7A7FFFFF7B3FF10BDE4
:1006900000B5D3480088A0F51341413903D12C207F
:1006A000FFF79AFF02E02220FFF796FF00BD4FF40C
:1006B0008071C94A116149005161C84908608914B3
:1006C00051611161C9101161704730B5014601F0E7
:1006D0001F04C1F34513CA0AE50205EB431515448F
:1006E000A8B230BD2DE9F04105460E46F02D02DAE4
:1006F000B6F5A07F02DB0020BDE8F0813146284638
:1007000003F03AFDB6480088A0F51341413903D102
:100710002E20FFF761FF02E02220FFF75DFF4FF080
:100720008830AE490C390860091D08604FF6FF702B
:10073000AA4908608815A8490861400048618000FE
:10074000486108614861A6480088A0F509418939D7
:1007500002D1022002F07BFB4FF400609E49086149
:100760009E48001F006884B29D480088A0F5134190
:1007700041390ED14FF400609749486108619748AC
:10078000001F00681FFA80F8E7B24FF6FF7000EA1A
:1007900007274FF40070904908614FF033308F49BC
:1007A0000C390860091D08604FF6FF708B4908601E
:1007B0008B480088A0F58A41353911D088480088D7
:1007C000A0F58A4131390BD085480088A0F5094150
:1007D000893905D082480088A0F53541053901D115
:1007E000204689E77E480088A0F51341413907D1AA
:1007F000E012C002B91240EA411040EAE8207BE76B
:100800002046FFF762FF77E700B575480088A0F53E
:100810001341413903D12920FFF7DEFE04E040F205
:1008200073110720FFF718FF00BD00B56C48008862
:10083000A0F51341413903D12820FFF7CDFE03E095
:1008400000210720FFF708FF00BD70B50546002412
:10085000002663480088A0F5134141397ED1082D58
:100860001CD2DFE805F00406090C0F12151800BFB2
:1008700014E044F0800411E044F040040EE044F041
:10088000C0040BE044F0200408E044F0600405E0FC
:1008900044F0A00402E044F0E00400BF00BF3626AC
:1008A00044F0080421463046FFF7D6FE14F0200F2E
:1008B00075D02A20FFF790FE4FF4807046490861FA
:1008C0004000486100204549086088144249486159
:1008D0000861C010086140100861400048610020B4
:1008E0003E49086088143C4948610861C0100861AD
:1008F0004010086140004861012038490860000349
:10090000354948610861C010086140100861400025
:1009100048613F203149086088142F4948610861C7
:10092000C01008612B20FFF757FE4FF480702A4952
:100930000861400048610020284908608814264961
:1009400048610861C01008614010086140004861BA
:1009500000202249086088141F4900E099E048619E
:100960000861C01008614010086140004861002023
:100970001A4908608814184948610861C010086164
:100980004010086140004861EF2014490860881455
:10099000114948610861C0100861ACE0FFE72A20F6
:1009A000FFF71AFE4FF480700B4908614000486160
:1009B00000200A4908608814074948610861C0108E
:1009C0000861401008614000486100200349086048
:1009D00088140149486105E0001001400C180140ED
:1009E000180000200861C010086140100861400034
:1009F00048610020FE4908608814FE49486108618A
:100A0000C01008614010086140004861EF20F849BB
:100A100008608814F74948610861C01008612B20FC
:100A2000FFF7DAFD4FF48070F24908614000486139
:100A30000020EF4908608814EE4948610861C01041
:100A4000086140100861400048610020E8490860E2
:100A50008814E84948610861C010086140100861C5
:100A6000400048610120E24908600003E149486113
:100A70000861C010086140100861400048613F20D3
:100A8000DB4908608814DB4948610861C0100861CF
:100A900031E0082D1CD2DFE805F004070A0D0F1223
:100AA000151844F0300413E044F0100410E044F052
:100AB00020040DE000BF0BE044F0380408E044F0EF
:100AC000280405E044F0180402E044F0080400BFE4
:100AD00000BFC9480088A0F50941893904D1112611
:100AE00046F24000044302E0032644F480542146C9
:100AF0003046FFF7B1FD70BD70B504460D4629467E
:100B0000204603F039FBFFF7C3FD4FF48070B9496D
:100B1000086140004861B9480088B54908608814F8
:100B2000B44948610861C010086170BD70B50446E1
:100B300000250021084603F01FFBFFF7A9FD00BFB9
:100B40000DE04FF48070AB49086140004861A8484F
:100B50000460801448610861C01008616D1CB5F51F
:100B6000963FEED370BD08B50121512002F0E4FD9F
:100B70000121A34802F0F9FB4FF4F850ADF8000052
:100B800010208DF8030003208DF802006946994873
:100B900002F01CFB4FF4F851964802F0C2FB4FF6EE
:100BA000FF70ADF80000694691480C3802F00EFB6A
:100BB0004FF6FF718E480C3802F0B3FB322002F082
:100BC00069F901210020FFF747FD322002F062F9A8
:100BD0000020FFF755FD884908800846008828B1A5
:100BE00008460088A0F57F41FF391BD1D320FFF7CD
:100BF000F3FCFFF7FFFCFFF7FDFCFFF7FBFC00F049
:100C0000BF007D490880084600884FF6FF7101EA61
:100C1000002079490880FFF7EDFC774909880843EF
:100C2000754908807448018876A003F079F9724804
:100C30000088A0F5134141397ED1CF20FFF7CCFCCD
:100C40004FF480706B49086140004861002068499A
:100C500008608814674948610861C0100861401045
:100C6000086140004861C1206149086088146149F9
:100C700048610861C0100861401008614000486187
:100C800030205B49086088145A4948610861C010E7
:100C90000861ED20FFF7A0FC4FF480705549086112
:100CA00040004861642052490860881451494861F5
:100CB0000861C010086140100861400048610320CD
:100CC0004B49086088144B4948610861C0100861AD
:100CD00040100861400048611220454908608814AE
:100CE000444948610861C010086140100861400033
:100CF000486181203E49086088143E494861086186
:100D0000C0100861E820FFF767FC4FF48070394994
:100D100008614000486185203549086088143549DC
:100D200048610861C01008614010086140004861D6
:100D300010202F49086000E089E300022D49486136
:100D40000861C010086140100861400048617A20C5
:100D5000274908608814274948610861C010086164
:100D6000CB20FFF739FC4FF4807022490861400026
:100D7000486139201E49086088141E49486108618D
:100D8000C010086140100861400048612C201849DB
:100D900008608814174948610861C0100861401054
:100DA0000861400048610020114908608814114919
:100DB00048610861C0100861401008614000486146
:100DC00034200B49086088140A4948610861C01042
:100DD0000861401008614000486102200449086031
:100DE000C002044948610861C0100861F72011E0A1
:100DF0000C180140001001401800002014000020D1
:100E000000023000204C43442049443A25780D0A22
:100E100000000000FFF7E0FB4FF48070FE4908611E
:100E2000400048612020FD490860C001FA4948613E
:100E30000861C0100861EA20FFF7CEFB4FF4807014
:100E4000F5490861400048610020F44908608814B1
:100E5000F14948610861C010086140100861400014
:100E600048610020ED4908608814EB494861086139
:100E7000C0100861C020FFF7AFFB4FF48070E64957
:100E80000861400048611B20E44908608814E24979
:100E900048610861C0100861C120FFF79DFB4FF455
:100EA0008070DD490861400048610120DB4908602D
:100EB0000003D94948610861C0100861C520FFF7E7
:100EC0008BFB4FF48070D4490861400048613020AA
:100ED000D24908608814D04948610861C01008618F
:100EE00040100861400048613020CC4908608814F7
:100EF000C94948610861C0100861C720FFF76CFB51
:100F00004FF48070C449086140004861B720C3496C
:100F100008608814C04948610861C0100861362023
:100F2000FFF75AFB4FF48070BB49086140004861ED
:100F30004820BA4908608814B74948610861C01060
:100F400008613A20FFF748FB4FF48070B24908610E
:100F5000400048615520B14908608814AE49486195
:100F60000861C0100861B120FFF736FB4FF48070B4
:100F7000A9490861400048610020A8490860881418
:100F8000A54948610861C01008614010086140002F
:100F900048611A20A149086088149F494861086186
:100FA000C0100861B620FFF717FB4FF480709A4914
:100FB0000861400048610A209849086088149649F1
:100FC00048610861C0100861401008614000486134
:100FD000A2209249086088148F4948610861C010B6
:100FE0000861F220FFF7F8FA4FF480708A4908612F
:100FF000400048610020894908608814864948619A
:101000000861C01008612620FFF7E6FA4FF48070EF
:10101000814908614000486101208049086000035F
:101020007D4948610861C0100861E020FFF7D4FAEB
:101030004FF4807078490861400048610F2077497B
:1010400008608814744948610861C0100861401044
:101050000861400048612A207049086088146E4980
:1010600048610861C0100861401008614000486193
:1010700028206A4908608814674948610861C010DF
:101080000861401008614000486108206349086019
:101090004002614948610861C01008614010086160
:1010A000400048610E205D49086088145A49486133
:1010B0000861C010086140100861400048610820C4
:1010C000564908604002544948610861C0100861EF
:1010D000401008614000486154205049086088145D
:1010E0004D4948610861C010086140100861400026
:1010F0004861A92049490860881447494861086146
:10110000C010086140100861400048614320434915
:1011100008608814404948610861C01008614010A7
:101120000861400048610A203C49086088143A4937
:1011300048610861C01008614010086140004861C2
:101140000F20364908608814334948610861C0108F
:101150000861401008614000486100202F49086084
:1011600088142D4948610861C01008614010086169
:1011700040004861002029490860881426494861D8
:101180000861C010086140100861400048610020FB
:10119000224908608814204948610861C01008612C
:1011A000401008614000486100201C490860881414
:1011B000194948610861C0100861E120FFF70CFA85
:1011C0004FF48070144908614000486100201349C1
:1011D00008608814104948610861C0100861401017
:1011E00008614000486115200C49086088140A49CC
:1011F00048610861C0100861401008614000486102
:101200001720064908608814034948610861C01026
:1012100008614010086103E0001001400C18014013
:10122000400048610720F94908608814F84948617E
:101230000861C01008614010086140004861112039
:10124000F24908608814F24948610861C0100861D9
:1012500040100861400048610620EC49086088148D
:10126000EB4948610861C010086140100861400006
:1012700048612B20E54908608814E5494861086108
:10128000C010086140100861400048615620DF49E5
:1012900008608814DE4948610861C0100861401088
:1012A0000861400048613C20D84908608814D8494A
:1012B00048610861C0100861401008614000486141
:1012C0000520D24908608814D14948610861C010DE
:1012D000086140100861400048611020CB49086057
:1012E0000002CB4948610861C010086140100861E4
:1012F000400048610F20C54908608814C44948610E
:101300000861C010086140100861400048613F203A
:10131000BE4908608814BE4948610861C010086170
:1013200040100861400048613F20B84908608814B7
:10133000B74948610861C010086140100861400069
:1013400048610F20B14908608814B14948610861BB
:10135000C01008612B20FFF73FF94FF48070AC49B3
:101360000861400048610020A84908608814A84925
:1013700048610861C0100861401008614000486180
:101380000020A24908608814A14948610861C01082
:101390000861401008614000486101209B490860D5
:1013A00000039B4948610861C01008614010086152
:1013B000400048613F20954908608814944948617D
:1013C0000861C01008612A20FFF706F94FF4807009
:1013D0008F4908614000486100208C4908608814EA
:1013E0008B4948610861C0100861401008614000E5
:1013F0004861002085490860881485494861086172
:10140000C0100861401008614000486100207F4919
:10141000086088147E4948610861C0100861401066
:10142000086140004861EF207849086088147849D5
:1014300048610861C01008611120FFF7CDF87820DD
:1014400001F028FD2920FFF7C7F801F091B8714895
:101450000088A0F5134125397ED147F6F001E5203B
:10146000FFF7FAF84FF480710120FFF7F5F84FF419
:10147000E0610220FFF7F0F841F230010320FFF7AE
:10148000EBF800210420FFF7E7F840F202210820E2
:10149000FFF7E2F800210920FFF7DEF800210A201B
:1014A000FFF7DAF800210C20FFF7D6F800210D2015
:1014B000FFF7D2F800210F20FFF7CEF8002110200F
:1014C000FFF7CAF807211120FFF7C6F80021122004
:1014D000FFF7C2F800211320FFF7BEF80021072014
:1014E000FFF7BAF841F290611020FFF7B5F840F22B
:1014F00027211120FFF7B0F89D211220FFF7ACF84B
:101500004FF4C8511320FFF7A7F825212920FFF732
:10151000A3F80D212B20FFF79FF807213020FFF7BC
:101520009BF840F203313120FFF796F80321322077
:10153000FFF792F840F206213520FFF78DF80821D9
:101540003620FFF789F840F206413720FFF784F88C
:101550004FF44171382000E05EE0FFF77DF807218D
:101560003920FFF779F840F202613C20FFF774F868
:1015700008213D20FFF770F800215020FFF76CF89C
:10158000EF215120FFF768F800215220FFF764F89F
:1015900040F23F115320FFF75FF84FF427416020DE
:1015A000FFF75AF801216120FFF756F800216A2061
:1015B000FFF752F800218020FFF74EF8002181202C
:1015C000FFF74AF800218220FFF746F80021832028
:1015D000FFF742F800218420FFF73EF80021852024
:1015E000FFF73AF810219020FFF736F84FF4C0616A
:1015F0009220FFF731F840F233110720FFF72CF863
:1016000022210020FFF728F81FE700000C180140F6
:101610000010014018000020FE480088A0F513418A
:1016200028397DD11021E720FFF716F8012100208D
:10163000FFF712F84FF480710120FFF70DF84FF417
:10164000E0610220FFF708F841F230010320FFF7C4
:1016500003F800210420FEF7FFFF40F207210820D5
:10166000FEF7FAFF00210920FEF7F6FF00210A200D
:10167000FEF7F2FF01210C20FEF7EEFF00210D2006
:10168000FEF7EAFF00210F20FEF7E6FF0021102001
:10169000FEF7E2FF07211120FEF7DEFF00211220F6
:1016A000FEF7DAFF00211320FEF7D6FF322001F00B
:1016B000F1FB41F290511020FEF7CEFF40F22721BE
:1016C0001120FEF7C9FF322001F0E4FB9C2112201B
:1016D000FEF7C2FF322001F0DDFB4FF4C8511320AA
:1016E000FEF7BAFF23212920FEF7B6FF0E212B209B
:1016F000FEF7B2FF322001F0CDFB00212020FEF7E3
:10170000ABFF40F23F112120FEF7A6FF322001F08F
:10171000C1FB07213020FEF79FFF40F2077100E078
:1017200087E03120FEF798FF06213220FEF794FF74
:1017300040F204713520FEF78FFF41F60471362028
:10174000FEF78AFF04213720FEF786FF00213820AC
:10175000FEF782FF40F206713920FEF77DFF40F26E
:1017600001713C20FEF778FF0F213D20FEF774FF4A
:10177000322001F08FFB00215020FEF76DFFEF219A
:101780005120FEF769FF00215220FEF765FF40F26D
:101790003F115320FEF760FF4FF427416020FEF712
:1017A0005BFF01216120FEF757FF00216A20FEF751
:1017B00053FF00218020FEF74FFF00218120FEF71C
:1017C0004BFF00218220FEF747FF00218320FEF718
:1017D00043FF00218420FEF73FFF00218520FEF714
:1017E0003BFF10219020FEF737FF00219220FEF7EB
:1017F00033FF03219320FEF72FFF4FF488719520CC
:10180000FEF72AFF00219720FEF726FF00219820EF
:10181000FEF722FF40F233110720FEF71DFF0021E3
:101820002020FEF719FF40F23F112120FEF714FFA0
:101830000BE678480088A0F51341203904D075489C
:101840000088B0F5134F7DD100210846FEF704FF54
:101850004FF480710120FEF7FFFE4FF4E06102209B
:10186000FEF7FAFE41F230010320FEF7F5FE0021FB
:101870000420FEF7F1FE40F202210820FEF7ECFE04
:1018800000210920FEF7E8FE00210A20FEF7E4FE11
:1018900001210C20FEF7E0FE00210D20FEF7DCFE0A
:1018A00000210F20FEF7D8FE322001F0F3FA40F2BB
:1018B00001110720FEF7D0FE322001F0EBFA4FF4C1
:1018C00086511020FEF7C8FE07211120FEF7C4FE46
:1018D0004FF488711220FEF7BFFE4FF430611320E1
:1018E000FEF7BAFE00212920FEF7B6FE44F21001F1
:1018F0002B20FEF7B1FE00215020FEF7ADFEEF21B8
:101900005120FEF7A9FE00215220FEF7A5FE40F26D
:101910003F115320FEF7A0FE4FF41C516020FEF74C
:101920009BFE01216120FEF797FE00216A20FEF751
:1019300093FE00218020FEF78FFE00218120FEF71C
:101940008BFE00E02EE000218220FEF785FE0021C4
:101950008320FEF781FE00218420FEF77DFE00211A
:101960008520FEF779FE10219020FEF775FE0021FC
:101970009220FEF771FE01219320FEF76DFE4FF4D9
:1019800088719520FEF768FE00219720FEF764FE1F
:1019900000219820FEF760FE40F273110720FEF749
:1019A0005BFE52E51B480088A0F5A84108397DD1AF
:1019B0004FF480710120FEF74FFE4FF4E0610220EA
:1019C000FEF74AFE41F230010320FEF745FE0021FA
:1019D0000420FEF741FE40F207210820FEF73CFEFE
:1019E00000210920FEF738FE00210A20FEF734FE10
:1019F00000210C20FEF730FE00210D20FEF72CFE0A
:101A000000210F20FEF728FE142001F043FA41F2D6
:101A1000B06101E0180000201020FEF71DFE01213A
:101A20001120FEF719FE01211720FEF715FE4FF4D5
:101A30009C711220FEF710FE4FF400611320FEF798
:101A40000BFE09212920FEF707FE09212A20FEF7B7
:101A500003FE0021A420FEF7FFFD00215020FEF729
:101A6000FBFDEF215120FEF7F7FD00215220FEF78C
:101A7000F3FD40F23F115320FEF7EEFD4FF41C51F1
:101A80006020FEF7E9FD01216120FEF7E5FD002160
:101A90006A20FEF7E1FD00218020FEF7DDFD002138
:101AA0008120FEF7D9FD0021822000E027E0FEF72B
:101AB000D3FD00218320FEF7CFFD00218420FEF717
:101AC000CBFD00218520FEF7C7FD13219020FEF7F6
:101AD000C3FD00219220FEF7BFFD03219320FEF7F6
:101AE000BBFD4FF488719520FEF7B6FD40F27311EF
:101AF0000720FEF7B1FD322001F0CCF9A5E4FE4845
:101B00000088A0F5A85105397ED10720FEF7A4FD75
:101B1000322001F0BFF94FF48E711220FEF79CFDC8
:101B20000121A420FEF798FD0F210820FEF794FD67
:101B300008210A20FEF790FD08210D20FEF78CFDFC
:101B400040F207713020FEF787FD07213120FEF7B4
:101B500083FD40F203613220FEF77EFD4FF4E06129
:101B60003320FEF779FD40F202213420FEF774FDA8
:101B700002213520FEF770FD41F60F713620FEF789
:101B80006BFD40F207713720FEF766FD002138201B
:101B9000FEF762FD00213920FEF75EFD40F207717D
:101BA0003A20FEF759FD00213B20FEF755FD0721A5
:101BB0003C20FEF751FD00213D20FEF74DFD322077
:101BC00001F068F901210720FEF746FD01211720E9
:101BD000FEF742FD322001F05DF94FF4BD511020B7
:101BE000FEF73AFD40F217211120FEF735FD4FF4C4
:101BF0008F711220FEF730FD4FF470611320FEF755
:101C00002BFD00212A2000E093E0FEF725FD0A21AC
:101C10002920FEF721FD4FF49F711220FEF71CFDD5
:101C200000215020FEF718FDEF215120FEF714FD92
:101C300000215220FEF710FD40F23F115320FEF725
:101C40000BFD4FF41C516020FEF706FD01216120C1
:101C5000FEF702FD00216A20FEF7FEFC0021802035
:101C6000FEF7FAFC00218120FEF7F6FC002182201D
:101C7000FEF7F2FC00218320FEF7EEFC0021842019
:101C8000FEF7EAFC00218520FEF7E6FC13219020F8
:101C9000FEF7E2FC4FF440719220FEF7DDFC0521D7
:101CA0009320FEF7D9FC00219520FEF7D5FC0021FA
:101CB0009720FEF7D1FC00219820FEF7CDFC4FF4D1
:101CC00080710120FEF7C8FC4FF4E0610220FEF7AE
:101CD000C3FC41F230010320FEF7BEFC00210420CA
:101CE000FEF7BAFC00210C20FEF7B6FC00210F2005
:101CF000FEF7B2FC00212020FEF7AEFC00212120DF
:101D0000FEF7AAFC21210720FEF7A6FC142001F013
:101D1000C1F861210720FEF79FFC142001F0BAF8FA
:101D200040F273110720FEF797FC142001F0B2F87F
:101D30006AE471480088A0F5354105397DD108462F
:101D4000FEF78AFC00210846FEF786FC00210846C3
:101D5000FEF782FC00210846FEF77EFC0121A4204C
:101D6000FEF77AFC142001F095F84FF41C51602026
:101D7000FEF772FC40F202210820FEF76DFC4FF4E2
:101D800005713020FEF768FC43F215713120FEF733
:101D900063FC40F204613220FEF75EFC40F61661FF
:101DA0003320FEF759FC42F211213420FEF754FC97
:101DB0004FF4A8513520FEF74FFC48F2075136206A
:101DC000FEF74AFC41F207413720FEF745FC41F29D
:101DD00003413820FEF740FC20213920FEF73CFC6F
:101DE0001A219020FEF738FC00211020FEF734FC69
:101DF00007211120FEF730FC00211220FEF72CFCF9
:101E000000211320FEF728FC142001F043F84FF4C2
:101E1000E6611020FEF720FC40F237111120FEF79A
:101E20001BFC142001F036F84FF4DC711220FEF791
:101E300013FC142001F02EF800E086E04FF47061EE
:101E40001320FEF709FC80212A20FEF705FC48211B
:101E50002920FEF701FC142001F01CF84FF48071DA
:101E60000120FEF7F9FB4FF4E0610220FEF7F4FBDE
:101E700041F230210320FEF7EFFB40F2022108205F
:101E8000FEF7EAFB00210A20FEF7E6FB00210C200A
:101E9000FEF7E2FB00210D20FEF7DEFB30210E20D5
:101EA000FEF7DAFB00215020FEF7D6FBEF21512090
:101EB000FEF7D2FB00215220FEF7CEFB40F23F118D
:101EC0005320FEF7C9FB4FF41C516020FEF7C4FB02
:101ED00001216120FEF7C0FB00216A20FEF7BCFB58
:101EE00011219020FEF7B8FB4FF4C0619220FEF75D
:101EF000B3FB40F2024101E0180000209320FEF7FE
:101F0000ABFB02219420FEF7A7FB142000F0C2FFD8
:101F100001210720FEF7A0FB142000F0BBFF612188
:101F20000720FEF799FB40F273110720FEF794FBA0
:101F300000212020FEF790FB00212120FEF78CFBE2
:101F400022210020FEF788FB12E3FE480088A0F55E
:101F5000454105397DD10846FEF77EFB0021084644
:101F6000FEF77AFB142000F095FF00210846FEF7EB
:101F700073FB00210846FEF76FFB00210846FEF7C1
:101F80006BFB00210846FEF767FB0121A420FEF74A
:101F900063FB142000F07EFF4FF41C516020FEF71D
:101FA0005BFB40F606010820FEF756FB40F203718A
:101FB0003020FEF751FB01213120FEF74DFB0421BB
:101FC0003220FEF749FB4FF481713320FEF744FBCA
:101FD0004FF440713420FEF73FFB40F203113520EF
:101FE000FEF73AFB1F213620FEF736FB40F2037165
:101FF0003720FEF731FB01213820FEF72DFB0421AD
:102000003920FEF729FB15219020FEF725FB4FF420
:1020100082611020FEF720FB40F247211120FEF7DD
:102020001BFB4FF4DE711220FEF716FB4FF46061CC
:102030001320FEF711FB782000F02CFF4FF4807185
:102040000120FEF709FB4FF400710220FEF704FBAC
:1020500000E050E041F230010320FEF7FDFA0821D4
:102060000A20FEF7F9FA00210C20FEF7F5FA2021EC
:102070000E20FEF7F1FA00210F20FEF7EDFA002105
:102080002020FEF7E9FA00212120FEF7E5FA3D21A4
:102090002A20FEF7E1FA142000F0FCFE2D21292071
:1020A000FEF7DAFA00215020FEF7D6FA4DF2EF01E2
:1020B0005120FEF7D1FA00215220FEF7CDFA40F26E
:1020C0003F115320FEF7C8FA00216120FEF7C4FA41
:1020D00000216A20FEF7C0FA4FF440719220FEF70B
:1020E000BBFA05219320FEF7B7FA4FF48071072061
:1020F000FEF7B2FA3CE293480088A0F5094189391D
:102100007DD101210020FEF7A7FA4AF6A4010320A1
:10211000FEF7A2FA00210C20FEF79EFA40F60C0111
:102120000D20FEF799FA4FF42C510E20FEF794FA89
:10213000B0211E20FEF790FA42F63F310120FEF753
:102140008BFA4FF4C0610220FEF786FA00211020BE
:10215000FEF782FA46F270011120FEF77DFA0021A7
:102160000520FEF779FA00210620FEF775FA4EF6F3
:102170001C711620FEF770FA03211720FEF76CFA87
:1021800040F233210720FEF767FA00210B20FEF70B
:1021900063FA00210F20FEF75FFA00214120FEF7CD
:1021A0005BFA00214220FEF757FA00214820FEF793
:1021B00053FA40F23F114920FEF74EFA00214A201F
:1021C000FEF74AFA00214B20FEF746FA4FF46F4122
:1021D0004420FEF741FA00214520FEF73DFA40F287
:1021E0003F114620FEF738FA40F207713020FEF723
:1021F00033FA4FF401713120FEF72EFA00E03DE092
:102200004FF401713220FEF727FA40F202513320D9
:10221000FEF722FA40F207513420FEF71DFA4FF480
:1022200001713520FEF718FA4FF401713620FEF7E0
:1022300013FA40F202513720FEF70EFA40F2023153
:102240003A20FEF709FA40F202313B20FEF704FA89
:1022500000212320FEF700FA00212420FEF7FCF9DC
:102260004FF400412520FEF7F7F900214F20FEF73B
:10227000F3F900214E20FEF7EFF979E131480088AB
:10228000A0F58A4131397CD101210020FEF7E4F923
:102290000A2000F0FFFD41F228611020FEF7DCF972
:1022A0000E211220FEF7D8F940F639211320FEF74F
:1022B000D3F90A2000F0EEFD40211120FEF7CCF901
:1022C00050211520FEF7C8F90A2000F0E3FD1E2179
:1022D0001220FEF7C1F90A2000F0DCFD4FF4B151E5
:1022E0001020FEF7B9F942F639211320FEF7B4F9B0
:1022F0000A2000F0CFFD4FF480710120FEF7ACF909
:102300004FF440710220FEF7A7F941F2300103209B
:10231000FEF7A2F940F202210820FEF79DF90821FC
:102320000A20FEF799F900213020FEF795F940F2D6
:1023300002413120FEF790F94FF483713220FEF70D
:102340008BF901E01800002040F203513320FEF722
:1023500083F94FF482713420FEF77EF940F20131A7
:102360003520FEF779F940F207713620FEF774F94F
:1023700040F205313720FEF76FF94FF40271382033
:1023800000E040E0FEF768F940F60B713920FEF7F7
:1023900063F902214120FEF75FF94FF41C516020E0
:1023A000FEF75AF901216120FEF756F94FF4047146
:1023B0009020FEF751F94FF485719220FEF74CF909
:1023C00004219320FEF748F94FF48071A020FEF716
:1023D00043F901210720FEF73FF921210720FEF7ED
:1023E0003BF923210720FEF737F933210720FEF7B9
:1023F00033F940F233110720FEF72EF90021A02017
:10240000FEF72AF9B4E0FA480088A0F58A41353988
:10241000F8D130211520FEF71FF910219A20FEF780
:102420001BF920211120FEF717F943F22841102053
:10243000FEF712F902211220FEF70EF941F23801DF
:102440001320FEF709F9282000F024FD1221084688
:10245000FEF702F9282000F01DFD43F22041102074
:10246000FEF7FAF843F238011320FEF7F5F846209C
:1024700000F010FD00213020FEF7EEF840F202419E
:102480003120FEF7E9F840F207313220FEF7E4F898
:102490004FF441713320FEF7DFF804213420FEF7BA
:1024A000DBF840F201413520FEF7D6F840F2077123
:1024B0003620FEF7D1F840F205313720FEF7CCF890
:1024C0004FF4C2613820FEF7C7F84FF4C2613920DB
:1024D000FEF7C2F84FF480710120FEF7BDF84FF40B
:1024E00040710220FEF7B8F841F230010320FEF7F8
:1024F000B3F840F608010820FEF7AEF808210A20DC
:10250000FEF7AAF84FF41C516020FEF7A5F8012150
:102510006120FEF7A1F84FF49F719020FEF79CF820
:102520004FF480719220FEF797F84FF4807193205A
:10253000FEF792F84FF44051A020FEF78DF81021DD
:10254000A320FEF789F801210720FEF785F8212155
:102550000720FEF781F823210720FEF77DF83321BD
:102560000720FEF779F840F233110720FEF774F8E0
:102570000020FEF76AF901209E4908604FF6FF70BF
:10258000FEF7D4FA08BD2DE9F05F05460E46174662
:102590009846DDF828A04FF0000B0020FEF755F913
:1025A000781B401C1FFA80FB34461EE0214628465B
:1025B00001F0E2FDFEF76CF84FF0000911E04FF476
:1025C00080708D490861400048618C48C0F800A0C7
:1025D000801448610861C010086109F101001FFA08
:1025E00080F9D945EBDB601C84B24445DEDD002078
:1025F000FEF72BF9BDE8F09F2DE9FF4F85B081462E
:102600008A460020049003900798A0EB09050898DB
:10261000A0EB0A06CDF80890CDF804A0002D01DD4E
:10262000012705E00DB9002702E04FF0FF376D42AA
:10263000002E02DD4FF0010806E016B94FF0000849
:1026400002E04FF0FF387642B54201DD2C4600E053
:1026500034464FF0000B21E0019A91B2029A90B2F9
:10266000FEF74AFA049828440490039830440390F3
:102670000498A04205DD0498001B04900298384499
:1026800002900398A04205DD0398001B0390019877
:10269000404401900BF101001FFA80FB601C834550
:1026A000DADD09B0BDE8F08F2DE9F04104460D46B2
:1026B00016461F462B46324629462046FFF79CFF0A
:1026C0003B46224629462046FFF796FF3B463246C8
:1026D00039462046FFF790FF3B46324629463046B2
:1026E000FFF78AFFBDE8F0812DE9F04706460F4667
:1026F0009046002445460320A0EB480948E03A1BD9
:1027000091B2721B90B2FEF7F7F93A1B91B27219AF
:1027100090B2FEF7F1F97A1991B2321B90B2FEF73E
:10272000EBF93A1B91B2721B90B2FEF7E5F97A1BF6
:1027300091B2321B90B2FEF7DFF93A1991B27219D9
:1027400090B2FEF7D9F97A1B91B2321990B2FEF726
:10275000D3F97A1991B2321990B2FEF7CDF93A193C
:1027600091B2721B90B2FEF7C7F9641CB9F1000F69
:1027700003DAA000801D814404E0601B80000A3061
:1027800081446D1E7A1991B2321990B2FEF7B4F9F4
:10279000AC42B4DDBDE8F0872DE9F84F0746894625
:1027A00016461D46BB46164800880090E82F02DCFE
:1027B000B9F59C7F01DDBDE8F88FA6F12000C6B217
:1027C0000A98002848D1002443E00C2D07D106EBDD
:1027D00046000C4901EB800010F804A004E00A4810
:1027E00000EB061010F804A04FF0000825E00000F0
:1027F00018000020A8012242001001400C180140DE
:102800001400002044420008B84600081AF0010FE6
:1028100003D07F490098088003E07E4800887C4907
:10282000088049463846FEF767F94FEA6A0A781C7D
:1028300087B208F1010000F0FF0805EBD571B8EB95
:10284000610FE3DB5F4609F101001FFA80F9601CAC
:10285000C4B2AC42B9DB2DE0002429E00C2D07D135
:1028600006EB46006C4901EB800010F804A004E080
:102870006A4800EB061010F804A04FF0000810E0C2
:102880001AF0010F07D009EB040291B207EB08021E
:1028900090B2FEF731F94FEA6A0A08F1010000F040
:1028A000FF0805EBD571B8EB610FE9DB601CC4B222
:1028B000AC42D3DB56490098088000BF7BE710B5D7
:1028C0000246012000E050430B00A1F10104E1B2F7
:1028D000F9D110BD2DE9FF4F81B0074691461E4644
:1028E0000E9D4FF0000A002439E0301B401EC1B29B
:1028F0000A20FFF7E4FFB9FBF0F00A21B0FBF1F288
:1029000001FB1208BAF1000F16D1701EA04213DDB0
:10291000B8F1000F0ED10020AB4605EBDB7149107A
:1029200001FB0471009088B22B4620220299FFF728
:1029300033FF12E04FF0010A0020AB4605EBDB71DC
:10294000491001FB0471009088B208F13001CAB24D
:102950002B460299FFF720FF00BF601CC4B2B442AF
:10296000C3DB05B0BDE8F08F2DE9FF4F81B007460E
:1029700090461D46DDE90E6A00241EE0281B401E1D
:10298000C1B20A20FFF79BFFB8FBF0F00A21B0FBB1
:10299000F1F201FB1209B34606EBDB71491001FBB2
:1029A000047188B209F13001CAB23346CDF800A0F3
:1029B0000299FFF7F1FE601CC4B2AC42DEDB05B049
:1029C000BDE8F08FF8B505460E4614461BE0E82D2D
:1029D00003DD002506F1100086B2B6F59C7F06DD0A
:1029E0000020054606464FF6FF70FEF79FF80020D0
:1029F00000902278102331462846FFF7CDFE05F1DE
:102A0000080085B2641C20780028E0D1F8BD0000E1
:102A1000140000201600002044420008B8460008B8
:102A200000B587B00121282000F086FE4FF4C05089
:102A3000ADF8180006A9AE4800F0C8FB4FF4C0512D
:102A4000AB4800F070FC00F08CF90021A94800F0C0
:102A5000A6FF0020ADF804004FF48270ADF8060028
:102A60000020ADF80800ADF80A00ADF80C004FF4F6
:102A70000070ADF80E001820ADF810000020ADF881
:102A800012000720ADF8140001A99A4800F0E2FEF8
:102A90000121984800F083FF0020974908604FF01B
:102AA00001009649C1F8B00107B000BD2DE9F04121
:102AB00007460D461646002091490860384600F04A
:102AC00029F98046002405E0FF2000F023F928556D
:102AD000601CC4B2B442F7DB01208949086040465B
:102AE000BDE8F0812DE9F04107460C46154600206F
:102AF00083490860384600F00DF98046002605E05D
:102B000014F8010B00F006F9701CC6B2AE42F7DBF8
:102B100001207B4908604046BDE8F0811CB579A1E1
:102B200003C9CDE90001082000F061F905226946DA
:102B30003020FFF7D7FF052269461020FFF7B6FFC8
:102B4000002406E01DF80400A52800D003E0601C66
:102B5000C4B2052CF6DB00BF052C01D001201CBD42
:102B60000020FCE770B505460C460020644908606B
:102B7000284600F0CFF80646204600F0CBF80120AA
:102B80005E49C1F8B001304670BD70B50446002002
:102B90005B490860204600F0BDF8FF2000F0BAF85D
:102BA000054601205549C1F8B001284670BD70B5F1
:102BB0000546102000F01BF900204F4908604FF037
:102BC000200229464FF0A000FFF78CFF01204B495F
:102BD000C1F8AC01052000F05DF90720FFF7D5FF33
:102BE000044621462720FFF7BDFF14F0100F05D043
:102BF000FF21E120FFF7B6FF102070BD14F0200F79
:102C000001D02020F9E7FF20F7E770B50446102037
:102C100000F0EDF80720FFF7B8FF0546294627200A
:102C2000FFF7A0FF15F0400F0AD0202221466120B7
:102C3000FFF73CFFFF21E220FFF794FF002070BD6B
:102C40000120FCE710B500202B4908604FF0050279
:102C50002E494FF02A00FFF745FF01212120FFF701
:102C600081FF01212220FFF77DFF28212520FFF78A
:102C700079FF20213120FFF775FF0F212620FFF774
:102C800071FF0F212020FFF76DFF01201B49C1F8C4
:102C9000AC0110BD10B50020174908604FF00502C7
:102CA0001B494FF03000FFF71DFF052217492A206E
:102CB000FFF718FF01212120FFF754FF01212220F7
:102CC000FFF750FF1A212420FFF74CFF2821252071
:102CD000FFF748FF0F212620FFF744FF0E21202099
:102CE000FFF740FF01200549C1F8AC0110BD00000D
:102CF0000014014000380040AC8122420080224292
:102D0000B0812242A5A5A5A5A5000000AD4C0008F4
:102D1000A84C000870B50546002405E0601CC4B24C
:102D2000C82C01DD002070BD02213A4800F0BBFE36
:102D30000028F3D02946374800F062FE002405E061
:102D4000601CC4B2C82C01DD0020ECE70121314831
:102D500000F0A9FE0028F3D02E4800F053FEC0B2C8
:102D6000E1E700B587B00121082000F0E5FC012172
:102D7000880300F0EEFC4FF46040ADF81800182016
:102D80008DF81B0003208DF81A0006A9224800F0D8
:102D90001DFA4FF46041204800F0C3FA0020ADF85E
:102DA00004004FF48270ADF806000020ADF8080072
:102DB0000220ADF80A000120ADF80C004002ADF889
:102DC0000E003820ADF810000020ADF812000720EA
:102DD000ADF8140001A90F4800F03CFD01210D4899
:102DE00000F0DDFDFF20FFF795FF07B000BD10B537
:102DF0000446084800884FF6C77108400549088016
:102E000008460088204308800121024800F0C7FDE1
:102E100010BD000000380040000C014010B56FF0FC
:102E2000040000F055F92D4800682D49B0FBF1F081
:102E30002C4908700846007800EB4001C1EBC01037
:102E40004FF6FF7101EAC0002749088010BD014616
:102E5000244A12784A434FF0E0235A6100229A61D3
:102E60001A46126942F001021A6100BF4FF0E022D7
:102E7000106910F0010F02D010F4803FF6D04FF02F
:102E8000E022126922F001024FF0E0231A610022D1
:102E90009A6170470146144A12884A434FF0E02372
:102EA0005A6100229A611A46126942F001021A61BF
:102EB00000BF4FF0E022106910F0010F02D010F4B3
:102EC000803FF6D04FF0E022126922F001024FF06D
:102ED000E0231A6100229A61704700000000002080
:102EE00000127A001A0000201C000020014600BFDA
:102EF000704700BF4A4A128812F0400FFAD0C2B29F
:102F0000474B1B1D1A80704710B586B0044601213F
:102F100044F2040000F010FC414800F0FBFD4FF4C7
:102F20000070ADF8140003208DF8160018208DF8FD
:102F3000170005A93B4800F049F94FF48060ADF84F
:102F4000140004208DF8170005A9364800F03EF95A
:102F500025208DF8000003208DF801008DF8020077
:102F600001208DF80300684600F067F80194002006
:102F7000ADF80800ADF80A00ADF80C00ADF810008F
:102F80000C20ADF80E0001A9254800F006FE012234
:102F900040F22551224800F098FE0121204800F01F
:102FA00088FE06B010BD10B540F225511C4800F057
:102FB00071FF10B31A4800F0EDFEC4B21A48008841
:102FC00010F4004F2BD11848008810F4804F0CD01B
:102FD0000A2C03D000201449088020E01248008801
:102FE00040F400401049088019E00D2C06D10E482D
:102FF000008840F480400C49088010E00A480088AE
:10300000C0F30D0009490C5407480088401C0649CC
:10301000088008460088C72801DD0020088010BD10
:103020000038014000080140200000203C00002042
:1030300031490143314A1160704770B500210023C6
:103040000F22C4780CB32D4C246804F4E064C4F55A
:10305000E064210AC1F10403CA40447804FA03F190
:103060008478144021430901254C0678A155047841
:1030700004F01F050124AC4005786D114FF0E026E7
:1030800006EB8505C5F8004109E0047804F01F054A
:103090000124AC401B4D0678761145F8264070BDE2
:1030A000194A0A400243154B1B1F1A60704739B179
:1030B000124A121D12680243104B1B1D1A6006E0D3
:1030C0000E4A121D126882430C4B1B1D1A6070477A
:1030D000042808D14FF0E021096941F004014FF0C4
:1030E000E022116107E04FF0E021096921F00401BD
:1030F0004FF0E022116170470000FA050CED00E08E
:1031000000E400E080E100E080FFFF1F10B504460E
:10311000CA48844208D10121042000F027FB002185
:10312000042000F023FB46E0C548844208D1012179
:10313000082000F01BFB0021082000F017FB3AE0FC
:10314000C048844208D10121102000F00FFB00216B
:10315000102000F00BFB2EE0BB48844208D1012177
:10316000202000F003FB0021202000F0FFFA22E0E5
:10317000B648844208D10121402000F0F7FA00212E
:10318000402000F0F3FA16E0B148844208D1012152
:10319000802000F0EBFA0021802000F0E7FA0AE03E
:1031A000AC48844207D10121801500F0DFFA0021EC
:1031B000A01500F0DBFA10BD10B50121084600F0A3
:1031C000D5FA0021012000F0D1FA10BD2DE9F0411F
:1031D000024600250026002000230024002791F845
:1031E00003C00CF00F0591F803C01CF0100F03D0C2
:1031F00091F802C04CEA050591F800C0BCF1000F3F
:1032000031D0146800202BE04FF0010C0CFA00F3D1
:10321000B1F800C00CEA03069E4220D183004FF0B3
:103220000F0C0CFA03F7BC4305FA03FC4CEA040448
:1032300091F803C0BCF1280F06D14FF0010C0CFA35
:1032400000FCC2F814C00AE091F803C0BCF1480FBA
:1032500005D14FF0010C0CFA00FCC2F810C0401C64
:103260000828D1D31460B1F800C0BCF1FF0F34DDE1
:10327000546800202EE000F1080C4FF0010808FA15
:103280000CF3B1F800C00CEA03069E4221D1830082
:103290004FF00F0C0CFA03F7BC4305FA03FC4CEAA1
:1032A000040491F803C0BCF1280F05D100F1080C0B
:1032B00008FA0CF8C2F8148091F803C0BCF1480F6A
:1032C00007D100F1080C4FF0010808FA0CF8C2F819
:1032D0001080401C0828CED35460BDE8F0814FF622
:1032E000FF710180022181700421C1707047024684
:1032F000002093680B4201D0012000E000207047BD
:103300000146886880B2704702460020D3680B42AD
:1033100001D0012000E0002070470146C86880B25B
:10332000704701617047416170470AB1016100E077
:1033300041617047C16070474FF480320A43826137
:103340008161826182698269704702460020424B36
:1033500018684FF68073184040EA021008433E4B4D
:10336000186070473D49C8617047F0B50A460023B0
:1033700000240021002500F00046B6F1004F02D1E4
:10338000354EF16901E0344E7168C0F3034583B2F4
:1033900000F44016B6F5401F08D121F070612E4EA2
:1033A000766826F070662C4F7E6012E000F480167E
:1033B000B6F5801F06D1032606FA05F4A14341F0B5
:1033C000706106E0460D360103FA06F6B14341F09E
:1033D000706122B1460D360103FA06F6314300F062
:1033E0000046B6F1004F02D11B4EF16101E01A4ECA
:1033F0007160F0BD30B500228B071C0F0F2303FA5C
:1034000004F2154B08338C1053F824309343124CBC
:1034100008348D1044F8253023468C1053F824309E
:103420008C07240F00FA04F423430B4C08348D104E
:1034300044F8253030BD0A49086070470008014053
:10344000000C014000100140001401400018014030
:10345000001C01400020014000000140000020420B
:10346000DC002042DD48006840F00100DB490860D4
:1034700008464068DA490840D8494860084600686C
:10348000D8490840D54908600846006820F48020E3
:1034900008600846406820F4FE0048604FF41F00B2
:1034A00088607047CD49096821F48031CB4A1160AA
:1034B0001146096821F480211160B0F5803F03D0E6
:1034C000B0F5802F0ED106E0C449096841F480317F
:1034D000C24A116007E0C149096841F4A021BF4A0E
:1034E000116000E000BF00BF704710B50146002228
:1034F000002300204A11012A02D1B84C236806E0BB
:10350000022A02D1B54C236A01E0B44C636A01F08F
:103510001F02012494401C4201D0012000E0002041
:1035200010BD38B5002000900024002500BF3120D8
:10353000FFF7DBFF05460098401C00900098B0F5AF
:10354000A06F01D0002DF2D03120FFF7CEFF08B1DF
:10355000012400E00024204638BD014600209F4A97
:10356000106820F0F80040EAC100106070479E49E2
:103570000860704702460020984B586820F47C1081
:1035800042EA01031843954B586070479649086614
:10359000704701460020914A506820F0030008431C
:1035A000506070478D48406800F00C00704701463D
:1035B00000208A4A506820F0F000084350607047AD
:1035C00001460020854A506820F4E06008435060BE
:1035D000704701460020814A506820F4605040EA5C
:1035E000C1005060704729B17C4A527A02437B4B3C
:1035F0005A7204E0794A527A8243784B5A72704781
:103600007A490860704701460020744A506820F4E7
:1036100040400843506070470021754A11706F4A5E
:1036200082F82010012802D0042808D103E00121EB
:103630006F4A117004E005216D4A117000E000BF6F
:1036400000BF70476B49086070476449096A0143CD
:10365000624A11627047674944390860704730B563
:1036600000210022002400235C4D6D6805F00C0150
:1036700021B1042905D0082923D105E05E4D05605C
:1036800022E05D4D05601FE0544D6D6805F4701239
:10369000524D6D6805F48034022505EB92421CB949
:1036A000564D554305600BE04C4D6D6815F4003FD9
:1036B00003D0524D5543056002E04F4D5543056020
:1036C00002E04D4D056000BF00BF444D6D6805F040
:1036D000F00109094A4D6B5C0568DD4045603F4DCE
:1036E0006D6805F4E061090A454D6B5C4568DD4095
:1036F00085603A4D6D6805F46051C90A404D6B5CB8
:103700004568DD40C560354D6D6805F44041890B65
:103710003C4D6B5CC568B5FBF3F5056130BD29B167
:103720002E4A526902432D4B5A6104E02B4A5269DA
:1037300082432A4B5A61704729B1284A9269024351
:10374000264B9A6104E0254A92698243234B9A6191
:10375000704729B1214AD2690243204BDA6104E063
:103760001E4AD26982431D4BDA61704729B11B4A58
:10377000D2680243194BDA6004E0184AD2688243E7
:10378000164BDA60704729B1144A12690243134B91
:103790001A6104E0114A12698243104B1A617047A2
:1037A00014494039086070470F49C86470470B4995
:1037B000C87170470948406A40F080700749486204
:1037C000704701460020054A92680A4201D0012054
:1037D00000E00020704701498872704700100240E5
:1037E0000000FFF8FFFFF6FE00004242D800424210
:1037F000201002408004424200127A0000093D007D
:10380000280000203800002010B50446BE4884423D
:1038100008D101218014FFF7A9FF0021A014FFF7B0
:10382000A5FF16E0B948844208D101210014FFF732
:10383000AAFF00212014FFF7A6FF0AE0B448844243
:1038400007D10121C013FFF79EFF0021E013FFF70E
:103850009AFF10BD10B50022028802F441520B8875
:103860004C8823438C882343CC8823430C892343EF
:103870004C8923438C892343CC8923431A430280F8
:10388000838B4FF2FF74234083830B8A038210BD26
:103890002DE9F04F85B005460C464FF00009022790
:1038A0004FF000084FF0010B0026B246A88B4FF2F4
:1038B00040010840A88302202884B5F81C90A06825
:1038C000022801D100BF38E0A08810B94FF0010BE9
:1038D00001E04FF0020B8D48854200D100E000BFAF
:1038E0006846FFF7BCFEDDF800A0E088B0F5007F79
:1038F0000AD14FEA1A2000EB80004000A168B0FB1B
:10390000F1F0401D86B20BE04FEA4B10BAFBF0F02D
:1039100000EB80004000A168B0FBF1F0401D86B2D2
:103920000A20B6FBF0F606F00108A6EB0800C0F38B
:103930004F074FF6FF7000EA0828022F01DBFF2F28
:1039400002DD02274FF00008E08840EA0800384313
:103950002884A088A18908436188084321880843F6
:1039600040F4006040EA0909A5F81C9005B0BDE8E4
:10397000F08F0021018041808180C18001814181DF
:103980008181C1810721018270470021018041802E
:103990008180C1800221816000218181704721B135
:1039A000028842F04002028004E002884FF6BF73B2
:1039B0001A400280704721B1828B42F48062828378
:1039C00004E0828B4FF6FF331A408283704730B594
:1039D000002400230C110125A540ABB21AB1858843
:1039E0001D43858002E085889D43858030BD1AB1E6
:1039F00083880B43838002E083888B4383807047F6
:103A000081817047014688897047A1F57E42FF3A5F
:103A100004D0028842F48072028004E002884FF6EB
:103A2000FF631A400280704721B1828842F004028D
:103A3000828004E082884FF6FB731A4082807047D0
:103A400002884FF2FF731A40028002880A43028004
:103A50007047018841F480510180704721B102888C
:103A600042F40052028004E002884DF6FF731A40CF
:103A70000280704702460020012901D0108B00E02F
:103A8000908A70470146088A7047B1F5804F04D18B
:103A9000028842F48042028004E002884BF6FF7301
:103AA0001A40028070470246002013890B4201D061
:103AB000012000E000207047CA4302817047F0B542
:103AC0000246002000240023002501F00F070126F4
:103AD000BE40B4B20B1101269E40B3B2968806EAEE
:103AE00003051689264202D00DB1012000E0002016
:103AF000F0BD10B5002201F00F040123A3409AB2DB
:103B0000D343038110BD0000003001400038004065
:103B1000003C004010B50446FB48844209D1012115
:103B20008803FFF723FE00214FF48040FFF71EFEBD
:103B300032E0F648844209D101214804FFF723FE10
:103B400000214FF40030FFF71EFE25E0F0488442CC
:103B500009D101218804FFF716FE00214FF48020CF
:103B6000FFF711FE18E0EB48844209D10121C80497
:103B7000FFF709FE00214FF40020FFF704FE0BE0E1
:103B8000E548844208D101210805FFF7FCFD00212A
:103B90004FF48010FFF7F7FD10BD2DE9F04786B018
:103BA00005460E460024A24600BFA1460027B08964
:103BB00000B100BF2F462C8A4CF6FF700440F088FD
:103BC00004432C82AC894EF6F3100440B08831894E
:103BD0000843718908430443AC81AC8A4FF6FF4027
:103BE0000440B0890443AC8201A8FFF738FDC64801
:103BF000874202D1DDF810A001E0DDF80CA0A88911
:103C000010F4004F08D00AEBCA0000EB0A1031682C
:103C10004900B0FBF1F807E00AEBCA0000EB0A101C
:103C200031688900B0FBF1F86420B8FBF0F00401C2
:103C30002009642101FB1089A88910F4004F08D0E5
:103C4000322000EBC900B0FBF1F000F007000443A4
:103C500008E0322000EB09106421B0FBF1F000F025
:103C60000F0004432C8106B0BDE8F0874FF41651D5
:103C7000016000218180C18001810C2141810021EE
:103C80008181704710B502460020108A4FF2FF0371
:103C900018400B884C8823438C882343CC882343CB
:103CA0001843108210BD0021018041808180C180B5
:103CB000704721B1828942F40052828104E08289F6
:103CC0004DF6FF731A4082817047F0B50346002419
:103CD000002600250020A1F510676A3F00D100BF33
:103CE0001846C1F3421401F01F06012707FA06F532
:103CF000012C01D10C3004E0022C01D1103000E085
:103D000014301AB107682F43076002E00768AF4319
:103D10000760F0BD1AB1838A0B43838202E0838A75
:103D20008B4383827047028A4FF6F0731A400282F7
:103D3000028A0A430282704782894FF2FF731A4057
:103D4000828182890A438281704721B1828942F04F
:103D50000202828104E082894FF6FD731A4082815B
:103D60007047028A4FF6DF731A400282028A0A43C2
:103D70000282704721B1028A42F48042028204E04A
:103D8000028A4BF6FF731A4002827047C1F30802A1
:103D90008280704701468888C0F308007047818997
:103DA00041F0010181817047028BD2B20283028B04
:103DB00042EA012202837047028B02F47F420283AF
:103DC000028B0A430283704721B1828A42F02002AB
:103DD000828204E0828A4FF6DF731A408282704743
:103DE00021B1828A42F01002828204E0828A4FF678
:103DF000EF731A408282704721B1828A42F0080232
:103E0000828204E0828A4FF6F7731A4082827047FA
:103E100021B1828942F40042828103E08289C2F3A7
:103E20000E028281704721B1828A42F4006282824E
:103E300004E0828A4FF2FF731A4082827047828ABE
:103E40004FF6FB731A408282828A0A43828270474D
:103E500021B1828A42F00202828204E0828A4FF615
:103E6000FD731A408282704702460020B1F5007F40
:103E700000D100BF13880B4201D0012000E00020D8
:103E8000704701F40072B2F5007F00D100BFCA4351
:103E90000280704770B502460024002300250020F0
:103EA000A1F510666A3E00D100BFC1F3421501F0D2
:103EB0001F03012606FA03F3012D02D19689334030
:103EC00006E0022D02D1168A334001E0968A334083
:103ED0000C12012606FA04F41688344013B10CB112
:103EE000012000E0002070BD10B500220023A1F5E4
:103EF00010646A3C00D100BF0A1201249440A3B2AE
:103F0000DC43048010BD0000003801400044004044
:103F100000480040004C0040005000407047000046
:103F20000FB4044910B503AA029800F0C7F810BCFA
:103F30005DF814FB240000202DE9F0410E460446F4
:103F4000002020622046E168884730B3252805D04C
:103F5000D4E901219047206A401CF2E7E16820463D
:103F600000278847050018D0A5F14100192802D87C
:103F700020354FF400673246294620462760FCF77B
:103F8000EFF840B1012804D0F61D26F007060836E8
:103F9000D8E7361DD6E72846DAE7206ABDE8F08183
:103FA00070B504460D4621461068AFF300802188A5
:103FB000090502D5104A7A4402E00F4A7A440E32CB
:103FC000002104F1240307E000F00F064FEA10106F
:103FD000965D5E5401F101010028F5D10346207879
:103FE000000704D5702D02D009B1113202232046FA
:103FF000BDE8704000F006B8F80C0000704770474C
:10400000704770472DE9F0470D46994692460446A1
:1040100000F124080168880604D5E06921F0100148
:10402000216000E00120A84202DDA0EB050700E0CE
:104030000027A16907EB050202EB0900A1EB0000D4
:10404000A0612078C00602D42046AFF3008000268D
:1040500008E0D4E901211AF806009047206A401CC4
:10406000761C20624E45F4DB2078C0060AD5204637
:10407000AFF3008006E0D4E9012130209047206AA8
:10408000401C2062381EA7F10107F4DC07E0D4E9E8
:10409000012118F805009047206A401C2062281E64
:1040A000A5F10105F3DC2046AFF30080207800067F
:1040B00002D50220BDE8F0870120FBE7074B70B571
:1040C0000D467B4400F011F80446284600F020F825
:1040D00010B14FF0FF3070BD204670BD2DEEFFFFD8
:1040E00001694A1C02610878704700B58FB0CDE9BC
:1040F00001310021059105497944CDE903101146AC
:104100006846FFF719FF0FB000BD0000E5FFFFFF95
:10411000007B00F080007047754600F029F8AE463D
:1041200005006946534620F00700854618B020B5C3
:10413000FCF7F4F9BDE820404FF000064FF000070F
:104140004FF000084FF0000B21F00701AC46ACE83F
:10415000C009ACE8C009ACE8C009ACE8C0098D46AC
:1041600070470446AFF300802046FCF70BF80000D0
:10417000004870470401002030B504460D462E4823
:104180000088A0F50941893908D121464E20FCF765
:1041900063FA29464F20FCF75FFA4CE02648008876
:1041A000A0F5134141393ED12A20FCF715FA4FF40E
:1041B000807022490861400048612012204908604F
:1041C00088141E4948610861C010086140100861E8
:1041D00040004861E0B21A490860881417494861F4
:1041E0000861C01008612B20FCF7F6F94FF48070CD
:1041F000124908614000486128121149086088147A
:104200000E4948610861C010086140100861400013
:104210004861E8B20A4908608814084948610861A1
:10422000C010086107E021462020FCF715FA294656
:104230002120FCF711FA30BD1800002000100140C9
:104240000C18014000000000000000000000000009
:1042500000000404040404040004000000140A0A1A
:104260000000000000000000000014143F140A3F8A
:104270000A0A000000041E1505060C14150F0400A0
:10428000000012150D0A142C2A1200000000040A66
:104290000A1E151509360000000202010000000088
:1042A000000000000020100808080808081020007E
:1042B00000020408080808080804020000000004BE
:1042C000150E0E150400000000000404041F040471
:1042D00004000000000000000000000000020201D5
:1042E00000000000001F00000000000000000000AF
:1042F000000000000002000000100808080404028A
:104300000202010000000E1111111111110E000026
:104310000000040604040404040E000000000E1152
:1043200011080402011F000000000E11100C1010F3
:10433000110E00000000080C0A0A091E08180000EF
:1043400000001F01010F1010110E000000000E09E7
:10435000010F1111110E000000001F0908040404D0
:104360000404000000000E11110E1111110E0000C6
:1043700000000E1111111E10120E000000000000AE
:104380000400000000040000000000000004000021
:10439000000404000020100804020408102000009B
:1043A000000000001F00001F0000000000020408C1
:1043B000102010080402000000000E11110804046F
:1043C0000004000000000E111915151D011E00004B
:1043D000000004040C0A0A1E1233000000000F1231
:1043E000120E1212120F000000001E110101010135
:1043F000110E000000000F1212121212120F000014
:1044000000001F120A0E0A02121F000000001F12F5
:104410000A0E0A020207000000001C1201013911F5
:10442000120C000000003312121E12121233000090
:1044300000001F0404040404041F000000003E08E0
:104440000808080808090700000037120A060A0AC7
:10445000123700000000070202020202223F0000A1
:1044600000001B1B1B1B15151515000000003B123F
:1044700016161A1A1217000000000E111111111150
:10448000110E000000000F12120E020202070000BF
:1044900000000E1111111117190E180000000F1253
:1044A000120E0A121237000000001E110106081039
:1044B000110F000000001F1504040404040E000086
:1044C0000000331212121212120C000000003312FC
:1044D000120A0A0C0404000000001515150E0A0A41
:1044E0000A0A000000001B0A0A04040A0A1B000052
:1044F00000001B0A0A040404040E000000001F0947
:1045000008040402121F0000001C04040404040434
:1045100004041C0000020202040408080810000041
:10452000000E08080808080808080E0000040A0021
:10453000000000000000000000000000000000007B
:104540000000003F00040000000000000000000028
:1045500000000000000C121C123C000000000302CE
:10456000020E1212120E000000000000001C1202C7
:10457000021C000000001810101C1212123C000057
:1045800000000000000C121E021C00000000380495
:10459000041E0404041E000000000000003C120C75
:1045A000021E221C00000302020E1212123700002B
:1045B0000000040000060404040E000000000800CF
:1045C000000C08080808080700000302023A0A0E57
:1045D000123700000000070404040404041F000054
:1045E00000000000000F1515151500000000000068
:1045F000000F12121237000000000000000C12120F
:10460000120C000000000000000F1212120E020730
:1046100000000000001C1212121C103800000000E4
:10462000001B06020207000000000000001E020C32
:10463000101E000000000004040E04040418000012
:1046400000000000001B1212123C000000000000DD
:104650000037120A0C040000000000000015150EBF
:104660000A0A000000000000001B0A040A1B0000E8
:10467000000000000037120A0C04040300000000D0
:10468000001E0804041E000000180808080408089A
:104690000808180008080808080808080808080892
:1046A000000604040408040404040600022518009B
:1046B00000000000000000000000000000000000FA
:1046C00000000000000000000000000808080808C2
:1046D000080800001818000000486C2412000000B0
:1046E00000000000000000000000002424247F12CD
:1046F00012127F12121200000000081C2A2A0A0C53
:104700001828282A2A1C080800000022251515153B
:104710002A585454542200000000000C1212120AAD
:1047200076252911916E00000006060403000000A2
:1047300000000000000000000040201010080808E1
:10474000080808101020400000020408081010108B
:1047500010101008080402000000000008086B1C7C
:104760001C6B080800000000000000000808080892
:104770007F0808080800000000000000000000009A
:104780000000000006060403000000000000000016
:10479000FE0000000000000000000000000000001B
:1047A00000000000060600000000804040202010AD
:1047B00010080804040202000000001824424242CB
:1047C0004242424224180000000000080E08080877
:1047D00008080808083E00000000003C4242422051
:1047E00020100804427E00000000003C42422018D5
:1047F00020404042221C00000000002030282424D9
:1048000022227E20207800000000007E0202021A90
:1048100026404042221C0000000000382402021AF8
:1048200026424242241800000000007E222210107E
:1048300008080808080800000000003C4242422422
:1048400018244242423C0000000000182442424228
:1048500064584040241C00000000000000001818AC
:104860000000000018180000000000000000000810
:1048700000000000000808040000004020100804A8
:1048800002040810204000000000000000007F002B
:1048900000007F000000000000000002040810205B
:1048A00040201008040200000000003C4242464044
:1048B00020101000181800000000001C225A555546
:1048C00055552D42221C0000000000080818141441
:1048D000243C224242E700000000001F2222221E48
:1048E00022424242221F00000000007C424201019D
:1048F00001010142221C00000000001F224242422E
:1049000042424242221F00000000003F4212121E9B
:1049100012120242423F00000000003F4212121EEB
:1049200012120202020700000000003C22220101D4
:1049300001712122221C0000000000E74242424295
:104940007E42424242E700000000003E080808089C
:1049500008080808083E00000000007C1010101035
:10496000101010101010110F0000007722120A0E04
:104970000A1212222277000000000007020202023F
:1049800002020202427F000000000077363636360F
:104990002A2A2A2A2A6B0000000000E346464A4AD7
:1049A00052525262624700000000001C2241414105
:1049B00041414141221C00000000003F424242426E
:1049C0003E020202020700000000001C2241414199
:1049D00041414D53321C60000000003F4242423EC4
:1049E0001212222242C700000000007C4242020450
:1049F00018204042423E00000000007F490808089D
:104A000008080808081C0000000000E74242424273
:104A100042424242423C0000000000E7424222245F
:104A200024141418080800000000006B4949494983
:104A30005555362222220000000000E742242418A7
:104A40001818242442E700000000007722221414E2
:104A500008080808081C00000000007E2120101033
:104A600008040442423F00000078080808080808CB
:104A70000808080808087800000002020404080872
:104A80000810102020204040001E101010101010A0
:104A90001010101010101E0000384400000000001C
:104AA0000000000000000000000000000000000006
:104AB00000000000000000FF0006080000000000E9
:104AC0000000000000000000000000000000003CAA
:104AD0004278444242FC0000000000030202021A35
:104AE00026424242261A0000000000000000003862
:104AF0004402020244380000000000604040407858
:104B00004442424264D80000000000000000003C23
:104B1000427E0202423C0000000000F08808087E4D
:104B200008080808083E0000000000000000007CA3
:104B300022221C023C42423C000000030202023AD4
:104B40004642424242E700000000000C0C00000E0A
:104B500008080808083E0000000000303000003857
:104B6000202020202020221E0000000302020272CA
:104B7000120A1612227700000000000E080808082A
:104B800008080808083E0000000000000000007F40
:104B90009292929292B70000000000000000003B49
:104BA0004642424242E70000000000000000003C94
:104BB00042424242423C0000000000000000001B54
:104BC00026424242221E0207000000000000007838
:104BD00044424242447840E0000000000000007778
:104BE0004C040404041F0000000000000000007CCE
:104BF00042023C40423E0000000000000008083E27
:104C000008080808083000000000000000000063E9
:104C10004242424262DC000000000000000000E767
:104C2000422424140808000000000000000000EBEB
:104C3000494955552222000000000000000000767E
:104C400024181818246E000000000000000000E77F
:104C50004224241418080807000000000000007E09
:104C600022100808447E000000C0202020202010D0
:104C7000202020202020C000101010101010101034
:104C80001010101010101010000608080808081066
:104C900008080808080806000C32C20000000000DE
:104CA00000000000000000003443101001344310E5
:104CB00010013031323334353637383941424344CC
:104CC0004546403058003031323334353637383984
:104CD000616263646566403078000000FC4C000847
:104CE000000000203C00000028010008384D0008AA
:104CF0003C0000202C0700004401000800A24A04E8
:104D0000000000000000000001020304060708097B
:104D10000000FFFF00000000000000000000000095
:104D2000000000000000000001020304010203046F
:084D3000060708090204060849
:04000005080000ED02
:00000001FF
