:020000040800F2
:1000000060070020910100086905000861050008EB
:1000100065050008490400086B0B0008000000009B
:1000200000000000000000000000000019070008A8
:100030004D04000800000000E10500082908000840
:10004000AB010008AB010008AB010008AB010008E0
:10005000AB010008AB010008AB010008AB010008D0
:10006000AB010008AB010008AB010008AB010008C0
:10007000AB010008AB010008AB010008AB010008B0
:10008000AB010008AB010008AB010008AB010008A0
:10009000AB010008AB010008AB010008AB01000890
:1000A000AB010008AB010008AB010008AB01000880
:1000B000AB010008AB010008AB010008AB01000870
:1000C000AB010008AB010008AB010008AB01000860
:1000D000AB0100088D080008AB010008AB01000867
:1000E000AB010008AB010008AB01000800F002F80A
:1000F00000F03FF80AA090E8000C82448344AAF183
:100100000107DA4501D100F034F8AFF2090EBAE880
:100110000F0013F0010F18BFFB1A43F0010318473B
:10012000940C0000B40C0000103A24BF78C878C1C9
:10013000FAD8520724BF30C830C144BF04680C60ED
:10014000704700000023002400250026103A28BF35
:1001500078C1FBD8520728BF30C148BF0B60704739
:10016000642900F07780002070471FB51FBD10B5CF
:1001700010BD00F039F91146FFF7F7FF00F050FD10
:1001800000F057F903B4FFF7F2FF03BC00F0EFFCF7
:100190000948804709480047FEE7FEE7FEE7FEE71B
:1001A000FEE7FEE7FEE7FEE7FEE7FEE70448054957
:1001B000054A064B704700002D080008ED000008B6
:1001C0006001002060070020600300206003002021
:1001D000704700000FB4044910B503AA029800F05C
:1001E000D5F810BC5DF814FB1C0000202DE9F0418F
:1001F0000E460446002020622046E168884730B35E
:10020000252805D0D4E901219047206A401CF2E757
:10021000E168204600278847050018D0A5F1410075
:10022000192802D820354FF4006732462946204667
:100230002760FFF795FF40B1012804D0F61D26F096
:1002400007060836D8E7361DD6E72846DAE7206ADB
:10025000BDE8F0812DE9F0410646002410687529BB
:10026000314616A511D0AFF30080002803DAC0F1A3
:10027000000013A507E031688A0701D511A502E047
:10028000490704D510A5012401E0AFF30080002147
:100290000A2306F1240707E0B0FBF3F203FB120088
:1002A000303078541046491C0028F5D123462A46A0
:1002B0003046BDE8F04100F00DB80000000000003D
:1002C0002D0000002B000000200000007047704748
:1002D000704770472DE9F0470D469946924604460F
:1002E00000F124080168880604D5E06921F01001B6
:1002F000216000E00120A84202DDA0EB050700E03C
:100300000027A16907EB050202EB0900A1EB000041
:10031000A0612078C00602D42046AFF300800026FA
:1003200008E0D4E901211AF806009047206A401C31
:10033000761C20624E45F4DB2078C0060AD52046A4
:10034000AFF3008006E0D4E9012130209047206A15
:10035000401C2062381EA7F10107F4DC07E0D4E955
:10036000012118F805009047206A401C2062281ED1
:10037000A5F10105F3DC2046AFF3008020780006EC
:1003800002D50220BDE8F0870120FBE7074B70B5DE
:100390000D467B4400F011F80446284600F020F892
:1003A00010B14FF0FF3070BD204670BD6F080000E7
:1003B00001694A1C02610878704700B58FB0CDE929
:1003C00001310021059105497944CDE90310114619
:1003D0006846FFF70BFF0FB000BD0000E5FFFFFF11
:1003E000007B00F080007047754600F029F8AE46AB
:1003F00005006946534620F00700854618B020B531
:10040000FFF7D4FEBDE820404FF000064FF0000794
:100410004FF000084FF0000B21F00701AC46ACE8AC
:10042000C009ACE8C009ACE8C009ACE8C0098D4619
:1004300070470446AFF300802046FFF7A3FE00009C
:1004400000487047FC00002000BFFEE770472DE920
:10045000F04102460025002600200023002400274A
:1004600091F803C00CF00F0591F803C01CF0100FB9
:1004700003D091F802C04CEA050591F800C0BCF128
:10048000000F31D0146800202BE04FF0010C0CFA63
:1004900000F3B1F800C00CEA03069E4220D18300AD
:1004A0004FF00F0C0CFA03F7BC4305FA03FC4CEABF
:1004B000040491F803C0BCF1280F06D14FF0010CE1
:1004C0000CFA00FCC2F814C00AE091F803C0BCF1B9
:1004D000480F05D14FF0010C0CFA00FCC2F810C017
:1004E000401C0828D1D31460B1F800C0BCF1FF0F44
:1004F00034DD546800202EE000F1080C4FF00108B4
:1005000008FA0CF3B1F800C00CEA03069E4221D1B0
:1005100083004FF00F0C0CFA03F7BC4305FA03FC01
:100520004CEA040491F803C0BCF1280F05D100F196
:10053000080C08FA0CF8C2F8148091F803C0BCF15A
:10054000480F07D100F1080C4FF0010808FA0CF829
:10055000C2F81080401C0828CED35460BDE8F0815A
:1005600000BFFEE700BFFEE77047000070B5002146
:1005700000230F22C4780CB3164C246804F4E06402
:10058000C4F5E064210AC1F10403CA40447804FAC6
:1005900003F184781440214309010F4C0678A155DA
:1005A000047804F01F050124AC4005786D114FF06C
:1005B000E02606EB8505C5F8004109E0047804F063
:1005C0001F050124AC40054D0678761145F82640FC
:1005D00070BD00000CED00E000E400E080E100E010
:1005E0007047000029B1064A12690243044B1A61A0
:1005F00004E0034A12698243014B1A61704700000C
:100600000010024029B1064A92690243044B9A61E4
:1006100004E0034A92698243014B9A6170470000EB
:100620000010024029B1064AD2680243044BDA6046
:1006300004E0034AD2688243014BDA60704700004D
:100640000010024030B500210022002400232D4D6F
:100650006D6805F00C0121B1042905D0082923D1CA
:1006600005E0294D056022E0274D05601FE0254D7E
:100670006D6805F47012234D6D6805F48034022511
:1006800005EB92421CB9214D554305600BE01D4D11
:100690006D6815F4003F03D01C4D5543056002E022
:1006A000194D5543056002E0174D056000BF00BFBE
:1006B000144D6D6805F0F0010909154D6B5C056876
:1006C000DD4045600F4D6D6805F4E061090A104D8D
:1006D0006B5C4568DD4085600A4D6D6805F46051CE
:1006E000C90A0B4D6B5C4568DD40C560054D6D6802
:1006F00005F44041890B074D6B5CC568B5FBF3F50C
:10070000056130BD0010024000127A0000093D0072
:100710002000002030000020704710B500F002F8E3
:1007200010BD00000CB50020019000903248006818
:1007300040F480303049086000BF2F48006800F462
:10074000003000900198401C0190009818B9019861
:10075000B0F5A06FF1D12848006810F4003F02D036
:100760000120009001E0002000900098012842D173
:100770002248006840F010002049086008460068E0
:1007800020F0030008600846006840F0020008609E
:10079000194840681849486008464068486008465B
:1007A000406840F4806048600846406820F47C104F
:1007B00048600846406840F4E81048600846006811
:1007C00040F08070086000BF0B48006810F0007FA8
:1007D000FAD00948406820F00300074948600846FD
:1007E000406840F00200486000BF0348406800F0E5
:1007F0000C000828F9D10CBD001002400020024076
:10080000042808D14FF0E021096941F004014FF0BC
:10081000E022116107E04FF0E021096921F00401B5
:100820004FF0E022116170477047000010B5134887
:10083000006840F00100114908600846406810490E
:1008400008400E494860084600680E4908400B49B8
:1008500008600846006820F4802008600846406868
:1008600020F4FE0048604FF41F008860FFF755FF3A
:100870004FF000600449086010BD00000010024005
:100880000000FFF8FFFFF6FE08ED00E010B540F2B3
:1008900025511D4800F0A5F810B31B4800F05CF985
:1008A000C4B21A48008810F4004F2BD117480088B2
:1008B00010F4804F0CD00A2C03D00020134908807C
:1008C00020E01248008840F400401049088019E0F8
:1008D0000D2C06D10D48008840F480400B4908805B
:1008E00010E00A480088C0F30D0009490C5407487D
:1008F0000088401C0549088008460088C72801DD9B
:100900000020088010BD00000038014018000020C1
:100910003400002021B1828942F40052828104E037
:1009200082894DF6FF731A408281704710B50446E4
:100930002048844209D101218803FFF773FE00217A
:100940004FF48040FFF76EFE32E01B48844209D12D
:1009500001214804FFF746FE00214FF40030FFF765
:1009600041FE25E01548844209D101218804FFF7A2
:1009700039FE00214FF48020FFF734FE18E01048C4
:10098000844209D10121C804FFF72CFE00214FF455
:100990000020FFF727FE0BE00A48844208D101211E
:1009A0000805FFF71FFE00214FF48010FFF71AFE25
:1009B00010BD0000003801400044004000480040E5
:1009C000004C00400050004002460020B1F5007F7E
:1009D00000D100BF13880B4201D0012000E00020AD
:1009E000704770B502460024002300250020A1F5C1
:1009F00010666A3E00D100BFC1F3421501F01F032B
:100A0000012606FA03F3012D02D19689334006E050
:100A1000022D02D1168A334001E0968A33400C122F
:100A2000012606FA04F41688344013B10CB10120F3
:100A300000E0002070BDF0B503460024002600252C
:100A40000020A1F510676A3F00D100BF1846C1F32E
:100A5000421401F01F06012707FA06F5012C01D107
:100A60000C3004E0022C01D1103000E014301AB137
:100A700007682F43076002E00768AF430760F0BDD7
:100A80002DE9F04786B005460E460024A24600BF79
:100A9000A1460027B08900B100BF2F462C8A4CF632
:100AA000FF700440F08804432C82AC894EF6F310AA
:100AB0000440B08831890843718908430443AC81FC
:100AC000AC8A4FF6FF400440B0890443AC8201A8D1
:100AD000FFF7B8FD1F48874202D1DDF810A001E002
:100AE000DDF80CA0A88910F4004F08D00AEBCA006A
:100AF00000EB0A1031684900B0FBF1F807E00AEB9F
:100B0000CA0000EB0A1031688900B0FBF1F86420DC
:100B1000B8FBF0F004012009642101FB1089A889C9
:100B200010F4004F08D0322000EBC900B0FBF1F008
:100B300000F00700044308E0322000EB09106421B4
:100B4000B0FBF1F000F00F0004432C8106B0BDE8CB
:100B5000F08700000038014001468888C0F3080093
:100B60007047C1F308028280704700BFFEE701466C
:100B700000BF704710B56FF00400FFF741FE0A4850
:100B800000680A49B0FBF1F009490870084600788E
:100B900000EB4001C1EBC0104FF6FF7101EAC0004D
:100BA0000449088010BD00000000002000127A00F7
:100BB00014000020160000200146114A12884A4302
:100BC0004FF0E0235A6100229A611A46126942F0FE
:100BD00001021A6100BF4FF0E022106910F0010F0E
:100BE00002D010F4803FF6D04FF0E022126922F0DC
:100BF00001024FF0E0231A6100229A617047000061
:100C00001600002000BF054A128812F0400FFAD0EB
:100C1000C2B2024B1B1D1A80704700000038014011
:100C200000261627FFF7A6FF4FF4165000F06EF8C7
:100C3000394620A0FFF7CEFA00BF40212348FFF736
:100C4000C3FE0128F9D122A0FFF7C4FA30E0214801
:100C5000008810F4004F1DD01E4805781EA0FFF735
:100C6000B9FA00240DE02248015D1848FFF779FF2A
:100C700000BF40211548FFF7A7FE0128F9D1601CED
:100C8000C4B2AC42EFDB1BA0FFF7A4FA002011496D
:100C900008800DE0701C86B2C82096FBF0F100FBC6
:100CA000116010B915A0FFF795FA0A20FFF784FF2D
:100CB000CDE700000D0AC4FAB7A2CBCDB5C4CFFB77
:100CC000CFA2CEAA3A25640D0A0D0A0000380140D1
:100CD0000A000000180000200D0AC4FAB7A2CBCD0C
:100CE000B5C4CFFBCFA2CEAA3A0D0A0D0A00000070
:100CF000340000200D0A0D0A0000000031323331AB
:100D000032333132333132330A00000010B586B04D
:100D10000446012144F20400FFF774FC2348FFF766
:100D200005FE4FF40070ADF8140003208DF8160096
:100D300018208DF8170005A91D48FFF788FB4FF410
:100D40008060ADF8140004208DF8170005A918483C
:100D5000FFF77DFB25208DF8000003208DF80100B2
:100D60008DF8020001208DF803006846FFF7FEFBB6
:100D700001940020ADF80800ADF80A00ADF80C00B1
:100D8000ADF810000C20ADF80E0001A90748FFF7E0
:100D900077FE012240F225510448FFF74CFE012165
:100DA0000248FFF7B7FD06B010BD00000038014053
:100DB00000080140D40D00080000002034000000AD
:100DC00028010008080E0008340000202C0700004D
:100DD0004401000800A24A040000000000000000D6
:100DE00001020304060708090000000000000000DB
:100DF00000000000000000000102030401020304DF
:080E00000607080902040608B8
:04000005080000ED02
:00000001FF
