:020000040800F2
:100000008007002091010008653100082D0C0008D0
:10001000613100081F070008E343000800000000EA
:10002000000000000000000000000000553500083E
:10003000AD070008000000001D3200081537000859
:10004000AB010008AB010008AB010008AB010008E0
:10005000AB010008AB010008AB010008AB010008D0
:10006000AB010008AB010008ED080008AB01000877
:10007000AB010008AB010008AB010008AB010008B0
:10008000AB010008AB010008AB010008AB010008A0
:10009000AB010008AB010008AB010008AB01000890
:1000A000AB010008AB010008AB010008AB01000880
:1000B000AB010008AB010008AB010008AB01000870
:1000C000AB010008AB010008AB010008AB01000860
:1000D000AB01000825410008AB010008AB01000896
:1000E000AB010008AB010008AB01000800F002F80A
:1000F00000F03FF80AA090E8000C82448344AAF183
:100100000107DA4501D100F034F8AFF2090EBAE880
:100110000F0013F0010F18BFFB1A43F0010318473B
:100120006C5A00008C5A0000103A24BF78C878C17D
:10013000FAD8520724BF30C830C144BF04680C60ED
:10014000704700000023002400250026103A28BF35
:1001500078C1FBD8520728BF30C148BF0B60704739
:10016000782900F07780002070471FB51FBD10B5BB
:1001700010BD00F039F91146FFF7F7FF04F0B2F9AE
:1001800000F057F903B4FFF7F2FF03BC04F02BF9BA
:100190000948804709480047FEE7FEE7FEE7FEE71B
:1001A000FEE7FEE7FEE7FEE7FEE7FEE70448054957
:1001B000054A064B7047000019370008ED0000089B
:1001C00080010020800700208003002080030020A1
:1001D000704700000FB4044910B503AA029800F05C
:1001E000CDF810BC5DF814FB180000202DE9F0419B
:1001F0000E460446002020622046E168884730B35E
:10020000252805D0D4E901219047206A401CF2E757
:10021000E168204600278847050018D0A5F1410075
:10022000192802D820354FF4006732462946204667
:100230002760FFF795FF40B1012804D0F61D26F096
:1002400007060836D8E7361DD6E72846DAE7206ADB
:10025000BDE8F08170B504460D4621461068AFF345
:1002600000802188090502D50F4A7A4402E00E4A2F
:100270007A440E32002104F1240305E000F00F0659
:100280000009965D5E54491C0028F7D120780023B0
:10029000000704D5702D02D009B102231132204687
:1002A000BDE8704000F011B8F45800007047704786
:1002B0007047704710B500F073F8006810BD10B5B6
:1002C000044600F06DF8046010BD2DE9F0470D46BE
:1002D00099469246044600F124080168880604D530
:1002E000E06921F01001216000E00120A84201DD59
:1002F000471B00E00027A1697A1902EB0900081AE0
:10030000A0612078C00602D42046AFF3008000260A
:1003100008E0D4E901211AF806009047206A401C41
:10032000761C20624E45F4DB2078C0060AD52046B4
:10033000AFF3008006E0D4E9012130209047206A25
:10034000401C2062381EA7F10107F4DC07E0D4E965
:10035000012118F805009047206A401C2062281EE1
:10036000A5F10105F3DC2046AFF3008020780006FC
:1003700002D50220BDE8F0870120FBE7074B70B5EE
:100380000D467B4400F015F80446284600F024F89A
:1003900010B14FF0FF3070BD204670BD43410000EA
:1003A000004870472001002001694A1C026108785A
:1003B000704700B58FB0CDE90131002105910549A5
:1003C0007944CDE9031011466846FFF70FFF0FB0DF
:1003D00000BD0000E5FFFFFF007B00F080007047DC
:1003E00000487047200100207546FFF7F9FFAE4630
:1003F00005006946534620F00700854618B020B531
:10040000FFF7D4FEBDE820404FF000064FF0000794
:100410004FF000084FF0000B21F00701AC46ACE8AC
:10042000C009ACE8C009ACE8C009ACE8C0098D4619
:1004300070470446AFF300802046FFF7A3FE00009C
:1004400010B504460FA22821084602F0E3FD13A2CE
:100450003C21282002F0DEFD16A25021282002F0C7
:10046000D9FD1AA26421282002F0D4FD17A264212C
:10047000282002F0CFFD22467821282002F0CAFD74
:1004800010BD000078313A20202020202020793132
:100490003A202020202020200000000078323A203E
:1004A00020202020202079323A20202020202020C7
:1004B0000000000078333A202020202020207933CB
:1004C0003A202020202020200000000078343A200C
:1004D00020202020202079343A2020202020202095
:1004E0000000000070B506460025002400201749D2
:1004F00008601749C1F88C01304600F06DF80620FD
:1005000003F0BCFF01201149086000201149C1F827
:10051000800100BF12E04FF6FF7000EA44040120A2
:100520000A49086000200B49C1F880010748783863
:10053000006808B1601C84B2681CC5B20F2DEADBEC
:10054000E410012004490860204670BD80812242E9
:1005500000802142008022428C8121422DE9F0411D
:1005600088B080460027002406E04046FFF7BAFF27
:100570002DF81400601C84B20F2CF6DB002416E06A
:10058000601C85B20FE03DF814003DF8151088425C
:1005900007DD3DF814603DF815002DF814002DF826
:1005A0001560681C85B20F2DEDDB601C84B20E2C2B
:1005B000E6DB0027052405E03DF81400384487B247
:1005C000601C84B20A2CF7DB052097FBF0F086B2A2
:1005D000304608B0BDE8F081002100BF15E000F012
:1005E00080021AB101220A4B1A6002E00022084B75
:1005F0001A604206100E0022054B1B1F1A600122D2
:10060000044BC3F880214A1CD1B20829E7DB7047AC
:10061000848122420080224210B500F031FB10BDDF
:100620002DE9F04107460C460026002509E0360278
:100630003919491B491E88B200F008F80644681CA5
:10064000C5B2A542F3DB3046BDE8F08170B5044683
:10065000002600F0C9FB2546E11704EB11610912E1
:10066000A02202EB4101C8B200F08AFB00F008FCB6
:10067000E11704EB11610912A4EB0121C8B200F0EB
:100680007FFB00F0FDFB00F0AFFBA12000F078FB4A
:1006900000F0F6FB002000F03BFB064600F0CAFB32
:1006A000304670BD2DE9F04105460E461746002440
:1006B00009E0E20026FA02F2D1B22A1990B200F063
:1006C00006F8601CC4B2BC42F3DBBDE8F08170B533
:1006D00004460E4600F088FB2546E11704EB116145
:1006E0000912A02202EB4101C8B200F049FB00F060
:1006F000C7FBE11704EB11610912A4EB0121C8B299
:1007000000F03EFB00F0BCFB304600F039FB00F08F
:10071000B7FB00F08FFB0A2003F08AFE70BD00BF1C
:10072000FEE700002DE9F0411F49881E02F08EFE11
:10073000B8B31D49891FB1F9140004F069FB0646DE
:100740001949891F888804F07BFB07461648801FDB
:10075000C168384604F088FB0546314604F0F8F9D4
:10076000044604F035FB1049891F0880B1F91600D2
:1007700004F04EFB06460C49891FC88804F060FB54
:1007800007460948801F0169384604F06DFB05469D
:10079000314604F0DDF9044604F01AFB0249891FD2
:1007A0004880BDE8F08100000A010020704770B564
:1007B00004460D462946204600F00EFC2946601CE2
:1007C00000F00AFC681C81B2204600F005FC681CA1
:1007D00081B2601C00F000FC70BD2DE9F0470646B8
:1007E0000F469046002445460320A0EB480948E008
:1007F0003A1B91B2721B90B200F0EEFB3A1B91B221
:10080000721990B200F0E8FB7A1991B2321B90B2E3
:1008100000F0E2FB3A1B91B2721B90B200F0DCFBDD
:100820007A1B91B2321B90B200F0D6FB3A1991B20A
:10083000721990B200F0D0FB7A1B91B2321990B2CB
:1008400000F0CAFB7A1991B2321990B200F0C4FBE1
:100850003A1991B2721B90B200F0BEFB641CB9F160
:10086000000F03DAA000801D814404E0601B8000BB
:100870000A3081446D1E7A1991B2321990B200F09B
:10088000ABFBAC42B4DDBDE8F08770B504460D4665
:10089000A4F10C0188B22B4604F10D02294600F0A8
:1008A00043FB05F10D0083B2193881B22246204680
:1008B00000F03AFB681C81B2601C00F08DFB6A1CE2
:1008C00091B2621E90B200F087FB681E81B2601C7C
:1008D00000F082FB6A1E91B2621E90B200F07CFBB7
:1008E000062229462046FFF778FF70BD0120034904
:1008F00008721020024908607047000004010020BF
:1009000014040140002123498279002A3AD00A4682
:10091000126803689A430B461A600A1D126803683E
:100920009A430B1D1A60027911440A6803681A433E
:100930000A60184A0832126803689A43154B083354
:100940001A601A1D126803689A43124B0C331A601E
:100950004279102A0ED11A1F126803681A430D4BF0
:1009600008331A601A1D126803681A43094B0C33C6
:100970001A600DE00749427911440A6803681A4376
:100980000A6005E0027911440A6803689A430A6024
:10099000704700000004014030B500228B071C0F97
:1009A0000F2303FA04F20B4B8C1053F824309343BB
:1009B000084C8D1044F8253023468C1053F8243011
:1009C0008C07240F00FA04F42343024C8D1044F8E2
:1009D000253030BD080001402DE9F04102460025D8
:1009E0000026002000230024002791F803C00CF00B
:1009F0000F0591F803C00CF0100CBCF1000F03D0F0
:100A000091F802C04CEA050591F800C0BCF1000F56
:100A100031D0146800202BE04FF0010C0CFA00F3E9
:100A2000B1F800C00CEA03069E4220D183004FF0CB
:100A30000F0C0CFA03F7BC4305FA03FC4CEA040460
:100A400091F803C0BCF1280F06D14FF0010C0CFA4D
:100A500000FCC2F814C00AE091F803C0BCF1480FD2
:100A600005D14FF0010C0CFA00FCC2F810C0401C7C
:100A70000828D1D31460B1F800C0BCF1FF0F34DDF9
:100A8000546800202EE000F1080C4FF0010808FA2D
:100A90000CF3B1F800C00CEA03069E4221D183009A
:100AA0004FF00F0C0CFA03F7BC4305FA03FC4CEAB9
:100AB000040491F803C0BCF1280F05D100F1080C23
:100AC00008FA0CF8C2F8148091F803C0BCF1480F82
:100AD00007D100F1080C4FF0010808FA0CF8C2F831
:100AE0001080401C0828CED35460BDE8F08100007F
:100AF000F0B50A46002300240021002500F000463E
:100B0000B6F1004F02D11D4EF16901E01B4E716834
:100B1000C0F3034583B200F44016B6F5401F08D178
:100B200021F07061154E766826F07066134F7E6076
:100B300012E000F48016B6F5801F06D1032606FAEF
:100B400005F4A14341F0706106E0460D360103FA59
:100B500006F6B14341F0706122B1460D360103FA49
:100B600006F6314300F00046B6F1004F02D1034EC5
:100B7000F16101E0014E7160F0BD00000000014034
:100B8000416170470161704770B53520FFF75EFD28
:100B900004460A2C40D104212820FFF741FD0446D9
:100BA000204604F035F905461C4904F033F81C4989
:100BB000C86004212C20FFF733FD0446204604F0D2
:100BC00027F90546154904F025F815490861022161
:100BD0003020FFF725FD00B2114988820221322022
:100BE000FFF71EFD00B20E49C8823420FFF72EFD2C
:100BF0000B4908760846007E30B1902009490870FC
:100C0000D0200949087005E0D020064908709020DE
:100C100005490870012070BD0020FCE720BCBE4CD7
:100C200004010020240000202500002000BFFEE772
:100C300010B500200F4908600F48006820F0704090
:100C40000D4908600846006840F0405008600020E8
:100C50000A49C1F89C01022003F010FC012005495B
:100C60000860022003F00AFC00200449C1F8980142
:100C700010BD000098812142000C014000802142FB
:100C800008B50121082002F0DBFAC020ADF8000011
:100C900010208DF8030003208DF8020069460548F6
:100CA000FFF79AFE0120044908600449C1F89C013D
:100CB00008BD0000000C01409881214200802142C3
:100CC00010B500200F4908600F48006820F0704000
:100CD0000D4908600846006840F040500860012057
:100CE0000A49C1F89C01022003F0C8FB0120054914
:100CF0000860022003F0C2FB00200449C1F89801FB
:100D000010BD000098812142000C0140008021426A
:100D100070B5054600241748006820F0704015495A
:100D200008600846006840F000400860002616E0B1
:100D3000002011490860022003F0A0FB01200F49A8
:100D4000C1F898016006040E0B487C38006808B1B1
:100D5000601CC4B2012003F091FB701CC6B2082EC7
:100D6000E6DB15B9FFF7ACFF01E0FFF761FF2046B6
:100D700070BD0000000C014098812142008021429A
:100D800070B504461548006820F0704013490860AB
:100D90000846006840F04050086000201049086094
:100DA000002517E0E0090E49091D08606006040EE1
:100DB000022003F063FB01200A49C1F898010220D8
:100DC00003F05CFB002006490860022003F056FB9C
:100DD000681CC5B2082DE5DB70BD0000000C0140A9
:100DE000988121420080214210B50F48006820F010
:100DF00070400D4908600846006840F040500860A7
:100E000001200A4908600A49C1F89801042003F04A
:100E100035FB002005490860042003F02FFB00206B
:100E20000349C1F8980110BD000C01409C8121428A
:100E30000080214210B50F48006820F070400D4935
:100E400008600846006840F04050086000200A49E9
:100E500008600A49C1F89C01042003F00FFB01203F
:100E6000054908600549C1F89C01042003F006FB10
:100E700010BD0000000C01409881214200802142F9
:100E800010B500241448006820F070401249086032
:100E90000846006840F00040086001200F490860E3
:100EA00003F0ECFA01200E49C1F8980103F0E6FACC
:100EB00007E0601CC4B2FA2C03DDFFF7BBFF012082
:100EC00010BD0648803800680028F2D10349091F88
:100ED000086000BFF4E70000000C01409C81214243
:100EE0000080214270B5044600250021084601F02B
:100EF00055FF02F0C7F800BF0DE04FF480700849BD
:100F00000861400048610748046080144861086136
:100F1000C01008616D1CB5F5963FEED370BD0000A2
:100F2000001001400C1801402DE9FF4F85B08146AB
:100F30008A460020049003900798A0EB09050898C2
:100F4000A0EB0A06CDF80890CDF804A0002D01DD35
:100F5000012705E00DB9002702E04FF0FF376D4291
:100F6000002E02DD4FF0010806E016B94FF0000830
:100F700002E04FF0FF387642B54201DD2C4600E03A
:100F800034464FF0000B21E0019A91B2029A90B2E0
:100F900000F022F804982844049003983044039009
:100FA0000498A04205DD0498001B04900298384480
:100FB00002900398A04205DD0398001B039001985E
:100FC000404401900BF101001FFA80FB601C834537
:100FD000DADD09B0BDE8F08F70B504460D4629464C
:100FE000204601F0DBFE02F04DF84FF48070074917
:100FF0000861400048610648008806490860881476
:10100000024948610861C010086170BD00100140CC
:101010001E0000200C18014008B50121512002F0EB
:101020000FF90121FE48FFF763FD4FF4F850ADF8CA
:10103000000010208DF8030003208DF8020069469F
:10104000F848FFF7C9FC4FF4F851F648FFF79AFD4E
:101050004FF6FF70ADF800006946F348FFF7BCFC9F
:101060004FF6FF71F048FFF78DFD322003F0E0F9F5
:101070000121002002F018F8322003F0D9F90020F5
:1010800001F02CFDE94908800846008828B108468F
:1010900000884FF6FF7188421BD1D32001F0E0FF9A
:1010A00001F0E4FC01F0E2FC01F0E0FC00F0BF0024
:1010B000DE490880084600884FF6FF7101EA0020EB
:1010C000DA49088001F0D2FCD84909880843D74999
:1010D0000880D6480188D6A0FFF77CF8D34800885E
:1010E00049F2413188427DD1CF2001F0B9FF4FF460
:1010F0008070CC490861400048610020CA490C3129
:1011000008608814C74948610861C0100861401030
:10111000086140004861C120C3490C31086088144F
:10112000C04948610861C010086140100861400072
:1011300048613020BC490C3108608814B9494861C5
:101140000861C0100861ED2001F08AFF4FF4807043
:10115000B4490861400048616420B3490C3108601B
:101160008814B04948610861C010086140100861E6
:10117000400048610320AC490C3108608814A9493B
:1011800048610861C0100861401008614000486172
:101190001220A5490C3108608814A24948610861F1
:1011A000C0100861401008614000486181209E49DC
:1011B0000C31086088149B4948610861C0100861BF
:1011C000E82001F04DFF4FF480709649086140001F
:1011D0004861852094490C31086088149149486120
:1011E000086100E0A1E3C010086140100861400000
:1011F000486110208C490C3108600002894948611F
:101200000861C010086140100861400048617A2000
:1012100085490C3108608814824948610861C01012
:101220000861CB2001F01CFF4FF480707D490861FC
:101230004000486139207C490C31086088147949A4
:1012400048610861C01008614010086140004861B1
:101250002C2075490C310860881472494861086176
:10126000C0100861401008614000486100206E49CC
:101270000C31086088146B4948610861C01008612E
:101280004010086140004861342067490C31086013
:101290008814644948610861C01008614010086101
:1012A00040004861022060490C310860C0025D497D
:1012B00048610861C0100861F72001F0D1FE4FF4C9
:1012C00080705849086140004861202056490C311F
:1012D0000860C001534948610861C0100861EA20F4
:1012E00001F0BEFE4FF480704E4908614000486135
:1012F00000204D490C31086088144A494861086152
:10130000C010086140100861400048610020464953
:101310000C3108608814434948610861C0100861B5
:10132000C02001F09DFE4FF480703E4908614000EE
:1013300048611B203C490C310860881439494861D8
:101340000861C0100861C12001F08AFE4FF480706E
:101350003449086140004861012033490C3108607C
:101360000003304948610861C0100861C52001F0E0
:1013700077FE4FF480702B490861400048613020AF
:1013800029490C3108608814264948610861C01059
:1013900008614010086140004861302022490C314A
:1013A000086088141F4948610861C0100861C7209F
:1013B00001F056FE4FF480701A4908614000486100
:1013C000B72019490C310860881416494861086132
:1013D000C0100861362001F043FE4FF480701149BF
:1013E00008614000486148200F490C3108608814AA
:1013F0000C4948610861C01008613A2001F030FED4
:101400004FF4807007490861400048615520064943
:101410000C3108608814034948610861C0100FE06E
:10142000000230000010014000180140220000209E
:10143000204C43442049443A25780D0A000000001E
:101440000861B12001F00CFE4FF48070FE49086184
:10145000400048610020FD4908608814FA4948614D
:101460000861C010086140100861400048611A20FE
:10147000F64908608814F44948610861C0100861A1
:10148000B62001F0EDFD4FF48070EF490861400097
:1014900048610A20ED4908608814EB4948610861F9
:1014A000C01008614010086140004861A220E7496F
:1014B00008608814E44948610861C0100861F2209E
:1014C00001F0CEFD4FF48070DF49086140004861B3
:1014D0000020DE4908608814DB4948610861C010BB
:1014E0000861262001F0BCFD4FF48070D6490861E8
:1014F000400048610120D54908600003D249486195
:101500000861C0100861E02001F0AAFD4FF480706E
:10151000CD490861400048610F20CC49086088141B
:10152000C94948610861C010086140100861400065
:1015300048612A20C54908608814C3494861086188
:10154000C010086140100861400048612820BF4970
:1015500008608814BC4948610861C01008614010E7
:101560000861400048610820B84908604002B64957
:1015700048610861C010086140100861400048617E
:101580000E20B24908608814AF4948610861C01054
:10159000086140100861400048610820AB490860BC
:1015A0004002A94948610861C01008614010086103
:1015B000400048615420A54908608814A249486148
:1015C0000861C01008614010086140004861A9200E
:1015D0009E49086088149C4948610861C0100861F0
:1015E0004010086140004861432098490860881411
:1015F000954948610861C0100861401008614000C9
:1016000048610A209149086088148F49486108613F
:10161000C010086140100861400048610F208B49EC
:1016200008608814884948610861C010086140104A
:10163000086140004861002084490860881482499C
:1016400048610861C01008614010086140004861AD
:1016500000207E49086088147B4948610861C010F9
:101660000861401008614000486100207749086027
:101670008814754948610861C0100861401008610C
:101680004000486100207149086088146E49486133
:101690000861C0100861E12001F0E2FC4FF48070A5
:1016A0006949086140004861002068490860881461
:1016B000654948610861C010086140100861400038
:1016C000486115206149086088145F4948610861D4
:1016D000C0100861401008614000486117205B4954
:1016E00008608814584948610861C01008614010BA
:1016F0000861400048610720544908608814524935
:1017000048610861C01008614010086140004861EC
:1017100011204E49086088144B4948610861C01087
:101720000861401008614000486106204749086090
:101730008814454948610861C0100861401008617B
:10174000400048612B204149086088143E494861A7
:101750000861C010086140100861400048615620CF
:101760003A4908608814384948610861C010086126
:1017700040100861400048613C20344908608814EA
:10178000314948610861C01008614010086140009B
:10179000486105202D49086088142B49486108617B
:1017A000C0100861401008614000486110202749BE
:1017B00008600002244948610861C01008614010B7
:1017C0000861400048610F202049086088141E49C4
:1017D00048610861C010086140100861400048611C
:1017E0003F201A4908608814174948610861C010F1
:1017F000086140100861400048613F2013490860BB
:101800008814114948610861C010086140100861DE
:10181000400048610F200D49086088140A4948615A
:101820000861C01008612B2001F01AFC4FF4807091
:101830000549086140004861002004490860881497
:1018400001494861086103E0001001400C180140A3
:10185000C010086140100861400048610020FE4946
:1018600008608814FD4948610861C0100861401093
:101870000861400048610120F74908600003F7490A
:1018800048610861C010086140100861400048616B
:101890003F20F14908608814F04948610861C01090
:1018A00008612A2001F0DCFB4FF48070EB490861ED
:1018B000400048610020E84908608814E749486111
:1018C0000861C010086140100861400048610020B4
:1018D000E14908608814E14948610861C010086165
:1018E00040100861400048610020DB49086088140E
:1018F000DA4948610861C010086140100861400081
:101900004861EF20D44908608814D44948610861CF
:10191000C0100861112001F0A3FB782002F088FDBF
:10192000292001F09DFB01F092B8CD48008849F2D2
:10193000253188427ED147F6F001E52001F0B4FB65
:101940004FF48071012001F0AFFB4FF4E061022001
:1019500001F0AAFB41F23001032001F0A5FB0021B8
:10196000042001F0A1FB40F20221082001F09CFBC1
:101970000021092001F098FB00210A2001F094FBCE
:1019800000210C2001F090FB00210D2001F08CFBC8
:1019900000210F2001F088FB0021102001F084FBC2
:1019A0000721112001F080FB0021122001F07CFBB7
:1019B0000021132001F078FB0021072001F074FBC7
:1019C00041F29061102001F06FFB40F227211120BD
:1019D00001F06AFB9D21122001F066FB4FF4C85113
:1019E000132001F061FB2521292001F05DFB0D2171
:1019F0002B2001F059FB0721302001F055FB40F26C
:101A00000331312001F050FB0321322001F04CFB67
:101A100040F20621352001F047FB0821362001F075
:101A200043FB40F20641372001F03EFB4FF4417189
:101A3000382000E057E001F037FB0721392001F0A2
:101A400033FB40F202613C2001F02EFB08213D20D7
:101A500001F02AFB0021502001F026FBEF2151204C
:101A600001F022FB0021522001F01EFB40F23F1149
:101A7000532001F019FB4FF42741602001F014FBC3
:101A80000121612001F010FB00216A2001F00CFB14
:101A90000021802001F008FB0021812001F004FBDF
:101AA0000021822001F000FB0021832001F0FCFADC
:101AB0000021842001F0F8FA0021852001F0F4FAD9
:101AC0001021902001F0F0FA4FF4C061922001F053
:101AD000EBFA40F23311072001F0E6FA2221002050
:101AE00001F0E2FA1FE75E48008849F22831884297
:101AF0007ED11021E72001F0D7FA0121002001F06A
:101B0000D3FA4FF48071012001F0CEFA4FF4E06176
:101B1000022001F0C9FA41F23001032001F0C4FAB9
:101B20000021042001F0C0FA40F20721082001F052
:101B3000BBFA0021092001F0B7FA00210A2001F0C8
:101B4000B3FA01210C2001F0AFFA00210D2001F0C1
:101B5000ABFA00210F2001F0A7FA0021102001F0BC
:101B6000A3FA0721112001F09FFA0021122001F0B1
:101B70009BFA0021132001F097FA322002F058FC62
:101B800041F29051102001F08FFA40F227211120EC
:101B900001F08AFA322002F04BFC9C21122001F065
:101BA00083FA322002F044FC4FF4C851132001F0B4
:101BB0007BFA2321292001F077FA0E212B2001F056
:101BC00073FA322002F034FC0021202001F06CFA7C
:101BD00040F23F11212001F067FA322002F028FC88
:101BE0000721302001F060FA40F20771312000E057
:101BF0008DE001F059FA0621322001F055FA40F249
:101C00000471352001F050FA41F60471362001F0DC
:101C10004BFA0421372001F047FA0021382001F067
:101C200043FA40F20671392001F03EFA40F20171A8
:101C30003C2001F039FA0F213D2001F035FA322025
:101C400002F0F6FB0021502001F02EFAEF21512086
:101C500001F02AFA002105E00C18014000100140B3
:101C600022000020522001F01FFA40F23F115320C1
:101C700001F01AFA4FF42741602001F015FA012112
:101C8000612001F011FA00216A2001F00DFA002113
:101C9000802001F009FA0021812001F005FA0021DD
:101CA000822001F001FA0021832001F0FDF90021DA
:101CB000842001F0F9F90021852001F0F5F91021C7
:101CC000902001F0F1F90021922001F0EDF90321BB
:101CD000932001F0E9F94FF48871952001F0E4F9BF
:101CE0000021972001F0E0F90021982001F0DCF9B3
:101CF00040F23311072001F0D7F90021202001F034
:101D0000D3F940F23F11212001F0CEF90BE6FE4855
:101D1000008849F22031884204D0FB480088B0F5A1
:101D2000134F7DD10021084601F0BEF94FF48071B8
:101D3000012001F0B9F94FF4E061022001F0B4F99B
:101D400041F23001032001F0AFF90021042001F03D
:101D5000ABF940F20221082001F0A6F90021092088
:101D600001F0A2F900210A2001F09EF901210C20C6
:101D700001F09AF900210D2001F096F900210F20C1
:101D800001F092F9322002F053FB40F201110720DA
:101D900001F08AF9322002F04BFB4FF486511020FB
:101DA00001F082F90721112001F07EF94FF48871CA
:101DB000122001F079F94FF43061132001F074F929
:101DC0000021292001F070F944F210012B2001F0CC
:101DD0006BF90021502001F067F9EF21512001F04B
:101DE00063F90021522001F05FF940F23F115320C6
:101DF00001F05AF94FF41C51602001F055F901210E
:101E0000612001F051F900216A2001F04DF9002113
:101E1000802001F049F90021812001F045F900E01E
:101E20002EE00021822001F03FF90021832001F003
:101E30003BF90021842001F037F90021852001F0D1
:101E400033F91021902001F02FF90021922001F0A8
:101E50002BF90121932001F027F94FF48871952087
:101E600001F022F90021972001F01EF900219820AD
:101E700001F01AF940F27311072001F015F952E54B
:101E8000A148008845F2084188427DD14FF4807115
:101E9000012001F009F94FF4E061022001F004F99A
:101EA00041F23001032001F0FFF80021042001F08D
:101EB000FBF840F20721082001F0F6F80021092084
:101EC00001F0F2F800210A2001F0EEF800210C20C8
:101ED00001F0EAF800210D2001F0E6F800210F20C2
:101EE00001F0E2F8142002F0A3FA41F2B0611020F0
:101EF00001F0DAF80121112001F0D6F801211720B4
:101F000001F0D2F84FF49C71122001F0CDF84FF49B
:101F10000061132001F0C8F80921292001F0C4F85C
:101F200009212A2001F0C0F80021A42001F0BCF80A
:101F30000021502001F0B8F8EF21512001F0B4F851
:101F40000021522001F0B0F840F23F11532001F07F
:101F5000ABF84FF41C51602001F0A6F8012161207C
:101F600001F0A2F800216A2001F09EF800218020F3
:101F700001F09AF80021812001F096F800218220DA
:101F800001F092F8002100E024E0832001F08CF8B9
:101F90000021842001F088F80021852001F084F8D8
:101FA0001321902001F080F80021922001F07CF8AC
:101FB0000321932001F078F84FF48871952001F007
:101FC00073F840F27311072001F06EF8322002F02E
:101FD0002FFAA8E44C48008841F2055188427DD18F
:101FE0000021072001F060F8322002F021FA4FF4BE
:101FF0008E71122001F058F80121A42001F054F84C
:102000000F21082001F050F808210A2001F04CF8B7
:1020100008210D2001F048F840F20771302001F04E
:1020200043F80721312001F03FF840F203613220EC
:1020300001F03AF84FF4E061332001F035F840F256
:102040000221342001F030F80221352001F02CF873
:1020500041F60F71362001F027F840F20771372062
:1020600001F022F80021382001F01EF8002139206B
:1020700001F01AF840F207713A2001F015F800213A
:102080003B2001F011F807213C2001F00DF8002160
:102090003D2001F009F8322002F0CAF901210720A1
:1020A00001F002F80121172000F0FEFF322002F0BB
:1020B000BFF94FF4BD51102000F0F6FF40F2172198
:1020C000112000F0F1FF4FF48F71122000F0ECFFAF
:1020D0004FF47061132000F0E7FF00E099E0002169
:1020E0002A2000F0E1FF0A21292000F0DDFF4FF453
:1020F0009F71122000F0D8FF0021502000F0D4FF83
:10210000EF21512002E000002200002000F0CCFF6F
:102110000021522000F0C8FF40F23F11532000F090
:10212000C3FF4FF41C51602000F0BEFF012161206D
:1021300000F0BAFF00216A2000F0B6FF00218020E5
:1021400000F0B2FF0021812000F0AEFF00218220CC
:1021500000F0AAFF0021832000F0A6FF00218420C8
:1021600000F0A2FF0021852000F09EFF13219020A7
:1021700000F09AFF4FF44071922000F095FF052186
:10218000932000F091FF0021952000F08DFF0021A9
:10219000972000F089FF0021982000F085FF4FF480
:1021A0008071012000F080FF4FF4E061022000F018
:1021B0007BFF41F23001032000F076FF0021042074
:1021C00000F072FF00210C2000F06EFF00210F20B4
:1021D00000F06AFF0021202000F066FF002121208E
:1021E00000F062FF2121072000F05EFF142002F0C2
:1021F0001FF96121072000F057FF142002F018F9A1
:1022000040F27311072000F04FFF142002F010F984
:1022100068E4FE4800884BF2055188427ED10021D7
:10222000084600F041FF0021084600F03DFF002174
:10223000084600F039FF0021084600F035FF012173
:10224000A42000F031FF142002F0F2F84FF41C51EA
:10225000602000F029FF40F20221082000F024FF56
:102260004FF40571302000F01FFF43F2157131204B
:1022700000F01AFF40F20461322000F015FF40F632
:102280001661332000F010FF42F21121342000F0DB
:102290000BFF4FF4A851352000F006FF48F207511C
:1022A000362000F001FF41F20741372000F0FCFE2C
:1022B00041F20341382000F0F7FE2021392000F0E0
:1022C000F3FE1A21902000F0EFFE0021102000F014
:1022D000EBFE0721112000F0E7FE0021122000F0A4
:1022E000E3FE0021132000F0DFFE142002F0A0F82E
:1022F0004FF4E661102000F0D7FE40F237111120B4
:1023000000F0D2FE142002F093F84FF4DC7112209A
:1023100000F0CAFE142002F08BF800E083E04FF4D6
:102320007061132000F0C0FE80212A2000F0BCFE66
:102330004821292000F0B8FE142002F079F84FF46B
:102340008071012000F0B0FE4FF4E061022000F047
:10235000ABFE41F23021032000F0A6FE40F2022144
:10236000082000F0A1FE00210A2000F09DFE0021BF
:102370000C2000F099FE00210D2000F095FE302188
:102380000E2000F091FE0021502000F08DFEEF2184
:10239000512000F089FE0021522000F085FE40F21D
:1023A0003F11532000F080FE4FF41C51602000F0DC
:1023B0007BFE0121612000F077FE00216A2000F001
:1023C00073FE1121902000F06FFE4FF4C061922047
:1023D00000F06AFE40F20241932000F065FE022107
:1023E000942000F061FE142002F022F80121072061
:1023F00000F05AFE142002F01BF86121072000F0C3
:1024000053FE40F27311072000F04EFE0021202001
:1024100000F04AFE0021212000F046FE222100208B
:1024200000F042FE13E3794800884CF205518842DF
:102430007ED10021084600F037FE0021084600F05A
:1024400033FE142001F0F4FF0021084600F02CFEBA
:102450000021084600F028FE0021084600F024FE76
:102460000021084600F020FE0121A42000F01CFEFF
:10247000142001F0DDFF4FF41C51602000F014FE29
:1024800040F60601082000F00FFE40F203713020F4
:1024900000F00AFE0121312000F006FE0421322066
:1024A00000F002FE4FF48171332000F0FDFD4FF487
:1024B0004071342000F0F8FD40F20311352000F0A7
:1024C000F3FD1F21362000F0EFFD40F203713720AD
:1024D00000F0EAFD0121382000F0E6FD042139205A
:1024E00000F0E2FD1521902000F0DEFD4FF4826146
:1024F000102000F0D9FD40F24721112000F0D4FD5A
:102500004FF4DE71122000F0CFFD4FF46061132014
:1025100000F0CAFD782001F08BFF4FF4807101209C
:1025200000F0C2FD4FF40071022000F0BDFD00E09C
:1025300050E041F23001032000F0B6FD08210A20EE
:1025400000F0B2FD00210C2000F0AEFD20210E2095
:1025500000F0AAFD00210F2000F0A6FD00212020A0
:1025600000F0A2FD0021212000F09EFD3D212A2047
:1025700000F09AFD142001F05BFF2D21292000F0CE
:1025800093FD0021502000F08FFD4DF2EF0151200E
:1025900000F08AFD0021522000F086FD40F23F113C
:1025A000532000F081FD0021612000F07DFD00211D
:1025B0006A2000F079FD4FF44071922000F074FD24
:1025C0000521932000F070FD4FF48071072000F08A
:1025D0006BFD3CE20D48008848F6891188427DD1A8
:1025E0000121002000F060FD4AF6A401032000F064
:1025F0005BFD00210C2000F057FD40F60C010D2082
:1026000000F052FD4FF42C510E2001E0220000207A
:1026100000F04AFDB0211E2000F046FD42F63F3199
:10262000012000F041FD4FF4C061022000F03CFDAC
:102630000021102000F038FD46F27001112000F05A
:1026400033FD0021052000F02FFD0021062000F0C1
:102650002BFD4EF61C71162000F026FD03211720DD
:1026600000F022FD40F23321072000F01DFD002183
:102670000B2000F019FD00210F2000F015FD0021B6
:10268000412000F011FD0021422000F00DFD00214D
:10269000482000F009FD40F23F11492000F004FD00
:1026A00000214A2000F000FD00214B2000F0FCFC3E
:1026B0004FF46F41442000F0F7FC0021452000F06A
:1026C000F3FC40F23F11462000F0EEFC40F20771AF
:1026D000302000F0E9FC4FF4017100E040E03120CF
:1026E00000F0E2FC4FF40171322000F0DDFC40F21A
:1026F0000251332000F0D8FC40F20751342000F0A2
:10270000D3FC4FF40171352000F0CEFC4FF4017181
:10271000362000F0C9FC40F20251372000F0C4FC22
:1027200040F202313A2000F0BFFC40F202313B207F
:1027300000F0BAFC0021232000F0B6FC0021242088
:1027400000F0B2FC4FF40041252000F0ADFC002168
:102750004F2000F0A9FC00214E2000F0A5FC76E1FE
:10276000C048008844F2315188427DD101210020C7
:1027700000F09AFC0A2001F05BFE41F22861102073
:1027800000F092FC0E21122000F08EFC40F6392160
:10279000132000F089FC0A2001F04AFE402111209C
:1027A00000F082FC5021152000F07EFC0A2001F090
:1027B0003FFE1E21122000F077FC0A2001F038FEB7
:1027C0004FF4B151102000F06FFC42F63921132074
:1027D00000F06AFC0A2001F02BFE4FF4807101200A
:1027E00000F062FC4FF44071022000F05DFC41F209
:1027F0003001032000F058FC40F20221082000F0D4
:1028000053FC08210A2000F04FFC0021302000F08A
:102810004BFC40F20241312000F046FC4FF4837142
:10282000322000F041FC40F20351332000F03CFC28
:102830004FF48271342000F037FC40F20131352032
:1028400000F032FC40F20771362000F02DFC40F21F
:102850000531372000F028FC4FF40271382000F0D9
:1028600023FC40F60B7100E03CE0392000F01CFC3A
:102870000221412000F018FC4FF41C51602000F0B0
:1028800013FC0121612000F00FFC4FF40471902033
:1028900000F00AFC4FF48571922000F005FC042141
:1028A000932000F001FC4FF48071A02000F0FCFBAD
:1028B0000121072000F0F8FB2121072000F0F4FBA4
:1028C0002321072000F0F0FB3321072000F0ECFB70
:1028D00040F23311072000F0E7FB0021A02000F0B8
:1028E000E3FBB4E05F48008844F235518842F8D1F8
:1028F0003021152000F0D8FB10219A2000F0D4FBE5
:102900002021112000F0D0FB43F22841102000F0DC
:10291000CBFB0221122000F0C7FB41F2380113204B
:1029200000F0C2FB282001F083FD1221084600F0D0
:10293000BBFB282001F07CFD43F22041102000F079
:10294000B3FB43F23801132000F0AEFB462001F048
:102950006FFD0021302000F0A7FB40F20241312042
:1029600000F0A2FB40F20731322000F09DFB4FF453
:102970004171332000F098FB0421342000F094FBD7
:1029800040F20141352000F08FFB40F20771362004
:1029900000F08AFB40F20531372000F085FB4FF450
:1029A000C261382000F080FB4FF4C261392000F092
:1029B0007BFB4FF48071012000F076FB4FF44071F7
:1029C000022000F071FB41F23001032000F06CFBAB
:1029D00040F60801082000F067FB08210A2000F0FB
:1029E00063FB4FF41C51602000F05EFB012161206D
:1029F00000F05AFB4FF49F71902000F055FB4FF40C
:102A00008071922000F050FB4FF48071932000F011
:102A10004BFB4FF44051A02000F046FB1021A320B7
:102A200000F042FB0121072000F03EFB212107209E
:102A300000F03AFB2321072000F036FB332107206A
:102A400000F032FB40F23311072000F02DFB002094
:102A500000F04CF80120044908604FF6FF70FEF7C3
:102A600041FA08BD22000020A801224210B54FF013
:102A7000883017490860091D0860002014490C318E
:102A8000086088151349086140004861800048616A
:102A90001148008848F68911884202D1022001F0CD
:102AA000EDFC4FF400600B490861094808300068EC
:102AB00084B2481508614FF0333005490860091D9C
:102AC00008604FF6FF7002490C310860204610BDC7
:102AD00000180140001001402200002010B50446FB
:102AE000204600F0BDFAFFF7C1FF10BD70B50546E6
:102AF00000240026A648008849F2413188427DD151
:102B0000082D1CD2DFE805F00406090C0F12151879
:102B100000BF14E044F0800411E044F040040EE0F3
:102B200044F0C0040BE044F0200408E044F06004EA
:102B300005E044F0A00402E044F0E00400BF00BF60
:102B4000362644F008042146304600F0ADFA04F081
:102B50002000002875D02A2000F082FA4FF48070FF
:102B60008C4908614000486100208B490860881446
:102B7000884948610861C010086140100861400040
:102B800048610020844908608814824948610861CE
:102B9000C0100861401008614000486101207E4972
:102BA000086000037B4948610861C010086140105B
:102BB0000861400048613F207749086088147549E2
:102BC00048610861C01008612B2000F049FA4FF4F9
:102BD0008070704908614000486100206E490860BB
:102BE00088146C4948610861C01008614010086190
:102BF0004000486100206849086000E094E08814C3
:102C0000644948610861C0100861401008614000D3
:102C1000486100206049086088145E494861086185
:102C2000C01008614010086140004861EF205A4917
:102C300008608814574948610861C0100861A5E020
:102C4000FFE72A2000F00CFA4FF480705149086128
:102C50004000486100205049086088144D4948618F
:102C60000861C01008614010086140004861002000
:102C7000494908608814474948610861C0100861E3
:102C800040100861400048610020434908608814F2
:102C9000404948610861C010086140100861400067
:102CA0004861EF203C49086088143A49486108614E
:102CB000C01008612B2000F0D3F94FF48070354923
:102CC0000861400048610020334908608814314998
:102CD00048610861C0100861401008614000486107
:102CE00000202D49086088142A4948610861C010F5
:102CF00008614010086140004861012026490860D1
:102D00000003244948610861C0100861401008614F
:102D1000400048613F202049086088141D494861EF
:102D20000861C010086131E0082D1CD2DFE805F011
:102D300004070A0D0F12151844F0300413E044F094
:102D4000100410E044F020040DE000BF0BE044F05C
:102D5000380408E044F0280405E044F0180402E0D8
:102D600044F0080400BF00BF0948008848F68911F4
:102D7000884204D1112646F24000044302E00326B3
:102D800044F480542146304600F08EF970BD0000B6
:102D900022000020001001400C18014030B504460C
:102DA0000D462E48008848F68911884208D12146F0
:102DB0004E2000F079F929464F2000F075F94CE0DB
:102DC0002648008849F2413188423ED12A2000F04D
:102DD00047F94FF480702249086140004861201291
:102DE0002049086088141E4948610861C0100861C4
:102DF0004010086140004861E0B21A490860881438
:102E0000174948610861C01008612B2000F028F9BB
:102E10004FF480701249086140004861281211493E
:102E2000086088140E4948610861C01008614010AC
:102E3000086140004861E8B20A49086088140849FE
:102E400048610861C010086107E02146202000F0B9
:102E50002BF92946212000F027F930BD220000205F
:102E6000001001400C1801402DE9F84F0746894633
:102E700016461D46BB463E4800880090E82F02DCFF
:102E8000B9F59C7F01DDBDE8F88FA6F12000C6B240
:102E90000A98002839D1002434E00C2D07D106EB24
:102EA0004600344901EB800010F804A004E03248E9
:102EB00000EB061010F804A04FF0000816E00AF02E
:102EC000010018B12A490098088003E02B480088C7
:102ED0002749088049463846FEF77EF84FEA6A0AD5
:102EE000781C87B208F1010000F0FF0805EBD571EE
:102EF000B8EB610FE3DB5F4609F101001FFA80F9CF
:102F0000601CC4B2AC42C8DB2DE0002429E00C2DCB
:102F100007D106EB4600174901EB800010F804A02A
:102F200004E0154800EB061010F804A04FF000086C
:102F300010E00AF0010038B109EB040291B207EB8E
:102F4000080290B2FEF748F84FEA6A0A08F1010059
:102F500000F0FF0805EBD571B8EB610FE9DB601CF1
:102F6000C4B2AC42D3DB02490098088000BF8AE7B4
:102F70001E000020FE5000087255000820000020AE
:102F80002DE9FF4F81B0074691461E460E9D4FF03A
:102F9000000A002439E0301B401EC1B20A2001F0B3
:102FA0002DFBB9FBF0F00A21B0FBF1F201FB120896
:102FB000BAF1000F16D1701EA04213DDB8F1000F58
:102FC0000ED10020AB4605EBDB71491001FB04710B
:102FD000009088B22B4620220299FFF745FF12E0AD
:102FE0004FF0010A0020AB4605EBDB71491001FBF5
:102FF0000471009088B208F13001CAB22B460299E0
:10300000FFF732FF00BF601CC4B2B442C3DB05B09F
:10301000BDE8F08FF8B505460E4614461BE0E82DD6
:1030200003DD002506F1100086B2B6F59C7F06DDB3
:103030000020054606464FF6FF70FDF753FF0020BF
:1030400000902278102331462846FFF70DFF05F146
:10305000080085B2641C20780028E0D1F8BD00008B
:103060004FF48071054A516149005161044908607B
:10307000891451611161C91011617047001001403C
:103080000C18014000B50748008849F241318842D8
:1030900003D12C20FFF7E4FF02E02220FFF7E0FF3E
:1030A00000BD00002200002010B504460B4620465B
:1030B000FFF7D6FF4FF48070054908614000486172
:1030C00004480360801448610861C010086110BDA5
:1030D000001001400C18014010B501210348FDF714
:1030E00051FD4FF4FA7001F0A3F910BD000C01403E
:1030F00010B501210348FDF743FD4FF4FA7001F0CC
:1031000097F910BD000C014008B50121082000F01E
:1031100097F80320ADF8000010208DF8030003207D
:103120008DF8020069460248FDF756FC08BD000014
:10313000000C014010B54FF6FF70FDF7D3FE1F20C5
:103140000549088005A20021D820FFF763FF4FF44E
:1031500078400149088010BD1E00002052535400E1
:1031600000BFFEE7704710B54FF4A06000F03AF8DA
:1031700010BD000070B5002100230F22C47804B3F5
:10318000154C246804F4E064C4F5E064210AC1F13C
:103190000403CA40447804FA03F1847814402143BC
:1031A00009010E4C0678A155047804F01F0501248E
:1031B000AC4005786D11AD0005F1E025C5F8004182
:1031C00009E0047804F01F050124AC40044D0678A2
:1031D000761145F8264070BD0CED00E000E400E0FB
:1031E00080E100E002490143024A1160704700009B
:1031F0000000FA050CED00E030B10749096841F024
:103200001001054A116005E00349096821F0100129
:10321000014A11607047000000040140704700003F
:1032200029B1064A12690243044B1A6104E0034AB9
:1032300012698243014B1A6170470000001002407E
:1032400029B1064A92690243044B9A6104E0034A99
:1032500092698243014B9A6170470000001002405E
:1032600029B1064AD2680243044BDA6004E0034AFB
:10327000D2688243014BDA607047000000100240C0
:103280002DE9F04100210022002500230026002422
:1032900000278C46DFF86081D8F8048008F00C0124
:1032A00021B1042907D0082959D109E0DFF84C8160
:1032B000C0F8008058E0DFF84881C0F8008053E093
:1032C000DFF83481D8F8048008F47012DFF8288120
:1032D000D8F8048008F48035920C0D2A01D0921C95
:1032E00000E0062235B9DFF81C8102FB08F8C0F8BF
:1032F000008033E0DFF80081D8F82C8008F48036B5
:10330000DFF8F480D8F82C8008F00F0808F10104E9
:1033100046B9DFF8EC80B8FBF4F808FB02F8C0F817
:1033200000801BE0DFF8D080D8F82C80C8F30318A9
:1033300008F10107DFF8C080D8F82C80C8F3032813
:1033400008F1020CDFF8B880B8FBF7F808FB0CF8BE
:10335000B8FBF4F808FB02F8C0F8008004E0DFF8DE
:103360009C80C0F8008000BF00BFDFF88C80D8F8D8
:10337000048008F0F0010909DFF88C8018F80130AA
:10338000D0F8008028FA03F8C0F80480DFF86880DD
:10339000D8F8048008F4E061090ADFF86C8018F8B6
:1033A0000130D0F8048028FA03F8C0F80880DFF86C
:1033B0004880D8F8048008F46051C90ADFF84880D2
:1033C00018F80130D0F8048028FA03F8C0F80C800F
:1033D000DFF82480D8F8048008F44041890BDFF836
:1033E0002C8018F80130D0F80C80B8FBF3F8C0F846
:1033F0001080BDE8F08100000010024000127A0049
:1034000040787D0100093D002600002036000020A4
:103410002DE9F04104460D460A480078FDF79EF874
:10342000064609480078FDF799F80746642E01DB47
:10343000642F02DA0020BDE8F08126802F80012071
:10344000F9E7000024000020250000207FB5044695
:103450000D4602A903A8FFF7DBFF064616B90020B8
:1034600004B070BD694601A8FFF7D2FF06460EB949
:103470000020F5E7BDF80400BDF80C10884206DC1A
:10348000BDF80C10BDF80400323081420CDBBDF8F1
:103490000C00BDF80410884236DCBDF80410BDF8FD
:1034A0000C00323081422FDABDF80000BDF8081060
:1034B000884206DCBDF80810BDF8000032308142B9
:1034C0000CDBBDF80800BDF8001088421CDCBDF81C
:1034D0000010BDF808003230814215DABDF80C103A
:1034E000BDF80420881800EBD071C1F34F01218092
:1034F000BDF80810BDF80020881800EBD071C1F3AA
:103500004F0129800120ABE70020A9E710B5002476
:103510000020FFF771FE00200C490872891D881EEB
:10352000FFF794FF04E0601CC4B20A2000F080FFA3
:103530000748006808B9FA2CF5DD0120FFF75CFEAA
:10354000FA2C01DB002010BD0120FCE70401002063
:10355000108121427047000070B51A49C8681A49A5
:1035600001F082FC054601F017FC044604222146C6
:103570002820FDF797F813490869134901F074FCF6
:10358000054601F009FC0446042221462C20FDF7E3
:1035900089F80C48B0F9141002223020FDF782F8A7
:1035A0000848B0F9161002223220FDF77BF80548D2
:1035B000017E3420FDF78BF80A2421463520FDF7E3
:1035C00086F870BD0401002020BCBE4C10B500F090
:1035D00001F810BD0CB50020019000903F48006834
:1035E00040F480303D49086000BF3C48006800F46A
:1035F000003000900198401C0190009818B9019883
:10360000B0F5A06FF1D13548006800F4003010B17A
:103610000120009001E000200090009801285CD17A
:103620002F48006840F010002D49086008460068E7
:1036300020F0030008600846006840F002000860BF
:103640002648406825494860084640684860084662
:10365000406840F4806048600846C06A21490840DC
:103660001E49C8620846C06A1F4908431B49C86210
:103670000846006840F08060086000BF1748006896
:1036800000F000600028F9D01448406820F47C1055
:10369000124948600846406840F4E810486008460F
:1036A000006840F08070086000BF0C48006800F0BF
:1036B00000700028F9D00948406820F0030007494D
:1036C00048600846406840F00200486000BF034878
:1036D000406800F00C000828F9D10CBD0010024031
:1036E0000020024000F0FEFF44060100042808D13B
:1036F0004FF0E021096941F004014FF0E02211612F
:1037000007E04FF0E021096921F004014FF0E022C9
:10371000116170477047000010B51648006840F00E
:1037200001001449086008464068134908401149DF
:10373000486008460068114908400E49086008467C
:10374000006820F4802008600846406820F4FE00ED
:1037500048600846006820F0A05008604FF47F00E1
:1037600088600020C862FFF731FF4FF00060044915
:10377000086010BD001002400000FFF0FFFFF6FEE1
:1037800008ED00E000B591B000200B900B901F20D9
:10379000FE4908804FF6FF70FD490880FDF7A2FB47
:1037A0004FF47840F94908804FF6FF70FDF79AFB17
:1037B00014210846FDF769F80020F6490872C86030
:1037C00050E2F448007A012875D1FFF79FFE88B1D6
:1037D000F048808801B20CAA0B9822F82010ED481E
:1037E000C08801B20B9802EB800041800B98401C0E
:1037F000C0B20B900B98012806D002280DD00328E8
:1038000015D0042808D11CE04FF6FF70FDF76AFBC5
:103810001421DC20FDF739F8D7E34FF6FF70FDF7F0
:1038200061FB4FF496711420FDF72FF8CDE34FF6AE
:10383000FF70FDF757FB4FF49671DC20FDF725F87C
:10384000C3E3BDF93000BDF93410401A05900028DB
:1038500001DB059801E0059840420890BDF932105F
:10386000BDF93600081A0590002801DB059801E033
:1038700005984042079008984043089007984043B5
:103880000790DDE907100844019000F076FFCDE9CC
:10389000020100F0BEFECDE9040100F041FF80B25C
:1038A0000A90BDF93800BDF93C10401A0590002877
:1038B00002DB059802E089E3059840420890BDF9D3
:1038C0003A10BDF93E00081A0590002801DB059862
:1038D00001E00598404207900898404308900798F7
:1038E00040430790DDE907100844019000F045FFD0
:1038F000CDE9020100F08DFECDE9040100F010FFDA
:1039000080B20990099801F09BFA05900A9801F09D
:1039100097FA0490059901F07DF90690069801F058
:10392000EBF84FF066329C4BCDE9040100F038FF14
:103930000ED3069801F0E0F8984A994BCDE90401BE
:1039400000F0BEFF04D30A9810B10998002876D180
:1039500000200B904FF6FF70FDF7C4FA14210846C3
:10396000FCF793FF8FA0FCF76BFD10200090BDF9D2
:10397000300004230246282105904020FFF700FB79
:1039800010200090BDF93200042302462821059042
:103990009020FFF7F5FA10200090BDF934000423C1
:1039A00002463C2105904020FFF7EAFA10200090E3
:1039B000BDF93600042302463C2105909020FFF714
:1039C000DFFA10200090BDF9380004230246502190
:1039D00005904020FFF7D4FA10200090BDF93A007E
:1039E00004230246502105909020FFF7C9FA1020C9
:1039F0000090BDF93C00042302466421059040205C
:103A0000FFF7BEFA10200090BDF93E0004230246E5
:103A1000642105909020FFF7B3FA6549069801F0FC
:103A200023FA049001F0D4F90590102003230090AC
:103A30008C212820059AFFF7A3FAC8E2FFE7BDF919
:103A40003000BDF93810401A0590002801DB0598B8
:103A500001E0059840420890BDF93210BDF93A00E6
:103A6000081A0590002801DB059801E005984042FE
:103A70000790089840430890079840430790DDE975
:103A800007100844019000F078FECDE9020100F033
:103A9000C0FDCDE9040100F043FE80B20A90BDF9FB
:103AA0003400BDF93C10401A0590002801DB059850
:103AB00001E0059840420890BDF93610BDF93E007E
:103AC000081A0590002801DB059801E0059840429E
:103AD0000790089840430890079840430790DDE915
:103AE00007100844019000F048FECDE9020100F003
:103AF00090FDCDE9040100F013FE80B20990099811
:103B000001F09EF905900A9801F09AF90490059940
:103B100001F080F80690069800F0EEFF4FF0663254
:103B20001D4BCDE9040100F03BFE09D3069800F0DF
:103B3000E3FF1A4A1A4BCDE9040100F0C1FE7DD221
:103B400000200B904FF6FF70FDF7CCF914210846CA
:103B5000FCF79BFE17A0FCF773FC10200090BDF94A
:103B6000300004230246282105904020FFF708FA80
:103B700010200090BDF93200042302462821059050
:103B80009020FFF7FDF91020009019E01E000020A2
:103B900020000020040100206666EE3FCDCCCCCC96
:103BA000CCCCF03F766572206661632069733A0081
:103BB0000000C842686F72206661632069733A0032
:103BC000BDF93400042302463C2105904020FFF754
:103BD000D7F910200090BDF93600042302463C219D
:103BE00005909020FFF7CCF910200090BDF9380027
:103BF00004230246502105904020FFF7C1F9102010
:103C00000090BDF93A00042302465021059090200F
:103C1000FFF7B6F910200090BDF93C0004230246DE
:103C2000642105904020FFF7ABF910200090BDF90A
:103C30003E00042302466421059000E013E090203A
:103C4000FFF79EF9E349069801F00EF9049001F0A0
:103C5000BFF805901020032300908C212820059A9E
:103C6000FFF78EF9B3E1BDF93400BDF93810401A01
:103C70000590002801DB059801E005984042089076
:103C8000BDF93610BDF93A00081A0590002801DB8D
:103C9000059801E005984042079008984043089035
:103CA000079840430790DDE907100844019000F0B1
:103CB00064FDCDE9020100F0ACFCCDE9040100F0A7
:103CC0002FFD80B20A90BDF93000BDF93C10401ABA
:103CD0000590002801DB059801E005984042089016
:103CE000BDF93210BDF93E00081A0590002801DB2D
:103CF000059801E0059840420790089840430890D5
:103D0000079840430790DDE907100844019000F050
:103D100034FDCDE9020100F07CFCCDE9040100F0A6
:103D2000FFFC80B20990099801F08AF805900A9882
:103D300001F086F80490059900F06CFF0690069853
:103D400000F0DAFE4FF06632A34BCDE9040100F03B
:103D500027FD09D3069800F0CFFEA04AA04BCDE97D
:103D6000040100F0ADFD76D200200B904FF6FF70FD
:103D7000FDF7B8F814210846FCF787FD99A0FCF779
:103D80005FFB10200090BDF930000423024628217B
:103D900005904020FFF7F4F810200090BDF93200A4
:103DA00004230246282105909020FFF7E9F810200F
:103DB0000090BDF93400042302463C2105904020C8
:103DC000FFF7DEF810200090BDF93600042302460C
:103DD0003C2105909020FFF7D3F810200090BDF90A
:103DE000380004230246502105904020FFF7C8F810
:103DF00010200090BDF93A0004230246502105909E
:103E00009020FFF7BDF810200090BDF93C0004237E
:103E10000246642105904020FFF7B2F81020009080
:103E2000BDF93E0004230246642105909020FFF76F
:103E3000A7F86849069801F017F8049000F0C8FF49
:103E400005901020032300908C212820059AFFF76D
:103E500097F8BCE0FFE7BDF93400BDF93010401A17
:103E6000049000F0D5FF01460590614800F0D2FEB5
:103E70006049C860BDF93400BDF9301008440190B4
:103E800000F0C6FF02905B48C068014601900298AE
:103E900000F0EAFF5849039001F0B2F84FF080417A
:103EA000049000F0B7FE059000F076FF00B2514993
:103EB0008882BDF93A00BDF93210401A049000F032
:103EC000A7FF014605904D4800F0A4FE494908614E
:103ED000BDF93A00BDF932100844019000F098FF96
:103EE00002904448006901460190029800F0BCFF2E
:103EF0004349039001F084F84FF08041049000F0B2
:103F000089FE059000F048FF00B23A49C882084691
:103F1000C068039000F040FF0490002801DB049883
:103F200001E00498404202280DDC32480069039009
:103F300000F032FF0590002801DB059801E00598AC
:103F4000404202282BDD00200B904FF6FF70FCF75B
:103F5000C9FF14210846FCF798FC2AA26E212320F1
:103F6000FFF758F82348007E08B9012000E0002040
:103F7000204908760846007E30B190202649087016
:103F8000D0202649087005E0D020234908709020F1
:103F9000224908704FF4FA7000F04AFA17E01F2027
:103FA0001F4908804FF6FF70FCF79CFF1DA26E2191
:103FB0002320FFF72FF84FF4FA7000F039FA4FF68C
:103FC000FF70FCF78FFF11B000BD00BF00BFFFF70F
:103FD000F8BB00000000C8426666EE3FCDCCCCCCFA
:103FE000CCCCF03F646961206661632069733A005C
:103FF00000004843040100200000704300008C438F
:104000000000A0435450204E6565642072656164D1
:104010006A75737421000000240000202500002030
:104020001E000020546F7563682053637265656ECF
:104030002041646A757374204F4B21001FB5012124
:104040002920FFF7FDF80320ADF8080010208DF8B7
:104050000B0003208DF80A0002A92F48FCF7BCFCD6
:104060000820ADF8080010208DF80B0003208DF813
:104070000A0002A92948FCF7AFFC1020ADF808009F
:1040800048208DF80B0002A92448FCF7A5FC042069
:10409000ADF8080048208DF80B0002A91E48FCF777
:1040A0009BFC1F49881EFFF7B3F90A208DF80C000E
:1040B00002208DF80D0000208DF80E0001208DF8F3
:1040C0000F0003A8FFF756F801210846FFF7B8F8DC
:1040D00004210120FCF760FC1020009000208DF8E6
:1040E00004000C208DF8050001208DF806006846BC
:1040F000FCF708FCFCF790FAFCF746FD00B11FBD89
:104100004FF6FF70FCF7EEFEFFF73CFBFFF724FADB
:10411000FCF73AFD00BFF2E700140140000C01403B
:104120000A01002010B540F225511D4800F098F812
:1041300010B31B4800F050F9C4B21A48008800F4CC
:104140000040C8B91748008800F4804060B10A2CCC
:1041500003D000201349088020E01248008840F472
:1041600000401049088019E00D2C06D10D48008848
:1041700040F480400B49088010E00A480088C0F3F2
:104180000D0009490C5407480088401C0549088067
:1041900008460088C72801DD0020088010BD000007
:1041A000003801401C0000203C00002021B1828921
:1041B00042F40052828104E082894DF6FF731A4076
:1041C0008281704710B504462048844209D10121FC
:1041D0008803FFF745F800214FF48040FFF740F8CF
:1041E00032E01B48844209D101214804FFF718F846
:1041F00000214FF40030FFF713F825E01548844202
:1042000009D101218804FFF70BF800214FF4802029
:10421000FFF706F818E01048844209D10121C804CC
:10422000FEF7FEFF00214FF40020FEF7F9FF0BE040
:104230000A48844208D101210805FEF7F1FF002158
:104240004FF48010FEF7ECFF10BD00000038014075
:104250000044004000480040004C00400050004036
:1042600070B50246002400230025002040F66A169F
:10427000B14200D100BFC1F3421501F01F03012676
:1042800006FA03F3012D02D19689334006E0022D90
:1042900002D1168A334001E0968A33400C1201267F
:1042A00006FA04F41688344013B10CB1012000E082
:1042B000002070BDF0B50346002400260025002034
:1042C00040F66A17B94200D100BF1846C1F3421444
:1042D00001F01F06012707FA06F5012C01D10C3069
:1042E00004E0022C01D1103000E014301AB107684C
:1042F0002F43076002E00768AF430760F0BD00008E
:104300002DE9F04786B005460E460024A24600BFC0
:10431000A1460027B08900B100BF2F462C8A4CF679
:10432000FF700440F08804432C82AC894EF6F310F1
:104330000440B08831890843718908430443AC8143
:10434000AC8A4FF6FF400440B0890443AC8201A818
:10435000FEF796FF1F48874202D1DDF810A001E06A
:10436000DDF80CA0A88900F4004040B10AEBCA00B7
:1043700000EB0A1031684900B0FBF1F807E00AEBE6
:10438000CA0000EB0A1031688900B0FBF1F8642024
:10439000B8FBF0F004012009642101FB1089A88911
:1043A00000F4004040B1322000EBC900B0FBF1F056
:1043B00000F00700044308E0322000EB09106421FC
:1043C000B0FBF1F000F00F0004432C8106B0BDE813
:1043D000F08700000038014001468888C0F30800DB
:1043E000704700BFFEE7014600BF704710B56FF091
:1043F0000400FFF77BF90A4800680A49B0FBF1F0B6
:10440000094908700846007800EB4001C1EBC01074
:104410004FF6FF7101EAC0000449088010BD00009A
:104420000000002000127A00140000201600002076
:104430000146114A12884A434FF0E0235A61002294
:104440009A611A46126942F001021A6100BF4FF0E8
:10445000E022106900F001021AB100F48032002A53
:10446000F5D04FF0E022126922F001024FF0E02374
:104470001A6100229A617047160000200146114A15
:1044800012784A434FF0E0235A6100229A611A469B
:10449000126942F001021A6100BF4FF0E022106978
:1044A00000F001021AB100F48032002AF5D04FF07A
:1044B000E022126922F001024FF0E0231A6100228B
:1044C0009A6170471400002000BF054A128802F06C
:1044D0004002002AF9D0C2B2014B1B1D1A8070475E
:1044E00000380140FFF782FFFEF73DFE4FF4165003
:1044F00000F0B6F8FEF708FEFCF78EFD4FF47840AA
:104500002D4908802DA232213C20FEF783FD2EA2EA
:1045100046213C20FEF77EFD2EA25A213C20FEF7CC
:1045200079FD30A26E213C20FEF774FD42F210703E
:10453000FFF77EFFFFF782FD3DE074B9FEF7D8FD7F
:104540004FF6FF70FCF7CEFCFFF71CF9FFF704F8FD
:10455000FEF7F0FDFEF7C0FD03242548007A012890
:1045600026D10020FEF748FE00BFFCF7DBF8002054
:104570001F49087208460088D82806DD084640888A
:10458000102802DAFEF7D6FD0AE0194A51881078A1
:10459000FCF70DF91748006840F010001549086055
:1045A000154800680028E0D00120FEF725FE02E053
:1045B0000A20FFF73DFFC0E71E0000204D696E692D
:1045C0002053544D33320000544F55434820544536
:1045D0005354000041544F4D40414C49454E5445C1
:1045E0004B000000323031312F312F3100000000FC
:1045F000040100200C0C01401081214210B502463C
:10460000012000E050430B00A1F10104E1B2F9D117
:1046100010BD2DE9F04106460F4600F087F9040071
:104620000D4618BF0120284320F00040C0F17F60F4
:1046300000F1E040C00F0ED0301C18BF01203843FD
:1046400020F00040C0F17F6000F1E040C00F04BFE7
:104650000120FBF734FE20462946BDE8F08100002A
:1046600010B586B00446012144F20400FEF7E8FDCF
:104670002348FFF7A7FD4FF40070ADF814000320A6
:104680008DF8160018208DF8170005A91D48FCF7B5
:10469000A3F94FF48060ADF8140004208DF81700E2
:1046A00005A91848FCF798F925208DF8000003208B
:1046B0008DF801008DF8020001208DF80300684696
:1046C000FEF758FD01940020ADF80800ADF80A008F
:1046D000ADF80C00ADF810000C20ADF80E0001A9EB
:1046E0000748FFF70DFE012240F225510448FFF76D
:1046F000E1FD01210248FFF759FD06B010BD0000A1
:104700000038014000080140491058BFC1F1404144
:104710005B1058BFC3F140438B42EFF300807047FA
:104720004FEA1153A3F58063D3F11E03A8BFD3F161
:10473000200C08DB4FF0004242EAC12252EA5052FC
:1047400032FA03F0704709420BD4102BC4BF00208B
:10475000704703F5787CBCF1FF3F05D04FF0FF3088
:1047600070474FF00000704770B500F055F800BF7B
:104770004992248000207047F0E7B0FA80F310FAE5
:1047800003F10AD0C3F11D0303F580634FEA4150E2
:104790004FEA035202EBD12170474FF000007047FF
:1047A00051EA030C17D41CF5801F58BFBCF5801FBD
:1047B00000F10680994218BF704708BF90427047C9
:1047C00007D711F5801F58BF13F5801F19D49942E0
:1047D0007047894270471CF5801F08D5BCF5801FC3
:1047E000F7D58B4218BF704708BF824270474FF41D
:1047F000001C1CEB410F38BF1CEB430F01D28B4256
:10480000704770B500F008F8922449004FF000514D
:104810004FF08053FFF778BF0EF1020E2EF0030E1B
:104820005EF8046B364205D4012A43EB030515F507
:10483000001F12D8012841EB010C1CF5001F0CD8F9
:104840000ED14FEAD17C15F5001F0CEB4C0C0CF18E
:10485000020C08BF4CEBD37C04E04FF0080C01E0E5
:104860004FEAD37C0CEB4C0526FA05F606F007065A
:10487000B6F1040C06D20EEB860CBDE870404CF08D
:10488000010C6047DFE80CF0090B02024FF0004119
:104890004FF00000A1F5002170BD19461046012817
:1048A00051EB010418BFD4F5001484BF002001F0BF
:1048B000004170BD0808A0F500114FEA31017047B2
:1048C00053EA010C17D41CF5801F58BFBCF5801F9C
:1048D00000F106808B4218BF704708BF82427047C4
:1048E00007D713F5801F58BF11F5801F19D48B42CD
:1048F00070479B4270471CF5801F08D5BCF5801F90
:10490000F7D5994218BF704708BF904270474FF4DF
:10491000001C1CEB430F38BF1CEB410F01D2994226
:1049200070470FB40CBC03BCFFF76BBF2DE9F0411F
:1049300001F5801CBCF5001FC0F2C3804FEA115C7A
:1049400021EA0C510CF1FD0C41F480115FEA5C0C82
:104950000CF5C07C01D3400049413DA4890241EAE5
:10496000905187028E0E0A0CA45D04FB04F602FB34
:1049700006F6C6F14046A4FB0662F60D46EA42265C
:1049800006FB06F4A4FB01235242C3F1404338BFA7
:104990005B1EA6FB02420024E6FB0324D20B42EA84
:1049A0004446A6FB0623A1FB02E2A3FB07E4A418EE
:1049B0004FF0000252F10002E3FB01426442C2F1F7
:1049C000404E38BFAEF1010EA6FB04234FF00002AB
:1049D000E6FB0E32A2FB03464FF00004B61954F179
:1049E0000004E2FB0264A1FB06E6A4FB07E816EB69
:1049F00008064FF0000858F10008E4FB0168764211
:104A0000C8F1405838BFA8F10108A2FB06E4A3FB97
:104A100008E52D194FF0000454F10004E2FB08549E
:104A2000A1FB05E6A7FB04E818EB06084FF000061B
:104A300056F10006E1FB048618F1200556F1000648
:104A4000A809A8F11B08B10908F03F08B8F10A0F3E
:104A500040EA86601CD901EB0C51BDE8F08100BF33
:104A6000FCF5EEE8E2DDD8D3CFCBC7C3C0BDB9B605
:104A7000B4B1AEACA9A7A5A3A19F9D9B9A9896950A
:104A80009392908F8D8C8B89888786858483828191
:104A9000A0FB006800FB01F208EB4208B8EB872896
:104AA00007D5341858EB0104D5D5401C51F100014D
:104AB000D1E7341A78EB0104CDD4401E71F1000126
:104AC000C9E75FEA4C0C5FEA9C5C0DD105D34FF05F
:104AD000000001F00041BDE8F081BDE8F04170B593
:104AE000FFF79AFE6DDBFFBEBDE8F0414FF000001E
:104AF000004970470000F87F43004FEAD30C4FEAAB
:104B00003C0C43401FBF40070CF1605113F0FE4FB7
:104B100070471CF0006F03D100200CF0004170477B
:104B20000CF0004343EA507010B540EACC0000F0AE
:104B30001CFA00BF000000924FEA0001FFF7BABE66
:104B40004FF000414FF00000A1F500217047000038
:104B500090EA010F48BF81F0004100F16282421AE1
:104B60003CBF801A89184FEAD0524FF07F4C1CEAA4
:104B7000410FA2EBD15318BF9CEA026F00F03B80BB
:104B80004FF0004C4CEA00204CEA012121FA03FCD2
:104B900010EB0C0C1ED202F1FF325FEA1C2040EB3E
:104BA000C25038BF70471CF07F0F4FEA400C18BF4F
:104BB000BCF17F4F38BF7047C3F12003994008BF55
:104BC00020F00100BCF17F4F38BF7047A0F1C0401A
:104BD00000F011BA4FEA3C00000A40EBC25028BF77
:104BE0001CF0FF0F4FEA400CE6D018BFBCF17F4F1E
:104BF00038BF7047EAE79CEA026F05D010EA5C0F05
:104C000008BF00F00040704710B500F0AEF900BFDB
:104C100064FBBE3E4FF47F0C1CEAD0121EBF1CEAA0
:104C2000D11392EA0C0F93EA0C0F00F0858090EA02
:104C3000010F48BF42F4807240F4000C41F40000C0
:104C40002CF07F4120F07F4000B58142A2EB0302AF
:104C50000FF2081CACEB504EC0F100009EF800E0D3
:104C60004FEA4E0E00FB0EFC38BF49004FEA2C1CE9
:104C700002F5FA020CFB0EF34FEACE1E4FEA112C9E
:104C80004FEAC1210EEB635E42EB22420EFB0CFCAD
:104C90004FEA1C5300FB03114FEA112C4FEA01317C
:104CA0000EFB0CFC4FEADC4C00FB0C11C14228BF90
:104CB00009184CEB03335DF804EB10EB410143EBB7
:104CC000C250B2F57C0F38BF704729D512F0F00FF3
:104CD0001CBF00F1C04000F000407047008182839B
:104CE0008485868788898B8C8D8E8F9192939596FB
:104CF00097999A9C9D9FA0A2A3A5A7A8AAACAEB085
:104D0000B2B3B5B7B9BCBEC0C2C5C7C9CCCED1D489
:104D1000D7D9DCDFE2E6E9ECF0F3F7FAFE000000B9
:104D20004FEA400C0CF1807CBCF17E4F28BF7047ED
:104D3000B0F1C04000F05FB990EA010F0CEAD11366
:104D400048BF42F48072624538BF634507D213F40E
:104D50007F0F16D080EA010000F00040704710B5C8
:104D600000F003F9097EFC3E00F005B880EA01007E
:104D700000F00040704780EA010000F0004000F0C1
:104D80003AB912F47F0F04BF0248704780EA01006D
:104D900000F031B90000C07F41000B0ED3F19E023C
:104DA00008D950F400034FEA032323FA02F048BF66
:104DB0004042704710B500F0D8F800BF49922480F7
:104DC000002070476FF0004282EA20007047000028
:104DD000C10DD1F19E0206DB4FEA002343F00043F0
:104DE00023FA02F07047004207D54FEA4001B1F1C3
:104DF000FE4F02D24FF00000704710B500F0B5F83A
:104E000049922480002070476FEA2000704700001C
:104E100010F0004148BF4042B0FA80F310FA03F2AC
:104E2000C3F19D030BD051EAC35101EB122053068D
:104E300038BF704700F1010008BF20F00100704743
:104E4000B0FA80F310FA03F2C3F19D030AD0D9053A
:104E500001EB1220530638BF704700F1010008BF74
:104E600020F00100704700004FF47F0C1CEAD012C4
:104E70001EBF1CEAD11392EA0C0F93EA0C0F00F04C
:104E8000478090EA010F48BF42F480724FF0004C17
:104E90004CEA00204CEA012102EB0302A0FB0113C3
:104EA000A2F50002002918BF43F001035B0028BFF0
:104EB0004FEA330342EB22425FEA132C4CEBC25021
:104EC0002EBFBCEB436FB2F57C0F70474FEA036C0B
:104ED000BCF1004F08BF20F00100B2F57C0F38BFD5
:104EE00070470BD582F0FF0212F5803FC8BF7047B4
:104EF00000F1C040D8BF00F00040704700F5000C42
:104F00005FEA4C0C48BF7047B0F1C04000F073B886
:104F100090EA010F0CEAD11348BF42F48072624557
:104F200038BF634504D280EA010000F000407047BA
:104F300010B500F01AF800BF8900013E00F007B874
:104F400000F009B85FEA410C5FEA1C6C08D080EA07
:104F5000010000F050B85FEA400C5FEA1C6CF6D12B
:104F60004FF00040A0F5800070470EF1020E2EF0C9
:104F7000030E5EF8044B244204D44FEA4102B2F11E
:104F80007F4F11D84FEA4003B3F17F4F0CD80ED1B9
:104F90004FEAD07CB2F17F4F0CEB4C0C0CF1020CC1
:104FA00008BF4CEBD17C04E04FF0080C01E04FEA65
:104FB000D17C0CEB4C0324FA03F404F00704B4F1A5
:104FC000040C06D20EEB840CBDE810404CF0010C32
:104FD0006047DFE80CF0070802024FF00040A0F540
:104FE000800010BD0846420018BFD2F1807288BF11
:104FF00000F0004010BDFF2141EAD050C0057047CD
:1050000080F0004090EA010F7FF5A9AD81F00041EA
:1050100000F007B890EA010F48BF81F000413FF56A
:105020009EAD421A04D882F00042A0EB0200114467
:105030004FEAD0524FF07F4C1CEA410FA2EBD15304
:1050400018BF9CEA026F4AD04FF0004C4CEA002097
:105050004CEA012121FA03FCB0EB0C0C0FD412F046
:10506000FE0F36D05FEA4C001DD5001240EBC25057
:1050700038BF70471CF03F0F18BF70470BE0A2F11C
:1050800001025FEA1C2040EBC25038BF70471CF0A1
:105090007F0F18BF7047C3F12003994014BF401E13
:1050A00020F00100704780084FEA122308BF7047C4
:1050B000B0FA80FCA2EB0C02CCF1280C60FA0CF0E8
:1050C00093EA122F04BF00EBC25070474FEAC3703F
:1050D0007047130A5FEADC1008BF7047F6E79CEAE6
:1050E000026F04D010EA5C0F08BF0020704710B5B3
:1050F000FFF73BFF40DFF63E81F0004070470000C5
:10510000000000000000000000000000040404048F
:1051100004040004000000140A0A0000000000005B
:105120000000000014143F140A3F0A0A00000004A3
:105130001E1505060C14150F0400000012150D0AAB
:10514000142C2A1200000000040A0A1E1515093644
:10515000000000020201000000000000000000202A
:1051600010080808080808102000000204080808B1
:1051700008080804020000000004150E0E150400C3
:10518000000000000404041F0404040000000000E8
:105190000000000000000002020100000000001FEB
:1051A00000000000000000000000000000000002FD
:1051B00000000010080808040402020201000000B8
:1051C0000E1111111111110E00000000040604044B
:1051D0000404040E000000000E1111080402011F57
:1051E000000000000E11100C1010110E0000000045
:1051F000080C0A0A091E0818000000001F01010F10
:105200001010110E000000000E09010F1111110EF7
:10521000000000001F09080404040404000000004A
:105220000E11110E1111110E000000000E111111BE
:105230001E10120E00000000000004000000000418
:105240000000000000000004000000040400002032
:1052500010080402040810200000000000001F00D5
:10526000001F0000000000020408102010080402C3
:10527000000000000E1111080404000400000000EA
:105280000E111915151D011E0000000004040C0A62
:105290000A1E1233000000000F12120E1212120F1B
:1052A000000000001E1101010101110E00000000AC
:1052B0000F1212121212120F000000001F120A0E1B
:1052C0000A02121F000000001F120A0E0A02020743
:1052D000000000001C1201013911120C0000000036
:1052E0003312121E12121233000000001F040404B5
:1052F0000404041F000000003E080808080808090C
:105300000700000037120A060A0A123700000000E0
:10531000070202020202223F000000001B1B1B1BAF
:1053200015151515000000003B1216161A1A121753
:10533000000000000E1111111111110E00000000EB
:105340000F12120E02020207000000000E111111CE
:105350001117190E180000000F12120E0A12123740
:10536000000000001E1101060810110F00000000CF
:105370001F1504040404040E00000000331212126E
:105380001212120C000000003312120A0A0C04045C
:10539000000000001515150E0A0A0A0A0000000098
:1053A0001B0A0A04040A0A1B000000001B0A0A0464
:1053B0000404040E000000001F0908040402121F68
:1053C0000000001C04040404040404041C00000283
:1053D00002020404080808100000000E080808086B
:1053E000080808080E0000040A0000000000000081
:1053F000000000000000000000000000003F00046A
:105400000000000000000000000000000000000C90
:10541000121C123C000000000302020E1212120EB7
:10542000000000000000001C1202021C000000002E
:105430001810101C1212123C000000000000000C9A
:10544000121E021C000000003804041E0404041E86
:10545000000000000000003C120C021E221C000094
:105460000302020E121212370000000004000006B0
:105470000404040E000000000800000C08080808DE
:10548000080700000302023A0A0E1237000000006B
:10549000070404040404041F000000000000000FBF
:1054A00015151515000000000000000F121212372C
:1054B000000000000000000C1212120C000000009E
:1054C0000000000F1212120E020700000000001C64
:1054D0001212121C103800000000001B0602020706
:1054E000000000000000001E020C101E0000000062
:1054F0000004040E04040418000000000000001B57
:105500001212123C0000000000000037120A0C04C6
:105510000000000000000015150E0A0A000000003F
:105520000000001B0A040A1B0000000000000037F6
:10553000120A0C04040300000000001E0804041EEC
:1055400000000018080808040808080818000808DF
:1055500008080808080808080808000604040408E1
:1055600004040404060002251800000000000000E6
:10557000000000000000000000000000000000002B
:1055800000000000000808080808080800001818B3
:10559000000000486C241200000000000000000021
:1055A00000000000002424247F1212127F12121225
:1055B00000000000081C2A2A0A0C1828282A2A1C85
:1055C000080800000022251515152A5854545422A5
:1055D00000000000000C1212120A76252911916EAB
:1055E00000000006060403000000000000000000A8
:1055F00000000040201010080808080808101020BB
:1056000040000002040808101010101010080804D0
:1056100002000000000008086B1C1C6B080800005A
:10562000000000000000080808087F0808080800BB
:10563000000000000000000000000000000006065E
:1056400004030000000000000000FE000000000055
:10565000000000000000000000000000000006063E
:1056600000000000804040202010100808040402C0
:1056700002000000001824424242424242422418E2
:105680000000000000080E08080808080808083E86
:1056900000000000003C4242422020100804427EEC
:1056A00000000000003C4242201820404042221CE2
:1056B0000000000000203028242422227E202078B0
:1056C00000000000007E0202021A26404042221C16
:1056D0000000000000382402021A26424242241828
:1056E00000000000007E22221010080808080808A8
:1056F00000000000003C4242422418244242423C46
:105700000000000000182442424264584040241C1B
:105710000000000000000000181800000000181829
:105720000000000000000000000800000000000869
:105730000804000000402010080402040810204063
:1057400000000000000000007F0000007F0000005B
:10575000000000000002040810204020100804028D
:1057600000000000003C4242464020101000181883
:1057700000000000001C225A555555552D42221C90
:1057800000000000000808181414243C224242E7DC
:1057900000000000001F2222221E22424242221F3D
:1057A00000000000007C4242010101010142221C74
:1057B00000000000001F2242424242424242221F99
:1057C00000000000003F4212121E12120242423F2D
:1057D00000000000003F4212121E121202020207D5
:1057E00000000000003C2222010101712122221C44
:1057F0000000000000E7424242427E42424242E74D
:1058000000000000003E0808080808080808083ED4
:1058100000000000007C101010101010101010106C
:10582000110F0000007722120A0E0A1212222277AC
:105830000000000000070202020202020202427F90
:10584000000000000077363636362A2A2A2A2A6BCC
:105850000000000000E346464A4A52525262624744
:1058600000000000001C2241414141414141221CF5
:1058700000000000003F424242423E020202020794
:1058800000000000001C2241414141414D53321CA7
:1058900060000000003F4242423E1212222242C7F4
:1058A00000000000007C4242020418204042423EB8
:1058B00000000000007F4908080808080808081CC4
:1058C0000000000000E74242424242424242423C63
:1058D0000000000000E742422224241414180808A3
:1058E00000000000006B49494949555536222222E3
:1058F0000000000000E7422424181818242442E77E
:105900000000000000772222141408080808081C70
:1059100000000000007E2120101008040442423FD5
:10592000000000780808080808080808080808089F
:10593000780000000202040408080810102020204B
:105940004040001E101010101010101010101010F9
:105950001E000038440000000000000000000000AD
:105960000000000000000000000000000000000037
:1059700000FF00060800000000000000000000001A
:105980000000000000000000003C4278444242FC5D
:105990000000000000030202021A26424242261AB8
:1059A00000000000000000000038440202024438F9
:1059B000000000000060404040784442424264D809
:1059C0000000000000000000003C427E0202423C59
:1059D0000000000000F08808087E08080808083E5B
:1059E0000000000000000000007C22221C023C425B
:1059F000423C000000030202023A4642424242E7B1
:105A000000000000000C0C00000E08080808083E0A
:105A1000000000000030300000382020202020202E
:105A2000221E0000000302020272120A16122277DE
:105A300000000000000E0808080808080808083ED2
:105A40000000000000000000007F9292929292B746
:105A50000000000000000000003B4642424242E7D6
:105A60000000000000000000003C42424242423C74
:105A70000000000000000000001B26424242221EDF
:105A800002070000000000000078444242424478CF
:105A900040E000000000000000774C040404041FF4
:105AA0000000000000000000007C42023C40423E3A
:105AB0000000000000000008083E08080808083040
:105AC000000000000000000000634242424262DC2D
:105AD000000000000000000000E742242414080831
